{
  "_format": "hh-sol-artifact-1",
  "contractName": "Claimables",
  "sourceName": "contracts/Claimables.sol",
  "abi": [
    {
      "inputs": [],
      "stateMutability": "nonpayable",
      "type": "constructor"
    },
    {
      "anonymous": false,
      "inputs": [
        {
          "indexed": false,
          "internalType": "address",
          "name": "newCEO",
          "type": "address"
        }
      ],
      "name": "CEOUpdated",
      "type": "event"
    },
    {
      "anonymous": false,
      "inputs": [
        {
          "indexed": false,
          "internalType": "address",
          "name": "newCTO",
          "type": "address"
        }
      ],
      "name": "CTOUpdated",
      "type": "event"
    },
    {
      "anonymous": false,
      "inputs": [
        {
          "indexed": false,
          "internalType": "uint256",
          "name": "tokenId",
          "type": "uint256"
        },
        {
          "indexed": false,
          "internalType": "string",
          "name": "key",
          "type": "string"
        },
        {
          "indexed": false,
          "internalType": "address",
          "name": "addedBy",
          "type": "address"
        }
      ],
      "name": "ClaimableAdded",
      "type": "event"
    },
    {
      "anonymous": false,
      "inputs": [
        {
          "indexed": false,
          "internalType": "uint256",
          "name": "tokenId",
          "type": "uint256"
        },
        {
          "indexed": false,
          "internalType": "string",
          "name": "key",
          "type": "string"
        },
        {
          "indexed": false,
          "internalType": "address",
          "name": "claimedBy",
          "type": "address"
        }
      ],
      "name": "ClaimableClaimed",
      "type": "event"
    },
    {
      "anonymous": false,
      "inputs": [
        {
          "indexed": false,
          "internalType": "uint256",
          "name": "tokenId",
          "type": "uint256"
        },
        {
          "indexed": false,
          "internalType": "string",
          "name": "key",
          "type": "string"
        },
        {
          "indexed": false,
          "internalType": "address",
          "name": "deletedBy",
          "type": "address"
        }
      ],
      "name": "ClaimableDeleted",
      "type": "event"
    },
    {
      "anonymous": false,
      "inputs": [
        {
          "indexed": true,
          "internalType": "address",
          "name": "previousOwner",
          "type": "address"
        },
        {
          "indexed": true,
          "internalType": "address",
          "name": "newOwner",
          "type": "address"
        }
      ],
      "name": "OwnershipTransferred",
      "type": "event"
    },
    {
      "anonymous": false,
      "inputs": [
        {
          "indexed": false,
          "internalType": "address",
          "name": "newTreasuryAddress",
          "type": "address"
        }
      ],
      "name": "TreasuryUpdated",
      "type": "event"
    },
    {
      "inputs": [
        {
          "internalType": "enum ClaimableType",
          "name": "_claimableType",
          "type": "uint8"
        },
        {
          "internalType": "string",
          "name": "_key",
          "type": "string"
        },
        {
          "internalType": "string",
          "name": "_name",
          "type": "string"
        }
      ],
      "name": "addClaimableForAllTokens",
      "outputs": [],
      "stateMutability": "nonpayable",
      "type": "function"
    },
    {
      "inputs": [
        {
          "internalType": "uint256",
          "name": "_tokenId",
          "type": "uint256"
        },
        {
          "internalType": "enum ClaimableType",
          "name": "_claimableType",
          "type": "uint8"
        },
        {
          "internalType": "string",
          "name": "_key",
          "type": "string"
        },
        {
          "internalType": "string",
          "name": "_name",
          "type": "string"
        }
      ],
      "name": "addClaimableForToken",
      "outputs": [
        {
          "components": [
            {
              "internalType": "enum ClaimableType",
              "name": "claimableType",
              "type": "uint8"
            },
            {
              "internalType": "string",
              "name": "key",
              "type": "string"
            },
            {
              "internalType": "string",
              "name": "name",
              "type": "string"
            },
            {
              "internalType": "bool",
              "name": "claimed",
              "type": "bool"
            },
            {
              "internalType": "uint256",
              "name": "claimedAt",
              "type": "uint256"
            },
            {
              "internalType": "address",
              "name": "claimedBy",
              "type": "address"
            }
          ],
          "internalType": "struct ClaimableItem",
          "name": "",
          "type": "tuple"
        }
      ],
      "stateMutability": "nonpayable",
      "type": "function"
    },
    {
      "inputs": [
        {
          "internalType": "uint256",
          "name": "_tokenId",
          "type": "uint256"
        }
      ],
      "name": "addTokenToTokenClaimablesList",
      "outputs": [
        {
          "components": [
            {
              "internalType": "enum ClaimableType",
              "name": "claimableType",
              "type": "uint8"
            },
            {
              "internalType": "string",
              "name": "key",
              "type": "string"
            },
            {
              "internalType": "string",
              "name": "name",
              "type": "string"
            },
            {
              "internalType": "bool",
              "name": "claimed",
              "type": "bool"
            },
            {
              "internalType": "uint256",
              "name": "claimedAt",
              "type": "uint256"
            },
            {
              "internalType": "address",
              "name": "claimedBy",
              "type": "address"
            }
          ],
          "internalType": "struct ClaimableItem[][]",
          "name": "collectionRedeemables",
          "type": "tuple[][]"
        }
      ],
      "stateMutability": "nonpayable",
      "type": "function"
    },
    {
      "inputs": [
        {
          "internalType": "uint256",
          "name": "_tokenId",
          "type": "uint256"
        },
        {
          "internalType": "string",
          "name": "_key",
          "type": "string"
        }
      ],
      "name": "claimItemForToken",
      "outputs": [
        {
          "components": [
            {
              "internalType": "enum ClaimableType",
              "name": "claimableType",
              "type": "uint8"
            },
            {
              "internalType": "string",
              "name": "key",
              "type": "string"
            },
            {
              "internalType": "string",
              "name": "name",
              "type": "string"
            },
            {
              "internalType": "bool",
              "name": "claimed",
              "type": "bool"
            },
            {
              "internalType": "uint256",
              "name": "claimedAt",
              "type": "uint256"
            },
            {
              "internalType": "address",
              "name": "claimedBy",
              "type": "address"
            }
          ],
          "internalType": "struct ClaimableItem",
          "name": "",
          "type": "tuple"
        }
      ],
      "stateMutability": "nonpayable",
      "type": "function"
    },
    {
      "inputs": [],
      "name": "getCEO",
      "outputs": [
        {
          "internalType": "address",
          "name": "",
          "type": "address"
        }
      ],
      "stateMutability": "view",
      "type": "function"
    },
    {
      "inputs": [],
      "name": "getCTO",
      "outputs": [
        {
          "internalType": "address",
          "name": "",
          "type": "address"
        }
      ],
      "stateMutability": "view",
      "type": "function"
    },
    {
      "inputs": [
        {
          "internalType": "uint256",
          "name": "_tokenId",
          "type": "uint256"
        },
        {
          "internalType": "string",
          "name": "_claimableKey",
          "type": "string"
        }
      ],
      "name": "getTokenClaimable",
      "outputs": [
        {
          "components": [
            {
              "internalType": "enum ClaimableType",
              "name": "claimableType",
              "type": "uint8"
            },
            {
              "internalType": "string",
              "name": "key",
              "type": "string"
            },
            {
              "internalType": "string",
              "name": "name",
              "type": "string"
            },
            {
              "internalType": "bool",
              "name": "claimed",
              "type": "bool"
            },
            {
              "internalType": "uint256",
              "name": "claimedAt",
              "type": "uint256"
            },
            {
              "internalType": "address",
              "name": "claimedBy",
              "type": "address"
            }
          ],
          "internalType": "struct ClaimableItem",
          "name": "",
          "type": "tuple"
        }
      ],
      "stateMutability": "view",
      "type": "function"
    },
    {
      "inputs": [],
      "name": "getTreasury",
      "outputs": [
        {
          "internalType": "address",
          "name": "",
          "type": "address"
        }
      ],
      "stateMutability": "view",
      "type": "function"
    },
    {
      "inputs": [],
      "name": "owner",
      "outputs": [
        {
          "internalType": "address",
          "name": "",
          "type": "address"
        }
      ],
      "stateMutability": "view",
      "type": "function"
    },
    {
      "inputs": [
        {
          "internalType": "string",
          "name": "_key",
          "type": "string"
        }
      ],
      "name": "removeClaimableForAllTokens",
      "outputs": [],
      "stateMutability": "nonpayable",
      "type": "function"
    },
    {
      "inputs": [
        {
          "internalType": "uint256",
          "name": "_tokenId",
          "type": "uint256"
        },
        {
          "internalType": "string",
          "name": "_key",
          "type": "string"
        }
      ],
      "name": "removeClaimableForToken",
      "outputs": [],
      "stateMutability": "nonpayable",
      "type": "function"
    },
    {
      "inputs": [],
      "name": "renounceOwnership",
      "outputs": [],
      "stateMutability": "nonpayable",
      "type": "function"
    },
    {
      "inputs": [
        {
          "internalType": "address",
          "name": "_newCEO",
          "type": "address"
        }
      ],
      "name": "setCEO",
      "outputs": [],
      "stateMutability": "nonpayable",
      "type": "function"
    },
    {
      "inputs": [
        {
          "internalType": "address",
          "name": "_newCTO",
          "type": "address"
        }
      ],
      "name": "setCTO",
      "outputs": [],
      "stateMutability": "nonpayable",
      "type": "function"
    },
    {
      "inputs": [
        {
          "internalType": "address payable",
          "name": "_treasury",
          "type": "address"
        }
      ],
      "name": "setTreasury",
      "outputs": [],
      "stateMutability": "nonpayable",
      "type": "function"
    },
    {
      "inputs": [
        {
          "internalType": "uint256",
          "name": "",
          "type": "uint256"
        },
        {
          "internalType": "string",
          "name": "",
          "type": "string"
        }
      ],
      "name": "tokenClaimables",
      "outputs": [
        {
          "internalType": "enum ClaimableType",
          "name": "claimableType",
          "type": "uint8"
        },
        {
          "internalType": "string",
          "name": "key",
          "type": "string"
        },
        {
          "internalType": "string",
          "name": "name",
          "type": "string"
        },
        {
          "internalType": "bool",
          "name": "claimed",
          "type": "bool"
        },
        {
          "internalType": "uint256",
          "name": "claimedAt",
          "type": "uint256"
        },
        {
          "internalType": "address",
          "name": "claimedBy",
          "type": "address"
        }
      ],
      "stateMutability": "view",
      "type": "function"
    },
    {
      "inputs": [
        {
          "internalType": "address",
          "name": "newOwner",
          "type": "address"
        }
      ],
      "name": "transferOwnership",
      "outputs": [],
      "stateMutability": "nonpayable",
      "type": "function"
    }
  ],
  "bytecode": "0x60806040523480156200001157600080fd5b506200001d33620000dd565b600180819055506200005460405180606001604052806031815260200162001f5d60319139336200012d60201b620014591760201c565b6200008460405180606001604052806024815260200162001f8e60249139336200012d60201b620014591760201c565b60028054336001600160a01b0319918216811790925560038054909116909117905560408051606081019091526022808252620000d7919062001f3b6020830139336200012d60201b620014591760201c565b62000208565b600080546001600160a01b038381166001600160a01b0319831681178455604051919092169283917f8be0079c531659141344cd1fd0a4f28419497f9722a3daafe3b4186f6b6457e09190a35050565b6200017a8282604051602401620001469291906200019f565b60408051601f198184030181529190526020810180516001600160e01b0390811663319af33360e01b179091526200017e16565b5050565b80516a636f6e736f6c652e6c6f67602083016000808483855afa5050505050565b604081526000835180604084015260005b81811015620001cf5760208187018101516060868401015201620001b0565b81811115620001e2576000606083860101525b506001600160a01b0393909316602083015250601f91909101601f191601606001919050565b611d2380620002186000396000f3fe608060405234801561001057600080fd5b506004361061010b5760003560e01c8063a5af871d116100a2578063d737094d11610071578063d737094d146101ff578063dc4104c314610224578063f0f4426014610237578063f2fde38b1461024a578063fe1439b41461025d57600080fd5b8063a5af871d146101be578063c8b0e68d146101d1578063cc72bcd5146101d9578063d0718801146101ec57600080fd5b80634d232462116100de5780634d23246214610172578063662d284114610192578063715018a6146101a55780638da5cb5b146101ad57600080fd5b806327d7874c146101105780633b19e84a14610125578063433fac851461014a5780634ba4a29e14610152575b600080fd5b61012361011e366004611635565b610270565b005b61012d61030b565b6040516001600160a01b0390911681526020015b60405180910390f35b61012d610372565b610165610160366004611710565b6103d9565b6040516101419190611892565b6101856101803660046118a5565b61059b565b60405161014191906118be565b6101236101a0366004611963565b610723565b6101236107ae565b6000546001600160a01b031661012d565b6101236101cc3660046119d7565b610814565b61012d61091d565b6101656101e7366004611a1e565b610984565b6101656101fa3660046119d7565b610e29565b61021261020d3660046119d7565b611067565b60405161014196959493929190611a9a565b610123610232366004611af4565b6111db565b610123610245366004611635565b611261565b610123610258366004611635565b6112d9565b61012361026b366004611635565b6113a4565b6002546001600160a01b031633146102a35760405162461bcd60e51b815260040161029a90611b31565b60405180910390fd5b6001600160a01b0381166102b657600080fd5b600280546001600160a01b0319166001600160a01b0383169081179091556040519081527f83430a5ceb5107ce76c0ebe77c43cdc5ddbd9d2269f5c7fe175933cd3d3b2ad8906020015b60405180910390a150565b6002546000906001600160a01b031633148061033157506003546001600160a01b031633145b8061034657506000546001600160a01b031633145b6103625760405162461bcd60e51b815260040161029a90611b74565b506004546001600160a01b031690565b6002546000906001600160a01b031633148061039857506003546001600160a01b031633145b806103ad57506000546001600160a01b031633145b6103c95760405162461bcd60e51b815260040161029a90611b74565b506003546001600160a01b031690565b6103e161150f565b6002546001600160a01b031633148061040457506003546001600160a01b031633145b8061041957506000546001600160a01b031633145b6104355760405162461bcd60e51b815260040161029a90611b74565b60006040518060c001604052808660038111156104545761045461178e565b815260200185815260200184815260200160001515815260200142815260200160006001600160a01b031681525090508060056000888152602001908152602001600020856040516104a69190611bba565b90815260405190819003602001902081518154829060ff191660018360038111156104d3576104d361178e565b021790555060208281015180516104f09260018501920190611551565b506040820151805161050c916002840191602090910190611551565b50606082015160038201805460ff19169115159190911790556080820151600482015560a090910151600590910180546001600160a01b0319166001600160a01b039092169190911790557f7c3d02d6194407085d071da10ea3a62ce91a71382a249d42a37428106fd0150786853360405161058a93929190611bd6565b60405180910390a195945050505050565b600081815260056020526040808220905160609284929091908152604051908190036020019020600501546001600160a01b03161461061c5760405162461bcd60e51b815260206004820181905260248201527f4e6f20636c61696d61626c657320666f7220676976656e20746f6b656e204944604482015260640161029a565b6040805160c08101825260008082528251602080820185528282528084019190915283518082018552828152838501526060830182905242608084015260a08301829052868252600581529083902083519081529251928390030190912081518154829060ff191660018360038111156106985761069861178e565b021790555060208281015180516106b59260018501920190611551565b50604082015180516106d1916002840191602090910190611551565b50606082015160038201805460ff19169115159190911790556080820151600482015560a090910151600590910180546001600160a01b0319166001600160a01b039092169190911790555b50919050565b6002546001600160a01b031633148061074657506003546001600160a01b031633145b8061075b57506000546001600160a01b031633145b6107775760405162461bcd60e51b815260040161029a90611b74565b60015b6006548160ff16116107a8576107958160ff168585856103d9565b50806107a081611c07565b91505061077a565b50505050565b6000546001600160a01b031633146108085760405162461bcd60e51b815260206004820181905260248201527f4f776e61626c653a2063616c6c6572206973206e6f7420746865206f776e6572604482015260640161029a565b610812600061149e565b565b6002546001600160a01b031633148061083757506003546001600160a01b031633145b8061084c57506000546001600160a01b031633145b6108685760405162461bcd60e51b815260040161029a90611b74565b600082815260056020526040908190209051610885908390611bba565b908152604051908190036020019020805460ff1916815560006108ab60018301826115d5565b6108b96002830160006115d5565b5060038101805460ff191690556000600482015560050180546001600160a01b03191690557fbf024659055c0ecc9487db128b2e3ddc0e60ab4ddec3bccc4b23a6e250687f3182823360405161091193929190611bd6565b60405180910390a15050565b6002546000906001600160a01b031633148061094357506003546001600160a01b031633145b8061095857506000546001600160a01b031633145b6109745760405162461bcd60e51b815260040161029a90611b74565b506002546001600160a01b031690565b61098c61150f565b60008481526005602052604080822090516109aa9086908690611c35565b9081526040805191829003602001822060c083019091528054829060ff1660038111156109d9576109d961178e565b60038111156109ea576109ea61178e565b81526020016001820180546109fe90611c45565b80601f0160208091040260200160405190810160405280929190818152602001828054610a2a90611c45565b8015610a775780601f10610a4c57610100808354040283529160200191610a77565b820191906000526020600020905b815481529060010190602001808311610a5a57829003601f168201915b50505050508152602001600282018054610a9090611c45565b80601f0160208091040260200160405190810160405280929190818152602001828054610abc90611c45565b8015610b095780601f10610ade57610100808354040283529160200191610b09565b820191906000526020600020905b815481529060010190602001808311610aec57829003601f168201915b5050509183525050600382015460ff1615156020820152600482015460408201526005909101546001600160a01b03166060918201526001908201529050336001600160a01b031660a0820152426080820152600085815260056020526040908190209051829190610b7e9087908790611c35565b90815260405190819003602001902081518154829060ff19166001836003811115610bab57610bab61178e565b02179055506020828101518051610bc89260018501920190611551565b5060408201518051610be4916002840191602090910190611551565b50606082015160038201805460ff19169115159190911790556080820151600482015560a090910151600590910180546001600160a01b0319166001600160a01b039092169190911790557f3d9e288e57affd236b62a17f5bbbee7bdb87930e804a793e3d15a104712b8cdb85858533604051610c649493929190611c7a565b60405180910390a1600085815260056020526040908190209051610c8b9086908690611c35565b9081526040805191829003602001822060c083019091528054829060ff166003811115610cba57610cba61178e565b6003811115610ccb57610ccb61178e565b8152602001600182018054610cdf90611c45565b80601f0160208091040260200160405190810160405280929190818152602001828054610d0b90611c45565b8015610d585780601f10610d2d57610100808354040283529160200191610d58565b820191906000526020600020905b815481529060010190602001808311610d3b57829003601f168201915b50505050508152602001600282018054610d7190611c45565b80601f0160208091040260200160405190810160405280929190818152602001828054610d9d90611c45565b8015610dea5780601f10610dbf57610100808354040283529160200191610dea565b820191906000526020600020905b815481529060010190602001808311610dcd57829003601f168201915b5050509183525050600382015460ff1615156020820152600482015460408201526005909101546001600160a01b031660609091015295945050505050565b610e3161150f565b60008381526005602052604080822090518592918152604051908190036020019020600501546001600160a01b031614610ead5760405162461bcd60e51b815260206004820181905260248201527f4e6f20636c61696d61626c657320666f7220676976656e20746f6b656e204944604482015260640161029a565b600084815260056020526040908190209051610eca908590611bba565b9081526040805191829003602001822060c083019091528054829060ff166003811115610ef957610ef961178e565b6003811115610f0a57610f0a61178e565b8152602001600182018054610f1e90611c45565b80601f0160208091040260200160405190810160405280929190818152602001828054610f4a90611c45565b8015610f975780601f10610f6c57610100808354040283529160200191610f97565b820191906000526020600020905b815481529060010190602001808311610f7a57829003601f168201915b50505050508152602001600282018054610fb090611c45565b80601f0160208091040260200160405190810160405280929190818152602001828054610fdc90611c45565b80156110295780601f10610ffe57610100808354040283529160200191611029565b820191906000526020600020905b81548152906001019060200180831161100c57829003601f168201915b5050509183525050600382015460ff1615156020820152600482015460408201526005909101546001600160a01b0316606090910152949350505050565b600560209081526000928352604090922081518083018401805192815290840192909301919091209152805460018201805460ff90921692916110a990611c45565b80601f01602080910402602001604051908101604052809291908181526020018280546110d590611c45565b80156111225780601f106110f757610100808354040283529160200191611122565b820191906000526020600020905b81548152906001019060200180831161110557829003601f168201915b50505050509080600201805461113790611c45565b80601f016020809104026020016040519081016040528092919081815260200182805461116390611c45565b80156111b05780601f10611185576101008083540402835291602001916111b0565b820191906000526020600020905b81548152906001019060200180831161119357829003601f168201915b5050505060038301546004840154600590940154929360ff909116929091506001600160a01b031686565b6002546001600160a01b03163314806111fe57506003546001600160a01b031633145b8061121357506000546001600160a01b031633145b61122f5760405162461bcd60e51b815260040161029a90611b74565b60015b6006548160ff161161125d5761124b8160ff1683610814565b8061125581611c07565b915050611232565b5050565b6002546001600160a01b0316331461128b5760405162461bcd60e51b815260040161029a90611b31565b600480546001600160a01b0319166001600160a01b0383169081179091556040519081527f7dae230f18360d76a040c81f050aa14eb9d6dc7901b20fc5d855e2a20fe814d190602001610300565b6000546001600160a01b031633146113335760405162461bcd60e51b815260206004820181905260248201527f4f776e61626c653a2063616c6c6572206973206e6f7420746865206f776e6572604482015260640161029a565b6001600160a01b0381166113985760405162461bcd60e51b815260206004820152602660248201527f4f776e61626c653a206e6577206f776e657220697320746865207a65726f206160448201526564647265737360d01b606482015260840161029a565b6113a18161149e565b50565b6002546001600160a01b03163314806113c757506003546001600160a01b031633145b806113dc57506000546001600160a01b031633145b6113f85760405162461bcd60e51b815260040161029a90611b74565b6001600160a01b03811661140b57600080fd5b600380546001600160a01b0319166001600160a01b0383169081179091556040519081527f1f93b83ae610ff0234bc9cdd94f27cc0000fc5c6e4b021ece77a1fcb043df06290602001610300565b61125d828260405160240161146f929190611cc3565b60408051601f198184030181529190526020810180516001600160e01b031663319af33360e01b1790526114ee565b600080546001600160a01b038381166001600160a01b0319831681178455604051919092169283917f8be0079c531659141344cd1fd0a4f28419497f9722a3daafe3b4186f6b6457e09190a35050565b80516a636f6e736f6c652e6c6f67602083016000808483855afa5050505050565b6040805160c08101909152806000815260200160608152602001606081526020016000151581526020016000815260200160006001600160a01b031681525090565b82805461155d90611c45565b90600052602060002090601f01602090048101928261157f57600085556115c5565b82601f1061159857805160ff19168380011785556115c5565b828001600101855582156115c5579182015b828111156115c55782518255916020019190600101906115aa565b506115d192915061160b565b5090565b5080546115e190611c45565b6000825580601f106115f1575050565b601f0160209004906000526020600020908101906113a191905b5b808211156115d1576000815560010161160c565b6001600160a01b03811681146113a157600080fd5b60006020828403121561164757600080fd5b813561165281611620565b9392505050565b80356004811061166857600080fd5b919050565b634e487b7160e01b600052604160045260246000fd5b600082601f83011261169457600080fd5b813567ffffffffffffffff808211156116af576116af61166d565b604051601f8301601f19908116603f011681019082821181831017156116d7576116d761166d565b816040528381528660208588010111156116f057600080fd5b836020870160208301376000602085830101528094505050505092915050565b6000806000806080858703121561172657600080fd5b8435935061173660208601611659565b9250604085013567ffffffffffffffff8082111561175357600080fd5b61175f88838901611683565b9350606087013591508082111561177557600080fd5b5061178287828801611683565b91505092959194509250565b634e487b7160e01b600052602160045260246000fd5b600481106117c257634e487b7160e01b600052602160045260246000fd5b9052565b60005b838110156117e15781810151838201526020016117c9565b838111156107a85750506000910152565b6000815180845261180a8160208601602086016117c6565b601f01601f19169290920160200192915050565b6118298282516117a4565b6000602082015160c0602085015261184460c08501826117f2565b90506040830151848203604086015261185d82826117f2565b6060858101511515908701526080808601519087015260a0948501516001600160a01b03169490950193909352509192915050565b602081526000611652602083018461181e565b6000602082840312156118b757600080fd5b5035919050565b6000602080830181845280855180835260408601915060059250604081841b8701018488016000805b8481101561195457898403603f19018652825180518086529089019089860190808a1b87018b01855b8281101561193e57601f1989830301845261192c82865161181e565b948d0194938d01939150600101611910565b50988b01989650505092880192506001016118e7565b50919998505050505050505050565b60008060006060848603121561197857600080fd5b61198184611659565b9250602084013567ffffffffffffffff8082111561199e57600080fd5b6119aa87838801611683565b935060408601359150808211156119c057600080fd5b506119cd86828701611683565b9150509250925092565b600080604083850312156119ea57600080fd5b82359150602083013567ffffffffffffffff811115611a0857600080fd5b611a1485828601611683565b9150509250929050565b600080600060408486031215611a3357600080fd5b83359250602084013567ffffffffffffffff80821115611a5257600080fd5b818601915086601f830112611a6657600080fd5b813581811115611a7557600080fd5b876020828501011115611a8757600080fd5b6020830194508093505050509250925092565b611aa481886117a4565b60c060208201526000611aba60c08301886117f2565b8281036040840152611acc81886117f2565b9515156060840152505060808101929092526001600160a01b031660a0909101529392505050565b600060208284031215611b0657600080fd5b813567ffffffffffffffff811115611b1d57600080fd5b611b2984828501611683565b949350505050565b60208082526023908201527f5175616e746567794c616273416363657373436f6e74726f6c3a2043454f206f6040820152626e6c7960e81b606082015260800190565b60208082526026908201527f5175616e746567794c616273416363657373436f6e74726f6c3a2041646d696e60408201526573206f6e6c7960d01b606082015260800190565b60008251611bcc8184602087016117c6565b9190910192915050565b838152606060208201526000611bef60608301856117f2565b905060018060a01b0383166040830152949350505050565b600060ff821660ff811415611c2c57634e487b7160e01b600052601160045260246000fd5b60010192915050565b8183823760009101908152919050565b600181811c90821680611c5957607f821691505b6020821081141561071d57634e487b7160e01b600052602260045260246000fd5b848152606060208201528260608201528284608083013760008184016080908101919091526001600160a01b03929092166040820152601f909201601f19169091010192915050565b604081526000611cd660408301856117f2565b905060018060a01b0383166020830152939250505056fea264697066735822122007a979f7398a7130dc727fff46ff4af46ad94512827eef3173723be8b3052c3564736f6c634300080900334465706c6f79696e6720436c61696d61626c657320636f6e74726163742066726f6d4465706c6f79696e67205175616e746567794c616273416363657373436f6e74726f6c20636f6e74726163742066726f6d43454f20616e642043544f2061636365737320686173206265656e20676976656e20746f",
  "linkReferences": {},
  "deployedLinkReferences": {}
}