{
  "_format": "hh-sol-artifact-1",
  "contractName": "Claimables",
  "sourceName": "contracts/Claimables.sol",
  "abi": [
    {
      "inputs": [],
      "stateMutability": "nonpayable",
      "type": "constructor"
    },
    {
      "anonymous": false,
      "inputs": [
        {
          "indexed": false,
          "internalType": "string",
          "name": "tokenURI",
          "type": "string"
        },
        {
          "indexed": false,
          "internalType": "string",
          "name": "itemName",
          "type": "string"
        }
      ],
      "name": "ItemClaimed",
      "type": "event"
    },
    {
      "inputs": [
        {
          "internalType": "string",
          "name": "_tokenURI",
          "type": "string"
        },
        {
          "components": [
            {
              "internalType": "enum Claimables.ClaimableType",
              "name": "itemType",
              "type": "uint8"
            },
            {
              "internalType": "string",
              "name": "itemName",
              "type": "string"
            },
            {
              "internalType": "bool",
              "name": "isClaimed",
              "type": "bool"
            }
          ],
          "internalType": "struct Claimables.Claimable",
          "name": "_newClaimable",
          "type": "tuple"
        }
      ],
      "name": "addTokenClaimables",
      "outputs": [
        {
          "components": [
            {
              "internalType": "enum Claimables.ClaimableType",
              "name": "itemType",
              "type": "uint8"
            },
            {
              "internalType": "string",
              "name": "itemName",
              "type": "string"
            },
            {
              "internalType": "bool",
              "name": "isClaimed",
              "type": "bool"
            }
          ],
          "internalType": "struct Claimables.Claimable[]",
          "name": "tokenClaimables",
          "type": "tuple[]"
        }
      ],
      "stateMutability": "nonpayable",
      "type": "function"
    },
    {
      "inputs": [
        {
          "internalType": "string",
          "name": "_tokenURI",
          "type": "string"
        },
        {
          "internalType": "string",
          "name": "_itemName",
          "type": "string"
        }
      ],
      "name": "cliamItem",
      "outputs": [],
      "stateMutability": "nonpayable",
      "type": "function"
    },
    {
      "inputs": [
        {
          "internalType": "string",
          "name": "",
          "type": "string"
        },
        {
          "internalType": "uint256",
          "name": "",
          "type": "uint256"
        }
      ],
      "name": "tokenToClaimables",
      "outputs": [
        {
          "internalType": "enum Claimables.ClaimableType",
          "name": "itemType",
          "type": "uint8"
        },
        {
          "internalType": "string",
          "name": "itemName",
          "type": "string"
        },
        {
          "internalType": "bool",
          "name": "isClaimed",
          "type": "bool"
        }
      ],
      "stateMutability": "view",
      "type": "function"
    }
  ],
  "bytecode": "0x608060405234801561001057600080fd5b50610885806100206000396000f3fe608060405234801561001057600080fd5b50600436106100415760003560e01c806328b73aa3146100465780638ff8823a14610071578063feed722e14610086575b600080fd5b61005961005436600461050b565b6100a6565b604051610068939291906105e4565b60405180910390f35b61008461007f366004610616565b610188565b005b61009961009436600461067a565b6101c5565b6040516100689190610740565b815160208184018101805160008252928201918501919091209190528054829081106100d157600080fd5b60009182526020909120600390910201805460018201805460ff90921694509192506100fc906107ca565b80601f0160208091040260200160405190810160405280929190818152602001828054610128906107ca565b80156101755780601f1061014a57610100808354040283529160200191610175565b820191906000526020600020905b81548152906001019060200180831161015857829003601f168201915b5050506002909301549192505060ff1683565b7f1c83dfb145f4682852138afe77e34de2f18c508333c4100cb8b7382138de4c0d82826040516101b9929190610805565b60405180910390a15050565b60606000836040516101d79190610833565b90815260405160209181900382019020805460018082018355600092835292909120845160039092020180548593919291839160ff19169083600481111561022157610221610550565b0217905550602082810151805161023e92600185019201906103a6565b50604091820151600291909101805460ff191691151591909117905551600090610269908590610833565b9081526020016040518091039020805480602002602001604051908101604052809291908181526020016000905b8282101561039a576000848152602090206040805160608101909152600384029091018054829060ff1660048111156102d2576102d2610550565b60048111156102e3576102e3610550565b81526020016001820180546102f7906107ca565b80601f0160208091040260200160405190810160405280929190818152602001828054610323906107ca565b80156103705780601f1061034557610100808354040283529160200191610370565b820191906000526020600020905b81548152906001019060200180831161035357829003601f168201915b50505091835250506002919091015460ff1615156020918201529082526001929092019101610297565b50505050905092915050565b8280546103b2906107ca565b90600052602060002090601f0160209004810192826103d4576000855561041a565b82601f106103ed57805160ff191683800117855561041a565b8280016001018555821561041a579182015b8281111561041a5782518255916020019190600101906103ff565b5061042692915061042a565b5090565b5b80821115610426576000815560010161042b565b634e487b7160e01b600052604160045260246000fd5b6040516060810167ffffffffffffffff811182821017156104785761047861043f565b60405290565b600082601f83011261048f57600080fd5b813567ffffffffffffffff808211156104aa576104aa61043f565b604051601f8301601f19908116603f011681019082821181831017156104d2576104d261043f565b816040528381528660208588010111156104eb57600080fd5b836020870160208301376000602085830101528094505050505092915050565b6000806040838503121561051e57600080fd5b823567ffffffffffffffff81111561053557600080fd5b6105418582860161047e565b95602094909401359450505050565b634e487b7160e01b600052602160045260246000fd5b6005811061058457634e487b7160e01b600052602160045260246000fd5b9052565b60005b838110156105a357818101518382015260200161058b565b838111156105b2576000848401525b50505050565b600081518084526105d0816020860160208601610588565b601f01601f19169290920160200192915050565b6105ee8185610566565b60606020820152600061060460608301856105b8565b90508215156040830152949350505050565b6000806040838503121561062957600080fd5b823567ffffffffffffffff8082111561064157600080fd5b61064d8683870161047e565b9350602085013591508082111561066357600080fd5b506106708582860161047e565b9150509250929050565b6000806040838503121561068d57600080fd5b823567ffffffffffffffff808211156106a557600080fd5b6106b18683870161047e565b935060208501359150808211156106c757600080fd5b90840190606082870312156106db57600080fd5b6106e3610455565b8235600581106106f257600080fd5b815260208301358281111561070657600080fd5b6107128882860161047e565b60208301525060408301359250821515831461072d57600080fd5b8260408201528093505050509250929050565b60006020808301818452808551808352604092508286019150828160051b87010184880160005b838110156107bc57603f1989840301855281516060610787858351610566565b88820151818a87015261079c828701826105b8565b928901511515958901959095525094870194925090860190600101610767565b509098975050505050505050565b600181811c908216806107de57607f821691505b602082108114156107ff57634e487b7160e01b600052602260045260246000fd5b50919050565b60408152600061081860408301856105b8565b828103602084015261082a81856105b8565b95945050505050565b60008251610845818460208701610588565b919091019291505056fea2646970667358221220904704e98ae6e7a5ddf4fb59001a6e94077b9ea072c6f34a67d6a3d877f4d43864736f6c63430008090033",
  "linkReferences": {},
  "deployedLinkReferences": {}
}