{
  "_format": "hh-sol-artifact-1",
  "contractName": "Claimables",
  "sourceName": "contracts/Claimables.sol",
  "abi": [
    {
      "inputs": [],
      "stateMutability": "nonpayable",
      "type": "constructor"
    },
    {
      "anonymous": false,
      "inputs": [
        {
          "indexed": false,
          "internalType": "address",
          "name": "newCEO",
          "type": "address"
        }
      ],
      "name": "CEOUpdated",
      "type": "event"
    },
    {
      "anonymous": false,
      "inputs": [
        {
          "indexed": false,
          "internalType": "address",
          "name": "newCTO",
          "type": "address"
        }
      ],
      "name": "CTOUpdated",
      "type": "event"
    },
    {
      "anonymous": false,
      "inputs": [
        {
          "indexed": false,
          "internalType": "uint256",
          "name": "tokenId",
          "type": "uint256"
        },
        {
          "indexed": false,
          "internalType": "string",
          "name": "key",
          "type": "string"
        },
        {
          "indexed": false,
          "internalType": "address",
          "name": "addedBy",
          "type": "address"
        }
      ],
      "name": "ClaimableAdded",
      "type": "event"
    },
    {
      "anonymous": false,
      "inputs": [
        {
          "indexed": false,
          "internalType": "uint256",
          "name": "tokenId",
          "type": "uint256"
        },
        {
          "indexed": false,
          "internalType": "string",
          "name": "key",
          "type": "string"
        },
        {
          "indexed": false,
          "internalType": "address",
          "name": "claimedBy",
          "type": "address"
        }
      ],
      "name": "ClaimableClaimed",
      "type": "event"
    },
    {
      "anonymous": false,
      "inputs": [
        {
          "indexed": false,
          "internalType": "uint256",
          "name": "tokenId",
          "type": "uint256"
        },
        {
          "indexed": false,
          "internalType": "string",
          "name": "key",
          "type": "string"
        },
        {
          "indexed": false,
          "internalType": "address",
          "name": "deletedBy",
          "type": "address"
        }
      ],
      "name": "ClaimableDeleted",
      "type": "event"
    },
    {
      "anonymous": false,
      "inputs": [
        {
          "indexed": true,
          "internalType": "address",
          "name": "previousOwner",
          "type": "address"
        },
        {
          "indexed": true,
          "internalType": "address",
          "name": "newOwner",
          "type": "address"
        }
      ],
      "name": "OwnershipTransferred",
      "type": "event"
    },
    {
      "anonymous": false,
      "inputs": [
        {
          "indexed": false,
          "internalType": "address",
          "name": "newTreasuryAddress",
          "type": "address"
        }
      ],
      "name": "TreasuryUpdated",
      "type": "event"
    },
    {
      "inputs": [
        {
          "internalType": "enum Claimables.ClaimableType",
          "name": "_claimableType",
          "type": "uint8"
        },
        {
          "internalType": "string",
          "name": "_key",
          "type": "string"
        },
        {
          "internalType": "string",
          "name": "_name",
          "type": "string"
        }
      ],
      "name": "addClaimableForAllTokens",
      "outputs": [],
      "stateMutability": "nonpayable",
      "type": "function"
    },
    {
      "inputs": [
        {
          "internalType": "uint256",
          "name": "_tokenId",
          "type": "uint256"
        },
        {
          "internalType": "string",
          "name": "_key",
          "type": "string"
        }
      ],
      "name": "claimItemForToken",
      "outputs": [
        {
          "components": [
            {
              "internalType": "enum Claimables.ClaimableType",
              "name": "claimableType",
              "type": "uint8"
            },
            {
              "internalType": "string",
              "name": "key",
              "type": "string"
            },
            {
              "internalType": "string",
              "name": "name",
              "type": "string"
            },
            {
              "internalType": "bool",
              "name": "claimed",
              "type": "bool"
            },
            {
              "internalType": "uint256",
              "name": "claimedAt",
              "type": "uint256"
            },
            {
              "internalType": "address",
              "name": "claimedBy",
              "type": "address"
            }
          ],
          "internalType": "struct Claimables.Claimable",
          "name": "",
          "type": "tuple"
        }
      ],
      "stateMutability": "nonpayable",
      "type": "function"
    },
    {
      "inputs": [],
      "name": "getCEO",
      "outputs": [
        {
          "internalType": "address",
          "name": "",
          "type": "address"
        }
      ],
      "stateMutability": "view",
      "type": "function"
    },
    {
      "inputs": [],
      "name": "getCTO",
      "outputs": [
        {
          "internalType": "address",
          "name": "",
          "type": "address"
        }
      ],
      "stateMutability": "view",
      "type": "function"
    },
    {
      "inputs": [],
      "name": "getTreasury",
      "outputs": [
        {
          "internalType": "address",
          "name": "",
          "type": "address"
        }
      ],
      "stateMutability": "view",
      "type": "function"
    },
    {
      "inputs": [],
      "name": "owner",
      "outputs": [
        {
          "internalType": "address",
          "name": "",
          "type": "address"
        }
      ],
      "stateMutability": "view",
      "type": "function"
    },
    {
      "inputs": [
        {
          "internalType": "string",
          "name": "_key",
          "type": "string"
        }
      ],
      "name": "removeClaimableForAllTokens",
      "outputs": [],
      "stateMutability": "nonpayable",
      "type": "function"
    },
    {
      "inputs": [
        {
          "internalType": "uint256",
          "name": "_tokenId",
          "type": "uint256"
        },
        {
          "internalType": "string",
          "name": "_key",
          "type": "string"
        }
      ],
      "name": "removeClaimableForToken",
      "outputs": [],
      "stateMutability": "nonpayable",
      "type": "function"
    },
    {
      "inputs": [],
      "name": "renounceOwnership",
      "outputs": [],
      "stateMutability": "nonpayable",
      "type": "function"
    },
    {
      "inputs": [
        {
          "internalType": "address",
          "name": "_newCEO",
          "type": "address"
        }
      ],
      "name": "setCEO",
      "outputs": [],
      "stateMutability": "nonpayable",
      "type": "function"
    },
    {
      "inputs": [
        {
          "internalType": "address",
          "name": "_newCTO",
          "type": "address"
        }
      ],
      "name": "setCTO",
      "outputs": [],
      "stateMutability": "nonpayable",
      "type": "function"
    },
    {
      "inputs": [
        {
          "internalType": "address payable",
          "name": "_treasury",
          "type": "address"
        }
      ],
      "name": "setTreasury",
      "outputs": [],
      "stateMutability": "nonpayable",
      "type": "function"
    },
    {
      "inputs": [
        {
          "internalType": "uint256",
          "name": "",
          "type": "uint256"
        },
        {
          "internalType": "string",
          "name": "",
          "type": "string"
        }
      ],
      "name": "tokenClaimables",
      "outputs": [
        {
          "internalType": "enum Claimables.ClaimableType",
          "name": "claimableType",
          "type": "uint8"
        },
        {
          "internalType": "string",
          "name": "key",
          "type": "string"
        },
        {
          "internalType": "string",
          "name": "name",
          "type": "string"
        },
        {
          "internalType": "bool",
          "name": "claimed",
          "type": "bool"
        },
        {
          "internalType": "uint256",
          "name": "claimedAt",
          "type": "uint256"
        },
        {
          "internalType": "address",
          "name": "claimedBy",
          "type": "address"
        }
      ],
      "stateMutability": "view",
      "type": "function"
    },
    {
      "inputs": [
        {
          "internalType": "address",
          "name": "newOwner",
          "type": "address"
        }
      ],
      "name": "transferOwnership",
      "outputs": [],
      "stateMutability": "nonpayable",
      "type": "function"
    }
  ],
  "bytecode": "0x60806040523480156200001157600080fd5b506200001d33620000ac565b6001808190555062000054604051806060016040528060318152602001620018c26031913933620000fc60201b62000d971760201c565b62000084604051806060016040528060248152602001620018f36024913933620000fc60201b62000d971760201c565b60028054336001600160a01b03199182168117909255600380549091169091179055620001d7565b600080546001600160a01b038381166001600160a01b0319831681178455604051919092169283917f8be0079c531659141344cd1fd0a4f28419497f9722a3daafe3b4186f6b6457e09190a35050565b620001498282604051602401620001159291906200016e565b60408051601f198184030181529190526020810180516001600160e01b0390811663319af33360e01b179091526200014d16565b5050565b80516a636f6e736f6c652e6c6f67602083016000808483855afa5050505050565b604081526000835180604084015260005b818110156200019e57602081870181015160608684010152016200017f565b81811115620001b1576000606083860101525b506001600160a01b0393909316602083015250601f91909101601f191601606001919050565b6116db80620001e76000396000f3fe608060405234801561001057600080fd5b50600436106100ea5760003560e01c8063c8b0e68d1161008c578063dc4104c311610066578063dc4104c3146101bd578063f0f44260146101d0578063f2fde38b146101e3578063fe1439b4146101f657600080fd5b8063c8b0e68d14610170578063cc72bcd514610178578063d737094d1461019857600080fd5b8063662d2841116100c8578063662d284114610131578063715018a6146101445780638da5cb5b1461014c578063a5af871d1461015d57600080fd5b806327d7874c146100ef5780633b19e84a14610104578063433fac8514610129575b600080fd5b6101026100fd366004611139565b610209565b005b61010c6102a4565b6040516001600160a01b0390911681526020015b60405180910390f35b61010c61030b565b61010261013f366004611200565b610372565b6101026103fd565b6000546001600160a01b031661010c565b61010261016b36600461127a565b610463565b61010c61056c565b61018b6101863660046112c1565b6105d3565b60405161012091906113cd565b6101ab6101a636600461127a565b6109a5565b6040516101209695949392919061144c565b6101026101cb3660046114a6565b610b19565b6101026101de366004611139565b610b9f565b6101026101f1366004611139565b610c17565b610102610204366004611139565b610ce2565b6002546001600160a01b0316331461023c5760405162461bcd60e51b8152600401610233906114e3565b60405180910390fd5b6001600160a01b03811661024f57600080fd5b600280546001600160a01b0319166001600160a01b0383169081179091556040519081527f83430a5ceb5107ce76c0ebe77c43cdc5ddbd9d2269f5c7fe175933cd3d3b2ad8906020015b60405180910390a150565b6002546000906001600160a01b03163314806102ca57506003546001600160a01b031633145b806102df57506000546001600160a01b031633145b6102fb5760405162461bcd60e51b815260040161023390611526565b506004546001600160a01b031690565b6002546000906001600160a01b031633148061033157506003546001600160a01b031633145b8061034657506000546001600160a01b031633145b6103625760405162461bcd60e51b815260040161023390611526565b506003546001600160a01b031690565b6002546001600160a01b031633148061039557506003546001600160a01b031633145b806103aa57506000546001600160a01b031633145b6103c65760405162461bcd60e51b815260040161023390611526565b60015b6006548160ff16116103f7576103e48160ff16858585610ddc565b50806103ef8161156c565b9150506103c9565b50505050565b6000546001600160a01b031633146104575760405162461bcd60e51b815260206004820181905260248201527f4f776e61626c653a2063616c6c6572206973206e6f7420746865206f776e65726044820152606401610233565b6104616000610f9e565b565b6002546001600160a01b031633148061048657506003546001600160a01b031633145b8061049b57506000546001600160a01b031633145b6104b75760405162461bcd60e51b815260040161023390611526565b6000828152600560205260409081902090516104d490839061159a565b908152604051908190036020019020805460ff1916815560006104fa600183018261100f565b61050860028301600061100f565b5060038101805460ff191690556000600482015560050180546001600160a01b03191690557fbf024659055c0ecc9487db128b2e3ddc0e60ab4ddec3bccc4b23a6e250687f31828233604051610560939291906115b6565b60405180910390a15050565b6002546000906001600160a01b031633148061059257506003546001600160a01b031633145b806105a757506000546001600160a01b031633145b6105c35760405162461bcd60e51b815260040161023390611526565b506002546001600160a01b031690565b6105db611049565b60008481526005602052604080822090516105f990869086906115e7565b9081526040805191829003602001822060c083019091528054829060ff1660028111156106285761062861133d565b60028111156106395761063961133d565b815260200160018201805461064d906115f7565b80601f0160208091040260200160405190810160405280929190818152602001828054610679906115f7565b80156106c65780601f1061069b576101008083540402835291602001916106c6565b820191906000526020600020905b8154815290600101906020018083116106a957829003601f168201915b505050505081526020016002820180546106df906115f7565b80601f016020809104026020016040519081016040528092919081815260200182805461070b906115f7565b80156107585780601f1061072d57610100808354040283529160200191610758565b820191906000526020600020905b81548152906001019060200180831161073b57829003601f168201915b5050509183525050600382015460ff1615156020820152600482015460408201526005909101546001600160a01b03166060918201526001908201529050336001600160a01b031660a08201524260808201527f3d9e288e57affd236b62a17f5bbbee7bdb87930e804a793e3d15a104712b8cdb858585336040516107e09493929190611632565b60405180910390a160008581526005602052604090819020905161080790869086906115e7565b9081526040805191829003602001822060c083019091528054829060ff1660028111156108365761083661133d565b60028111156108475761084761133d565b815260200160018201805461085b906115f7565b80601f0160208091040260200160405190810160405280929190818152602001828054610887906115f7565b80156108d45780601f106108a9576101008083540402835291602001916108d4565b820191906000526020600020905b8154815290600101906020018083116108b757829003601f168201915b505050505081526020016002820180546108ed906115f7565b80601f0160208091040260200160405190810160405280929190818152602001828054610919906115f7565b80156109665780601f1061093b57610100808354040283529160200191610966565b820191906000526020600020905b81548152906001019060200180831161094957829003601f168201915b5050509183525050600382015460ff1615156020820152600482015460408201526005909101546001600160a01b031660609091015295945050505050565b600560209081526000928352604090922081518083018401805192815290840192909301919091209152805460018201805460ff90921692916109e7906115f7565b80601f0160208091040260200160405190810160405280929190818152602001828054610a13906115f7565b8015610a605780601f10610a3557610100808354040283529160200191610a60565b820191906000526020600020905b815481529060010190602001808311610a4357829003601f168201915b505050505090806002018054610a75906115f7565b80601f0160208091040260200160405190810160405280929190818152602001828054610aa1906115f7565b8015610aee5780601f10610ac357610100808354040283529160200191610aee565b820191906000526020600020905b815481529060010190602001808311610ad157829003601f168201915b5050505060038301546004840154600590940154929360ff909116929091506001600160a01b031686565b6002546001600160a01b0316331480610b3c57506003546001600160a01b031633145b80610b5157506000546001600160a01b031633145b610b6d5760405162461bcd60e51b815260040161023390611526565b60015b6006548160ff1611610b9b57610b898160ff1683610463565b80610b938161156c565b915050610b70565b5050565b6002546001600160a01b03163314610bc95760405162461bcd60e51b8152600401610233906114e3565b600480546001600160a01b0319166001600160a01b0383169081179091556040519081527f7dae230f18360d76a040c81f050aa14eb9d6dc7901b20fc5d855e2a20fe814d190602001610299565b6000546001600160a01b03163314610c715760405162461bcd60e51b815260206004820181905260248201527f4f776e61626c653a2063616c6c6572206973206e6f7420746865206f776e65726044820152606401610233565b6001600160a01b038116610cd65760405162461bcd60e51b815260206004820152602660248201527f4f776e61626c653a206e6577206f776e657220697320746865207a65726f206160448201526564647265737360d01b6064820152608401610233565b610cdf81610f9e565b50565b6002546001600160a01b0316331480610d0557506003546001600160a01b031633145b80610d1a57506000546001600160a01b031633145b610d365760405162461bcd60e51b815260040161023390611526565b6001600160a01b038116610d4957600080fd5b600380546001600160a01b0319166001600160a01b0383169081179091556040519081527f1f93b83ae610ff0234bc9cdd94f27cc0000fc5c6e4b021ece77a1fcb043df06290602001610299565b610b9b8282604051602401610dad92919061167b565b60408051601f198184030181529190526020810180516001600160e01b031663319af33360e01b179052610fee565b610de4611049565b6002546001600160a01b0316331480610e0757506003546001600160a01b031633145b80610e1c57506000546001600160a01b031633145b610e385760405162461bcd60e51b815260040161023390611526565b60006040518060c00160405280866002811115610e5757610e5761133d565b815260200185815260200184815260200160001515815260200142815260200160006001600160a01b03168152509050806005600088815260200190815260200160002085604051610ea9919061159a565b90815260405190819003602001902081518154829060ff19166001836002811115610ed657610ed661133d565b02179055506020828101518051610ef3926001850192019061108b565b5060408201518051610f0f91600284019160209091019061108b565b50606082015160038201805460ff19169115159190911790556080820151600482015560a090910151600590910180546001600160a01b0319166001600160a01b039092169190911790557f7c3d02d6194407085d071da10ea3a62ce91a71382a249d42a37428106fd01507868533604051610f8d939291906115b6565b60405180910390a195945050505050565b600080546001600160a01b038381166001600160a01b0319831681178455604051919092169283917f8be0079c531659141344cd1fd0a4f28419497f9722a3daafe3b4186f6b6457e09190a35050565b80516a636f6e736f6c652e6c6f67602083016000808483855afa5050505050565b50805461101b906115f7565b6000825580601f1061102b575050565b601f016020900490600052602060002090810190610cdf919061110f565b6040805160c08101909152806000815260200160608152602001606081526020016000151581526020016000815260200160006001600160a01b031681525090565b828054611097906115f7565b90600052602060002090601f0160209004810192826110b957600085556110ff565b82601f106110d257805160ff19168380011785556110ff565b828001600101855582156110ff579182015b828111156110ff5782518255916020019190600101906110e4565b5061110b92915061110f565b5090565b5b8082111561110b5760008155600101611110565b6001600160a01b0381168114610cdf57600080fd5b60006020828403121561114b57600080fd5b813561115681611124565b9392505050565b634e487b7160e01b600052604160045260246000fd5b600082601f83011261118457600080fd5b813567ffffffffffffffff8082111561119f5761119f61115d565b604051601f8301601f19908116603f011681019082821181831017156111c7576111c761115d565b816040528381528660208588010111156111e057600080fd5b836020870160208301376000602085830101528094505050505092915050565b60008060006060848603121561121557600080fd5b83356003811061122457600080fd5b9250602084013567ffffffffffffffff8082111561124157600080fd5b61124d87838801611173565b9350604086013591508082111561126357600080fd5b5061127086828701611173565b9150509250925092565b6000806040838503121561128d57600080fd5b82359150602083013567ffffffffffffffff8111156112ab57600080fd5b6112b785828601611173565b9150509250929050565b6000806000604084860312156112d657600080fd5b83359250602084013567ffffffffffffffff808211156112f557600080fd5b818601915086601f83011261130957600080fd5b81358181111561131857600080fd5b87602082850101111561132a57600080fd5b6020830194508093505050509250925092565b634e487b7160e01b600052602160045260246000fd5b6003811061137157634e487b7160e01b600052602160045260246000fd5b9052565b60005b83811015611390578181015183820152602001611378565b838111156103f75750506000910152565b600081518084526113b9816020860160208601611375565b601f01601f19169290920160200192915050565b602081526113df602082018351611353565b6000602083015160c060408401526113fa60e08401826113a1565b90506040840151601f1984830301606085015261141782826113a1565b915050606084015115156080840152608084015160a084015260018060a01b0360a08501511660c08401528091505092915050565b6114568188611353565b60c06020820152600061146c60c08301886113a1565b828103604084015261147e81886113a1565b9515156060840152505060808101929092526001600160a01b031660a0909101529392505050565b6000602082840312156114b857600080fd5b813567ffffffffffffffff8111156114cf57600080fd5b6114db84828501611173565b949350505050565b60208082526023908201527f5175616e746567794c616273416363657373436f6e74726f6c3a2043454f206f6040820152626e6c7960e81b606082015260800190565b60208082526026908201527f5175616e746567794c616273416363657373436f6e74726f6c3a2041646d696e60408201526573206f6e6c7960d01b606082015260800190565b600060ff821660ff81141561159157634e487b7160e01b600052601160045260246000fd5b60010192915050565b600082516115ac818460208701611375565b9190910192915050565b8381526060602082015260006115cf60608301856113a1565b905060018060a01b0383166040830152949350505050565b8183823760009101908152919050565b600181811c9082168061160b57607f821691505b6020821081141561162c57634e487b7160e01b600052602260045260246000fd5b50919050565b848152606060208201528260608201528284608083013760008184016080908101919091526001600160a01b03929092166040820152601f909201601f19169091010192915050565b60408152600061168e60408301856113a1565b905060018060a01b0383166020830152939250505056fea2646970667358221220b6c8a231099cb0af81681ef698ffd62e2daefdb88352fe28ce3f14f5c39d853c64736f6c634300080900334465706c6f79696e67205175616e746567794c616273416363657373436f6e74726f6c20636f6e74726163742066726f6d43454f20616e642043544f2061636365737320686173206265656e20676976656e20746f",
  "linkReferences": {},
  "deployedLinkReferences": {}
}