{
  "_format": "hh-sol-artifact-1",
  "contractName": "EnlightenedLizards",
  "sourceName": "contracts/EnlightenedLizards.sol",
  "abi": [
    {
      "inputs": [
        {
          "internalType": "string",
          "name": "_tokenName",
          "type": "string"
        },
        {
          "internalType": "string",
          "name": "_tokenSymbol",
          "type": "string"
        },
        {
          "internalType": "uint256",
          "name": "_cost",
          "type": "uint256"
        },
        {
          "internalType": "uint256",
          "name": "_maxSupply",
          "type": "uint256"
        },
        {
          "internalType": "uint256",
          "name": "_maxMintAmountPerTx",
          "type": "uint256"
        },
        {
          "internalType": "string",
          "name": "_hiddenMetadataUri",
          "type": "string"
        }
      ],
      "stateMutability": "nonpayable",
      "type": "constructor"
    },
    {
      "inputs": [],
      "name": "ApprovalCallerNotOwnerNorApproved",
      "type": "error"
    },
    {
      "inputs": [],
      "name": "ApprovalQueryForNonexistentToken",
      "type": "error"
    },
    {
      "inputs": [],
      "name": "ApprovalToCurrentOwner",
      "type": "error"
    },
    {
      "inputs": [],
      "name": "ApproveToCaller",
      "type": "error"
    },
    {
      "inputs": [],
      "name": "BalanceQueryForZeroAddress",
      "type": "error"
    },
    {
      "inputs": [],
      "name": "InvalidQueryRange",
      "type": "error"
    },
    {
      "inputs": [],
      "name": "MintToZeroAddress",
      "type": "error"
    },
    {
      "inputs": [],
      "name": "MintZeroQuantity",
      "type": "error"
    },
    {
      "inputs": [],
      "name": "OwnerQueryForNonexistentToken",
      "type": "error"
    },
    {
      "inputs": [],
      "name": "TransferCallerNotOwnerNorApproved",
      "type": "error"
    },
    {
      "inputs": [],
      "name": "TransferFromIncorrectOwner",
      "type": "error"
    },
    {
      "inputs": [],
      "name": "TransferToNonERC721ReceiverImplementer",
      "type": "error"
    },
    {
      "inputs": [],
      "name": "TransferToZeroAddress",
      "type": "error"
    },
    {
      "inputs": [],
      "name": "URIQueryForNonexistentToken",
      "type": "error"
    },
    {
      "anonymous": false,
      "inputs": [
        {
          "indexed": true,
          "internalType": "address",
          "name": "owner",
          "type": "address"
        },
        {
          "indexed": true,
          "internalType": "address",
          "name": "approved",
          "type": "address"
        },
        {
          "indexed": true,
          "internalType": "uint256",
          "name": "tokenId",
          "type": "uint256"
        }
      ],
      "name": "Approval",
      "type": "event"
    },
    {
      "anonymous": false,
      "inputs": [
        {
          "indexed": true,
          "internalType": "address",
          "name": "owner",
          "type": "address"
        },
        {
          "indexed": true,
          "internalType": "address",
          "name": "operator",
          "type": "address"
        },
        {
          "indexed": false,
          "internalType": "bool",
          "name": "approved",
          "type": "bool"
        }
      ],
      "name": "ApprovalForAll",
      "type": "event"
    },
    {
      "anonymous": false,
      "inputs": [
        {
          "indexed": false,
          "internalType": "uint256",
          "name": "balance",
          "type": "uint256"
        }
      ],
      "name": "FundsWithdrawn",
      "type": "event"
    },
    {
      "anonymous": false,
      "inputs": [
        {
          "indexed": false,
          "internalType": "uint256",
          "name": "tokenId",
          "type": "uint256"
        },
        {
          "indexed": false,
          "internalType": "address",
          "name": "phan",
          "type": "address"
        }
      ],
      "name": "NewLizardMinted",
      "type": "event"
    },
    {
      "anonymous": false,
      "inputs": [
        {
          "indexed": true,
          "internalType": "address",
          "name": "previousOwner",
          "type": "address"
        },
        {
          "indexed": true,
          "internalType": "address",
          "name": "newOwner",
          "type": "address"
        }
      ],
      "name": "OwnershipTransferred",
      "type": "event"
    },
    {
      "anonymous": false,
      "inputs": [
        {
          "indexed": false,
          "internalType": "uint256",
          "name": "tokenId",
          "type": "uint256"
        },
        {
          "indexed": false,
          "internalType": "address",
          "name": "phan",
          "type": "address"
        }
      ],
      "name": "PosterItemClaimed",
      "type": "event"
    },
    {
      "anonymous": false,
      "inputs": [
        {
          "indexed": true,
          "internalType": "address",
          "name": "from",
          "type": "address"
        },
        {
          "indexed": true,
          "internalType": "address",
          "name": "to",
          "type": "address"
        },
        {
          "indexed": true,
          "internalType": "uint256",
          "name": "tokenId",
          "type": "uint256"
        }
      ],
      "name": "Transfer",
      "type": "event"
    },
    {
      "anonymous": false,
      "inputs": [
        {
          "indexed": false,
          "internalType": "uint256",
          "name": "tokenId",
          "type": "uint256"
        },
        {
          "indexed": false,
          "internalType": "address",
          "name": "phan",
          "type": "address"
        }
      ],
      "name": "WearableItemClaimed",
      "type": "event"
    },
    {
      "inputs": [
        {
          "internalType": "address",
          "name": "to",
          "type": "address"
        },
        {
          "internalType": "uint256",
          "name": "tokenId",
          "type": "uint256"
        }
      ],
      "name": "approve",
      "outputs": [],
      "stateMutability": "nonpayable",
      "type": "function"
    },
    {
      "inputs": [
        {
          "internalType": "address",
          "name": "owner",
          "type": "address"
        }
      ],
      "name": "balanceOf",
      "outputs": [
        {
          "internalType": "uint256",
          "name": "",
          "type": "uint256"
        }
      ],
      "stateMutability": "view",
      "type": "function"
    },
    {
      "inputs": [
        {
          "internalType": "uint256",
          "name": "_tokenId",
          "type": "uint256"
        },
        {
          "internalType": "address",
          "name": "_phan",
          "type": "address"
        }
      ],
      "name": "claimPosterItem",
      "outputs": [],
      "stateMutability": "nonpayable",
      "type": "function"
    },
    {
      "inputs": [
        {
          "internalType": "uint256",
          "name": "_tokenId",
          "type": "uint256"
        },
        {
          "internalType": "address",
          "name": "_phan",
          "type": "address"
        }
      ],
      "name": "claimWearableItem",
      "outputs": [],
      "stateMutability": "nonpayable",
      "type": "function"
    },
    {
      "inputs": [],
      "name": "cost",
      "outputs": [
        {
          "internalType": "uint256",
          "name": "",
          "type": "uint256"
        }
      ],
      "stateMutability": "view",
      "type": "function"
    },
    {
      "inputs": [
        {
          "internalType": "uint256",
          "name": "tokenId",
          "type": "uint256"
        }
      ],
      "name": "explicitOwnershipOf",
      "outputs": [
        {
          "components": [
            {
              "internalType": "address",
              "name": "addr",
              "type": "address"
            },
            {
              "internalType": "uint64",
              "name": "startTimestamp",
              "type": "uint64"
            },
            {
              "internalType": "bool",
              "name": "burned",
              "type": "bool"
            }
          ],
          "internalType": "struct IERC721A.TokenOwnership",
          "name": "",
          "type": "tuple"
        }
      ],
      "stateMutability": "view",
      "type": "function"
    },
    {
      "inputs": [
        {
          "internalType": "uint256[]",
          "name": "tokenIds",
          "type": "uint256[]"
        }
      ],
      "name": "explicitOwnershipsOf",
      "outputs": [
        {
          "components": [
            {
              "internalType": "address",
              "name": "addr",
              "type": "address"
            },
            {
              "internalType": "uint64",
              "name": "startTimestamp",
              "type": "uint64"
            },
            {
              "internalType": "bool",
              "name": "burned",
              "type": "bool"
            }
          ],
          "internalType": "struct IERC721A.TokenOwnership[]",
          "name": "",
          "type": "tuple[]"
        }
      ],
      "stateMutability": "view",
      "type": "function"
    },
    {
      "inputs": [
        {
          "internalType": "uint256",
          "name": "tokenId",
          "type": "uint256"
        }
      ],
      "name": "getApproved",
      "outputs": [
        {
          "internalType": "address",
          "name": "",
          "type": "address"
        }
      ],
      "stateMutability": "view",
      "type": "function"
    },
    {
      "inputs": [],
      "name": "hiddenMetadataUri",
      "outputs": [
        {
          "internalType": "string",
          "name": "",
          "type": "string"
        }
      ],
      "stateMutability": "view",
      "type": "function"
    },
    {
      "inputs": [
        {
          "internalType": "address",
          "name": "owner",
          "type": "address"
        },
        {
          "internalType": "address",
          "name": "operator",
          "type": "address"
        }
      ],
      "name": "isApprovedForAll",
      "outputs": [
        {
          "internalType": "bool",
          "name": "",
          "type": "bool"
        }
      ],
      "stateMutability": "view",
      "type": "function"
    },
    {
      "inputs": [],
      "name": "maxMintAmountPerTx",
      "outputs": [
        {
          "internalType": "uint256",
          "name": "",
          "type": "uint256"
        }
      ],
      "stateMutability": "view",
      "type": "function"
    },
    {
      "inputs": [],
      "name": "maxSupply",
      "outputs": [
        {
          "internalType": "uint256",
          "name": "",
          "type": "uint256"
        }
      ],
      "stateMutability": "view",
      "type": "function"
    },
    {
      "inputs": [],
      "name": "merkleRoot",
      "outputs": [
        {
          "internalType": "bytes32",
          "name": "",
          "type": "bytes32"
        }
      ],
      "stateMutability": "view",
      "type": "function"
    },
    {
      "inputs": [
        {
          "internalType": "uint256",
          "name": "_mintAmount",
          "type": "uint256"
        },
        {
          "internalType": "address",
          "name": "_receiver",
          "type": "address"
        }
      ],
      "name": "mintForAddress",
      "outputs": [],
      "stateMutability": "nonpayable",
      "type": "function"
    },
    {
      "inputs": [
        {
          "internalType": "address",
          "name": "_phan",
          "type": "address"
        },
        {
          "internalType": "uint256",
          "name": "_mintAmount",
          "type": "uint256"
        }
      ],
      "name": "mintLizard",
      "outputs": [],
      "stateMutability": "payable",
      "type": "function"
    },
    {
      "inputs": [],
      "name": "name",
      "outputs": [
        {
          "internalType": "string",
          "name": "",
          "type": "string"
        }
      ],
      "stateMutability": "view",
      "type": "function"
    },
    {
      "inputs": [],
      "name": "owner",
      "outputs": [
        {
          "internalType": "address",
          "name": "",
          "type": "address"
        }
      ],
      "stateMutability": "view",
      "type": "function"
    },
    {
      "inputs": [
        {
          "internalType": "uint256",
          "name": "tokenId",
          "type": "uint256"
        }
      ],
      "name": "ownerOf",
      "outputs": [
        {
          "internalType": "address",
          "name": "",
          "type": "address"
        }
      ],
      "stateMutability": "view",
      "type": "function"
    },
    {
      "inputs": [],
      "name": "paused",
      "outputs": [
        {
          "internalType": "bool",
          "name": "",
          "type": "bool"
        }
      ],
      "stateMutability": "view",
      "type": "function"
    },
    {
      "inputs": [],
      "name": "renounceOwnership",
      "outputs": [],
      "stateMutability": "nonpayable",
      "type": "function"
    },
    {
      "inputs": [],
      "name": "revealed",
      "outputs": [
        {
          "internalType": "bool",
          "name": "",
          "type": "bool"
        }
      ],
      "stateMutability": "view",
      "type": "function"
    },
    {
      "inputs": [
        {
          "internalType": "uint256",
          "name": "_tokenId",
          "type": "uint256"
        }
      ],
      "name": "rightsURIs",
      "outputs": [
        {
          "internalType": "string[]",
          "name": "",
          "type": "string[]"
        }
      ],
      "stateMutability": "view",
      "type": "function"
    },
    {
      "inputs": [
        {
          "internalType": "address",
          "name": "from",
          "type": "address"
        },
        {
          "internalType": "address",
          "name": "to",
          "type": "address"
        },
        {
          "internalType": "uint256",
          "name": "tokenId",
          "type": "uint256"
        }
      ],
      "name": "safeTransferFrom",
      "outputs": [],
      "stateMutability": "nonpayable",
      "type": "function"
    },
    {
      "inputs": [
        {
          "internalType": "address",
          "name": "from",
          "type": "address"
        },
        {
          "internalType": "address",
          "name": "to",
          "type": "address"
        },
        {
          "internalType": "uint256",
          "name": "tokenId",
          "type": "uint256"
        },
        {
          "internalType": "bytes",
          "name": "_data",
          "type": "bytes"
        }
      ],
      "name": "safeTransferFrom",
      "outputs": [],
      "stateMutability": "nonpayable",
      "type": "function"
    },
    {
      "inputs": [
        {
          "internalType": "address",
          "name": "operator",
          "type": "address"
        },
        {
          "internalType": "bool",
          "name": "approved",
          "type": "bool"
        }
      ],
      "name": "setApprovalForAll",
      "outputs": [],
      "stateMutability": "nonpayable",
      "type": "function"
    },
    {
      "inputs": [
        {
          "internalType": "uint256",
          "name": "_cost",
          "type": "uint256"
        }
      ],
      "name": "setCost",
      "outputs": [],
      "stateMutability": "nonpayable",
      "type": "function"
    },
    {
      "inputs": [
        {
          "internalType": "address payable",
          "name": "feeRecipient_",
          "type": "address"
        }
      ],
      "name": "setFeeRecipient",
      "outputs": [],
      "stateMutability": "nonpayable",
      "type": "function"
    },
    {
      "inputs": [
        {
          "internalType": "string",
          "name": "_hiddenMetadataUri",
          "type": "string"
        }
      ],
      "name": "setHiddenMetadataUri",
      "outputs": [],
      "stateMutability": "nonpayable",
      "type": "function"
    },
    {
      "inputs": [
        {
          "internalType": "uint256",
          "name": "_maxMintAmountPerTx",
          "type": "uint256"
        }
      ],
      "name": "setMaxMintAmountPerTx",
      "outputs": [],
      "stateMutability": "nonpayable",
      "type": "function"
    },
    {
      "inputs": [
        {
          "internalType": "bytes32",
          "name": "_merkleRoot",
          "type": "bytes32"
        }
      ],
      "name": "setMerkleRoot",
      "outputs": [],
      "stateMutability": "nonpayable",
      "type": "function"
    },
    {
      "inputs": [
        {
          "internalType": "bool",
          "name": "_state",
          "type": "bool"
        }
      ],
      "name": "setPaused",
      "outputs": [],
      "stateMutability": "nonpayable",
      "type": "function"
    },
    {
      "inputs": [
        {
          "internalType": "bool",
          "name": "_state",
          "type": "bool"
        }
      ],
      "name": "setRevealed",
      "outputs": [],
      "stateMutability": "nonpayable",
      "type": "function"
    },
    {
      "inputs": [
        {
          "internalType": "address",
          "name": "rightsProtocolAddr_",
          "type": "address"
        }
      ],
      "name": "setRightsProtocolAddr",
      "outputs": [],
      "stateMutability": "nonpayable",
      "type": "function"
    },
    {
      "inputs": [
        {
          "internalType": "string",
          "name": "_uriPrefix",
          "type": "string"
        }
      ],
      "name": "setUriPrefix",
      "outputs": [],
      "stateMutability": "nonpayable",
      "type": "function"
    },
    {
      "inputs": [
        {
          "internalType": "string",
          "name": "_uriSuffix",
          "type": "string"
        }
      ],
      "name": "setUriSuffix",
      "outputs": [],
      "stateMutability": "nonpayable",
      "type": "function"
    },
    {
      "inputs": [
        {
          "internalType": "bool",
          "name": "_state",
          "type": "bool"
        }
      ],
      "name": "setWhitelistMintEnabled",
      "outputs": [],
      "stateMutability": "nonpayable",
      "type": "function"
    },
    {
      "inputs": [
        {
          "internalType": "bytes4",
          "name": "interfaceId",
          "type": "bytes4"
        }
      ],
      "name": "supportsInterface",
      "outputs": [
        {
          "internalType": "bool",
          "name": "",
          "type": "bool"
        }
      ],
      "stateMutability": "view",
      "type": "function"
    },
    {
      "inputs": [],
      "name": "symbol",
      "outputs": [
        {
          "internalType": "string",
          "name": "",
          "type": "string"
        }
      ],
      "stateMutability": "view",
      "type": "function"
    },
    {
      "inputs": [
        {
          "internalType": "uint256",
          "name": "",
          "type": "uint256"
        }
      ],
      "name": "tokenToClaimedPosterItem",
      "outputs": [
        {
          "internalType": "bool",
          "name": "",
          "type": "bool"
        }
      ],
      "stateMutability": "view",
      "type": "function"
    },
    {
      "inputs": [
        {
          "internalType": "uint256",
          "name": "",
          "type": "uint256"
        }
      ],
      "name": "tokenToClaimedWearableItem",
      "outputs": [
        {
          "internalType": "bool",
          "name": "",
          "type": "bool"
        }
      ],
      "stateMutability": "view",
      "type": "function"
    },
    {
      "inputs": [
        {
          "internalType": "uint256",
          "name": "_tokenId",
          "type": "uint256"
        }
      ],
      "name": "tokenURI",
      "outputs": [
        {
          "internalType": "string",
          "name": "",
          "type": "string"
        }
      ],
      "stateMutability": "view",
      "type": "function"
    },
    {
      "inputs": [
        {
          "internalType": "address",
          "name": "owner",
          "type": "address"
        }
      ],
      "name": "tokensOfOwner",
      "outputs": [
        {
          "internalType": "uint256[]",
          "name": "",
          "type": "uint256[]"
        }
      ],
      "stateMutability": "view",
      "type": "function"
    },
    {
      "inputs": [
        {
          "internalType": "address",
          "name": "owner",
          "type": "address"
        },
        {
          "internalType": "uint256",
          "name": "start",
          "type": "uint256"
        },
        {
          "internalType": "uint256",
          "name": "stop",
          "type": "uint256"
        }
      ],
      "name": "tokensOfOwnerIn",
      "outputs": [
        {
          "internalType": "uint256[]",
          "name": "",
          "type": "uint256[]"
        }
      ],
      "stateMutability": "view",
      "type": "function"
    },
    {
      "inputs": [],
      "name": "totalSupply",
      "outputs": [
        {
          "internalType": "uint256",
          "name": "",
          "type": "uint256"
        }
      ],
      "stateMutability": "view",
      "type": "function"
    },
    {
      "inputs": [
        {
          "internalType": "address",
          "name": "from",
          "type": "address"
        },
        {
          "internalType": "address",
          "name": "to",
          "type": "address"
        },
        {
          "internalType": "uint256",
          "name": "tokenId",
          "type": "uint256"
        }
      ],
      "name": "transferFrom",
      "outputs": [],
      "stateMutability": "nonpayable",
      "type": "function"
    },
    {
      "inputs": [
        {
          "internalType": "address",
          "name": "newOwner",
          "type": "address"
        }
      ],
      "name": "transferOwnership",
      "outputs": [],
      "stateMutability": "nonpayable",
      "type": "function"
    },
    {
      "inputs": [],
      "name": "uriPrefix",
      "outputs": [
        {
          "internalType": "string",
          "name": "",
          "type": "string"
        }
      ],
      "stateMutability": "view",
      "type": "function"
    },
    {
      "inputs": [],
      "name": "uriSuffix",
      "outputs": [
        {
          "internalType": "string",
          "name": "",
          "type": "string"
        }
      ],
      "stateMutability": "view",
      "type": "function"
    },
    {
      "inputs": [
        {
          "internalType": "address",
          "name": "",
          "type": "address"
        }
      ],
      "name": "whitelistClaimed",
      "outputs": [
        {
          "internalType": "bool",
          "name": "",
          "type": "bool"
        }
      ],
      "stateMutability": "view",
      "type": "function"
    },
    {
      "inputs": [],
      "name": "whitelistMintEnabled",
      "outputs": [
        {
          "internalType": "bool",
          "name": "",
          "type": "bool"
        }
      ],
      "stateMutability": "view",
      "type": "function"
    },
    {
      "inputs": [
        {
          "internalType": "address",
          "name": "_phan",
          "type": "address"
        },
        {
          "internalType": "uint256",
          "name": "_mintAmount",
          "type": "uint256"
        },
        {
          "internalType": "bytes32[]",
          "name": "_merkleProof",
          "type": "bytes32[]"
        }
      ],
      "name": "whitelistMintLizard",
      "outputs": [],
      "stateMutability": "payable",
      "type": "function"
    },
    {
      "inputs": [],
      "name": "withdraw",
      "outputs": [],
      "stateMutability": "nonpayable",
      "type": "function"
    }
  ],
  "bytecode": "0x60a06040819052600060808190526200001b91600c916200025d565b5060408051808201909152600580825264173539b7b760d91b60209092019182526200004a91600d916200025d565b506012805462ffffff191660011790553480156200006757600080fd5b5060405162003a4438038062003a448339810160408190526200008a91620003d0565b855186908690620000a39060029060208501906200025d565b508051620000b99060039060208401906200025d565b5050600160005550620000cc3362000103565b6001600955620000dc8462000155565b6010839055620000ec82620001a9565b620000f781620001f9565b505050505050620004ba565b600880546001600160a01b038381166001600160a01b0319831681179093556040519116919082907f8be0079c531659141344cd1fd0a4f28419497f9722a3daafe3b4186f6b6457e090600090a35050565b6008546001600160a01b03163314620001a45760405162461bcd60e51b8152602060048201819052602482015260008051602062003a2483398151915260448201526064015b60405180910390fd5b600f55565b6008546001600160a01b03163314620001f45760405162461bcd60e51b8152602060048201819052602482015260008051602062003a2483398151915260448201526064016200019b565b601155565b6008546001600160a01b03163314620002445760405162461bcd60e51b8152602060048201819052602482015260008051602062003a2483398151915260448201526064016200019b565b80516200025990600e9060208401906200025d565b5050565b8280546200026b906200047d565b90600052602060002090601f0160209004810192826200028f5760008555620002da565b82601f10620002aa57805160ff1916838001178555620002da565b82800160010185558215620002da579182015b82811115620002da578251825591602001919060010190620002bd565b50620002e8929150620002ec565b5090565b5b80821115620002e85760008155600101620002ed565b634e487b7160e01b600052604160045260246000fd5b600082601f8301126200032b57600080fd5b81516001600160401b038082111562000348576200034862000303565b604051601f8301601f19908116603f0116810190828211818310171562000373576200037362000303565b816040528381526020925086838588010111156200039057600080fd5b600091505b83821015620003b4578582018301518183018401529082019062000395565b83821115620003c65760008385830101525b9695505050505050565b60008060008060008060c08789031215620003ea57600080fd5b86516001600160401b03808211156200040257600080fd5b620004108a838b0162000319565b975060208901519150808211156200042757600080fd5b620004358a838b0162000319565b965060408901519550606089015194506080890151935060a08901519150808211156200046157600080fd5b506200047089828a0162000319565b9150509295509295509295565b600181811c908216806200049257607f821691505b60208210811415620004b457634e487b7160e01b600052602260045260246000fd5b50919050565b61355a80620004ca6000396000f3fe6080604052600436106102ff5760003560e01c80636dd95f1011610190578063a45ba8e7116100dc578063d5abeb0111610095578063e74b981b1161006f578063e74b981b14610918578063e985e9c514610938578063efbd73f414610958578063f2fde38b1461097857600080fd5b8063d5abeb01146108b2578063db4bec44146108c8578063e0a80853146108f857600080fd5b8063a45ba8e7146107f0578063b071401b14610805578063b767a09814610825578063b88d4fde14610845578063c23dc68f14610865578063c87b56dd1461089257600080fd5b80638462151c1161014957806394354fd01161012357806394354fd01461078557806395d89b411461079b57806399a2557a146107b0578063a22cb465146107d057600080fd5b80638462151c1461070d5780638da5cb5b1461073a5780638e7554851461075857600080fd5b80636dd95f101461065557806370a0823114610668578063715018a6146106885780637aba64421461069d5780637cb64759146106cd5780637ec4a659146106ed57600080fd5b80633ccfd60b1161024f5780635503a0e8116102085780635f1554da116101e25780635f1554da146105d157806362b99ad4146106015780636352211e146106165780636caede3d1461063657600080fd5b80635503a0e8146105755780635bbb21771461058a5780635c975abb146105b757600080fd5b80633ccfd60b146104c05780633f02847c146104d557806342842e0e146104f557806344a0d68a146105155780634fdd43cb14610535578063518302271461055557600080fd5b806313faede6116102bc57806318160ddd1161029657806318160ddd1461044c57806323b872dd1461046a5780632eb4a7ab1461048a578063384a53f5146104a057600080fd5b806313faede6146103e857806316ba10e01461040c57806316c38b3c1461042c57600080fd5b806301b87ef61461030457806301ffc9a71461031957806306fdde031461034e578063081812fc14610370578063095ea7b3146103a857806309e20d94146103c8575b600080fd5b610317610312366004612b0f565b610998565b005b34801561032557600080fd5b50610339610334366004612b51565b610b6c565b60405190151581526020015b60405180910390f35b34801561035a57600080fd5b50610363610bbe565b6040516103459190612bc6565b34801561037c57600080fd5b5061039061038b366004612bd9565b610c50565b6040516001600160a01b039091168152602001610345565b3480156103b457600080fd5b506103176103c3366004612b0f565b610c94565b3480156103d457600080fd5b506103176103e3366004612bf2565b610d1b565b3480156103f457600080fd5b506103fe600f5481565b604051908152602001610345565b34801561041857600080fd5b50610317610427366004612ccd565b610e64565b34801561043857600080fd5b50610317610447366004612d2a565b610ea5565b34801561045857600080fd5b506103fe600154600054036000190190565b34801561047657600080fd5b50610317610485366004612d45565b610ee2565b34801561049657600080fd5b506103fe600a5481565b3480156104ac57600080fd5b506103176104bb366004612bf2565b610eed565b3480156104cc57600080fd5b50610317611028565b3480156104e157600080fd5b506103176104f0366004612d86565b611158565b34801561050157600080fd5b50610317610510366004612d45565b6111a4565b34801561052157600080fd5b50610317610530366004612bd9565b6111bf565b34801561054157600080fd5b50610317610550366004612ccd565b6111ee565b34801561056157600080fd5b506012546103399062010000900460ff1681565b34801561058157600080fd5b5061036361122b565b34801561059657600080fd5b506105aa6105a5366004612dc6565b6112b9565b6040516103459190612e56565b3480156105c357600080fd5b506012546103399060ff1681565b3480156105dd57600080fd5b506103396105ec366004612bd9565b60146020526000908152604090205460ff1681565b34801561060d57600080fd5b5061036361137f565b34801561062257600080fd5b50610390610631366004612bd9565b61138c565b34801561064257600080fd5b5060125461033990610100900460ff1681565b610317610663366004612ec0565b61139e565b34801561067457600080fd5b506103fe610683366004612d86565b6116af565b34801561069457600080fd5b506103176116fd565b3480156106a957600080fd5b506103396106b8366004612bd9565b60156020526000908152604090205460ff1681565b3480156106d957600080fd5b506103176106e8366004612bd9565b611733565b3480156106f957600080fd5b50610317610708366004612ccd565b611762565b34801561071957600080fd5b5061072d610728366004612d86565b61179f565b6040516103459190612f4b565b34801561074657600080fd5b506008546001600160a01b0316610390565b34801561076457600080fd5b50610778610773366004612bd9565b6118ec565b6040516103459190612f83565b34801561079157600080fd5b506103fe60115481565b3480156107a757600080fd5b50610363611973565b3480156107bc57600080fd5b5061072d6107cb366004612fe5565b611982565b3480156107dc57600080fd5b506103176107eb36600461301a565b611b48565b3480156107fc57600080fd5b50610363611bde565b34801561081157600080fd5b50610317610820366004612bd9565b611beb565b34801561083157600080fd5b50610317610840366004612d2a565b611c1a565b34801561085157600080fd5b5061031761086036600461304f565b611c5e565b34801561087157600080fd5b50610885610880366004612bd9565b611ca8565b60405161034591906130ce565b34801561089e57600080fd5b506103636108ad366004612bd9565b611d62565b3480156108be57600080fd5b506103fe60105481565b3480156108d457600080fd5b506103396108e3366004612d86565b600b6020526000908152604090205460ff1681565b34801561090457600080fd5b50610317610913366004612d2a565b611ed1565b34801561092457600080fd5b50610317610933366004612d86565b611f17565b34801561094457600080fd5b50610339610953366004613103565b611f6d565b34801561096457600080fd5b50610317610973366004612bf2565b611f9b565b34801561098457600080fd5b50610317610993366004612d86565b61203b565b806000811180156109ab57506011548111155b6109d05760405162461bcd60e51b81526004016109c790613131565b60405180910390fd5b601054816109e5600154600054036000190190565b6109ef9190613175565b1115610a0d5760405162461bcd60e51b81526004016109c79061318d565b8180600f54610a1c91906131bb565b341015610a615760405162461bcd60e51b8152602060048201526013602482015272496e73756666696369656e742066756e64732160681b60448201526064016109c7565b60125460ff1615610ab45760405162461bcd60e51b815260206004820152601760248201527f54686520636f6e7472616374206973207061757365642100000000000000000060448201526064016109c7565b610abe84846120d6565b6000838152601460209081526040808320805460ff199081169091556015909252822080549091169055600f54610b04906103e890610afe9060216120f0565b906120fc565b601254909150610b2490630100000090046001600160a01b031682612108565b604080518581526001600160a01b03871660208201527f107fc5822c2f981ad9cfb400c4ba195dad99bd7bbbac78f55b7b0d7a5ef43e2f910160405180910390a15050505050565b60006001600160e01b031982166380ac58cd60e01b1480610b9d57506001600160e01b03198216635b5e139f60e01b145b80610bb857506301ffc9a760e01b6001600160e01b03198316145b92915050565b606060028054610bcd906131da565b80601f0160208091040260200160405190810160405280929190818152602001828054610bf9906131da565b8015610c465780601f10610c1b57610100808354040283529160200191610c46565b820191906000526020600020905b815481529060010190602001808311610c2957829003601f168201915b5050505050905090565b6000610c5b82612221565b610c78576040516333d1c03960e21b815260040160405180910390fd5b506000908152600660205260409020546001600160a01b031690565b6000610c9f8261138c565b9050806001600160a01b0316836001600160a01b03161415610cd45760405163250fdee360e21b815260040160405180910390fd5b336001600160a01b03821614610d0b57610cee8133611f6d565b610d0b576040516367d9dca160e11b815260040160405180910390fd5b610d1683838361225a565b505050565b6008546001600160a01b03163314610d455760405162461bcd60e51b81526004016109c790613215565b610d4e8261138c565b6001600160a01b0316816001600160a01b031614610d7e5760405162461bcd60e51b81526004016109c79061324a565b60008281526014602052604090205460ff1615610dfb5760405162461bcd60e51b815260206004820152603560248201527f5765617261626c65206974656d20666f72207468697320746f6b656e2068617360448201527408185b1c9958591e481899595b8818db185a5b5959605a1b60648201526084016109c7565b60008281526014602052604090819020805460ff19166001179055517f9498b3d4e6aea3d8ae2e12b4ced7c3a07a511ad391261b00720afaf33195b79390610e5890849084909182526001600160a01b0316602082015260400190565b60405180910390a15050565b6008546001600160a01b03163314610e8e5760405162461bcd60e51b81526004016109c790613215565b8051610ea190600d906020840190612a61565b5050565b6008546001600160a01b03163314610ecf5760405162461bcd60e51b81526004016109c790613215565b6012805460ff1916911515919091179055565b610d168383836122b6565b6008546001600160a01b03163314610f175760405162461bcd60e51b81526004016109c790613215565b610f208261138c565b6001600160a01b0316816001600160a01b031614610f505760405162461bcd60e51b81526004016109c79061324a565b60008281526015602052604090205460ff1615610fcb5760405162461bcd60e51b815260206004820152603360248201527f506f73746572206974656d20666f72207468697320746f6b656e2068617320616044820152721b1c9958591e481899595b8818db185a5b5959606a1b60648201526084016109c7565b60008281526015602052604090819020805460ff19166001179055517f8110c71bdd8e1e3901f6cba4a947d0529fc768ee64e6732baf4b9e9bfb53629790610e5890849084909182526001600160a01b0316602082015260400190565b6008546001600160a01b031633146110525760405162461bcd60e51b81526004016109c790613215565b600260095414156110a55760405162461bcd60e51b815260206004820152601f60248201527f5265656e7472616e637947756172643a207265656e7472616e742063616c6c0060448201526064016109c7565b60026009554760006110bf6008546001600160a01b031690565b6001600160a01b03168260405160006040518083038185875af1925050503d8060008114611109576040519150601f19603f3d011682016040523d82523d6000602084013e61110e565b606091505b505090508061111c57600080fd5b6040518281527f4a37b25aab49761ecf63117fe82b98d750917451133cf797507bc9fb5b96044a9060200160405180910390a150506001600955565b6008546001600160a01b031633146111825760405162461bcd60e51b81526004016109c790613215565b601380546001600160a01b0319166001600160a01b0392909216919091179055565b610d1683838360405180602001604052806000815250611c5e565b6008546001600160a01b031633146111e95760405162461bcd60e51b81526004016109c790613215565b600f55565b6008546001600160a01b031633146112185760405162461bcd60e51b81526004016109c790613215565b8051610ea190600e906020840190612a61565b600d8054611238906131da565b80601f0160208091040260200160405190810160405280929190818152602001828054611264906131da565b80156112b15780601f10611286576101008083540402835291602001916112b1565b820191906000526020600020905b81548152906001019060200180831161129457829003601f168201915b505050505081565b80516060906000816001600160401b038111156112d8576112d8612c22565b60405190808252806020026020018201604052801561132357816020015b60408051606081018252600080825260208083018290529282015282526000199092019101816112f65790505b50905060005b8281146113775761135285828151811061134557611345613294565b6020026020010151611ca8565b82828151811061136457611364613294565b6020908102919091010152600101611329565b509392505050565b600c8054611238906131da565b6000611397826124a3565b5192915050565b826000811180156113b157506011548111155b6113cd5760405162461bcd60e51b81526004016109c790613131565b601054816113e2600154600054036000190190565b6113ec9190613175565b111561140a5760405162461bcd60e51b81526004016109c79061318d565b8380600f5461141991906131bb565b34101561145e5760405162461bcd60e51b8152602060048201526013602482015272496e73756666696369656e742066756e64732160681b60448201526064016109c7565b601254610100900460ff166114c05760405162461bcd60e51b815260206004820152602260248201527f5468652077686974656c6973742073616c65206973206e6f7420656e61626c65604482015261642160f01b60648201526084016109c7565b336000908152600b602052604090205460ff16156115205760405162461bcd60e51b815260206004820152601860248201527f4164647265737320616c726561647920636c61696d656421000000000000000060448201526064016109c7565b6040516bffffffffffffffffffffffff193360601b16602082015260009060340160405160208183030381529060405280519060200120905061159a85858080602002602001604051908101604052809392919081815260200183836020028082843760009201919091525050600a5491508490506125c5565b6115d75760405162461bcd60e51b815260206004820152600e60248201526d496e76616c69642070726f6f662160901b60448201526064016109c7565b6001600160a01b0387166000908152600b60205260409020805460ff1916600117905561160487876120d6565b6000868152601460209081526040808320805460ff199081169091556015909252822080549091169055600f54611644906103e890610afe9060216120f0565b60125490915061166490630100000090046001600160a01b031682612108565b604080518881526001600160a01b038a1660208201527f107fc5822c2f981ad9cfb400c4ba195dad99bd7bbbac78f55b7b0d7a5ef43e2f910160405180910390a15050505050505050565b60006001600160a01b0382166116d8576040516323d3ad8160e21b815260040160405180910390fd5b506001600160a01b03166000908152600560205260409020546001600160401b031690565b6008546001600160a01b031633146117275760405162461bcd60e51b81526004016109c790613215565b61173160006125db565b565b6008546001600160a01b0316331461175d5760405162461bcd60e51b81526004016109c790613215565b600a55565b6008546001600160a01b0316331461178c5760405162461bcd60e51b81526004016109c790613215565b8051610ea190600c906020840190612a61565b606060008060006117af856116af565b90506000816001600160401b038111156117cb576117cb612c22565b6040519080825280602002602001820160405280156117f4578160200160208202803683370190505b50905061181a604080516060810182526000808252602082018190529181019190915290565b60015b8386146118e057600081815260046020908152604091829020825160608101845290546001600160a01b0381168252600160a01b81046001600160401b031692820192909252600160e01b90910460ff16158015928201929092529250611883576118d8565b81516001600160a01b03161561189857815194505b876001600160a01b0316856001600160a01b031614156118d857808387806001019850815181106118cb576118cb613294565b6020026020010181815250505b60010161181d565b50909695505050505050565b601354604051632c0df8c560e01b8152306004820152602481018390526060916001600160a01b031690632c0df8c59060440160006040518083038186803b15801561193757600080fd5b505afa15801561194b573d6000803e3d6000fd5b505050506040513d6000823e601f3d908101601f19168201604052610bb891908101906132aa565b606060038054610bcd906131da565b60608183106119a457604051631960ccad60e11b815260040160405180910390fd5b6000805460018510156119b657600194505b808411156119c2578093505b60006119cd876116af565b9050848610156119ec57858503818110156119e6578091505b506119f0565b5060005b6000816001600160401b03811115611a0a57611a0a612c22565b604051908082528060200260200182016040528015611a33578160200160208202803683370190505b50905081611a46579350611b4192505050565b6000611a5188611ca8565b905060008160400151611a62575080515b885b888114158015611a745750848714155b15611b3557600081815260046020908152604091829020825160608101845290546001600160a01b0381168252600160a01b81046001600160401b031692820192909252600160e01b90910460ff16158015928201929092529350611ad857611b2d565b82516001600160a01b031615611aed57825191505b8a6001600160a01b0316826001600160a01b03161415611b2d5780848880600101995081518110611b2057611b20613294565b6020026020010181815250505b600101611a64565b50505092835250909150505b9392505050565b6001600160a01b038216331415611b725760405163b06307db60e01b815260040160405180910390fd5b3360008181526007602090815260408083206001600160a01b03871680855290835292819020805460ff191686151590811790915590519081529192917f17307eab39ab6107e8899845ad3d59bd9653f200f220920489ca2b5937696c31910160405180910390a35050565b600e8054611238906131da565b6008546001600160a01b03163314611c155760405162461bcd60e51b81526004016109c790613215565b601155565b6008546001600160a01b03163314611c445760405162461bcd60e51b81526004016109c790613215565b601280549115156101000261ff0019909216919091179055565b611c698484846122b6565b6001600160a01b0383163b15611ca257611c858484848461262d565b611ca2576040516368d2bf6b60e11b815260040160405180910390fd5b50505050565b60408051606080820183526000808352602080840182905283850182905284519283018552818352820181905292810192909252906001831080611cee57506000548310155b15611cf95792915050565b50600082815260046020908152604091829020825160608101845290546001600160a01b0381168252600160a01b81046001600160401b031692820192909252600160e01b90910460ff161580159282019290925290611d595792915050565b611b41836124a3565b6060611d6d82612221565b611dd15760405162461bcd60e51b815260206004820152602f60248201527f4552433732314d657461646174613a2055524920717565727920666f72206e6f60448201526e3732bc34b9ba32b73a103a37b5b2b760891b60648201526084016109c7565b60125462010000900460ff16611e7357600e8054611dee906131da565b80601f0160208091040260200160405190810160405280929190818152602001828054611e1a906131da565b8015611e675780601f10611e3c57610100808354040283529160200191611e67565b820191906000526020600020905b815481529060010190602001808311611e4a57829003601f168201915b50505050509050919050565b6000611e7d612725565b90506000815111611e9d5760405180602001604052806000815250611b41565b80611ea784612734565b600d604051602001611ebb93929190613396565b6040516020818303038152906040529392505050565b6008546001600160a01b03163314611efb5760405162461bcd60e51b81526004016109c790613215565b60128054911515620100000262ff000019909216919091179055565b6008546001600160a01b03163314611f415760405162461bcd60e51b81526004016109c790613215565b601280546001600160a01b039092166301000000026301000000600160b81b0319909216919091179055565b6001600160a01b03918216600090815260076020908152604080832093909416825291909152205460ff1690565b81600081118015611fae57506011548111155b611fca5760405162461bcd60e51b81526004016109c790613131565b60105481611fdf600154600054036000190190565b611fe99190613175565b11156120075760405162461bcd60e51b81526004016109c79061318d565b6008546001600160a01b031633146120315760405162461bcd60e51b81526004016109c790613215565b610d1682846120d6565b6008546001600160a01b031633146120655760405162461bcd60e51b81526004016109c790613215565b6001600160a01b0381166120ca5760405162461bcd60e51b815260206004820152602660248201527f4f776e61626c653a206e6577206f776e657220697320746865207a65726f206160448201526564647265737360d01b60648201526084016109c7565b6120d3816125db565b50565b610ea1828260405180602001604052806000815250612831565b6000611b4182846131bb565b6000611b418284613470565b804710156121585760405162461bcd60e51b815260206004820152601d60248201527f416464726573733a20696e73756666696369656e742062616c616e636500000060448201526064016109c7565b6000826001600160a01b03168260405160006040518083038185875af1925050503d80600081146121a5576040519150601f19603f3d011682016040523d82523d6000602084013e6121aa565b606091505b5050905080610d165760405162461bcd60e51b815260206004820152603a60248201527f416464726573733a20756e61626c6520746f2073656e642076616c75652c207260448201527f6563697069656e74206d6179206861766520726576657274656400000000000060648201526084016109c7565b600081600111158015612235575060005482105b8015610bb8575050600090815260046020526040902054600160e01b900460ff161590565b60008281526006602052604080822080546001600160a01b0319166001600160a01b0387811691821790925591518593918516917f8c5be1e5ebec7d5bd14f71427d1e84f3dd0314c0f7b2291e5b200ac8c7c3b92591a4505050565b60006122c1826124a3565b9050836001600160a01b031681600001516001600160a01b0316146122f85760405162a1148160e81b815260040160405180910390fd5b6000336001600160a01b038616148061231657506123168533611f6d565b8061233157503361232684610c50565b6001600160a01b0316145b90508061235157604051632ce44b5f60e11b815260040160405180910390fd5b6001600160a01b03841661237857604051633a954ecd60e21b815260040160405180910390fd5b6123846000848761225a565b6001600160a01b038581166000908152600560209081526040808320805467ffffffffffffffff198082166001600160401b0392831660001901831617909255898616808652838620805493841693831660019081018416949094179055898652600490945282852080546001600160e01b031916909417600160a01b4290921691909102178355870180845292208054919390911661245857600054821461245857805460208601516001600160401b0316600160a01b026001600160e01b03199091166001600160a01b038a16171781555b50505082846001600160a01b0316866001600160a01b03167fddf252ad1be2c89b69c2b068fc378daa952ba7f163c4a11628f55a4df523b3ef60405160405180910390a45050505050565b604080516060810182526000808252602082018190529181019190915281806001116125ac576000548110156125ac57600081815260046020908152604091829020825160608101845290546001600160a01b0381168252600160a01b81046001600160401b031692820192909252600160e01b90910460ff161515918101829052906125aa5780516001600160a01b031615612541579392505050565b5060001901600081815260046020908152604091829020825160608101845290546001600160a01b038116808352600160a01b82046001600160401b031693830193909352600160e01b900460ff16151592810192909252156125a5579392505050565b612541565b505b604051636f96cda160e11b815260040160405180910390fd5b6000826125d285846129f5565b14949350505050565b600880546001600160a01b038381166001600160a01b0319831681179093556040519116919082907f8be0079c531659141344cd1fd0a4f28419497f9722a3daafe3b4186f6b6457e090600090a35050565b604051630a85bd0160e11b81526000906001600160a01b0385169063150b7a0290612662903390899088908890600401613484565b602060405180830381600087803b15801561267c57600080fd5b505af19250505080156126ac575060408051601f3d908101601f191682019092526126a9918101906134c1565b60015b612707573d8080156126da576040519150601f19603f3d011682016040523d82523d6000602084013e6126df565b606091505b5080516126ff576040516368d2bf6b60e11b815260040160405180910390fd5b805181602001fd5b6001600160e01b031916630a85bd0160e11b1490505b949350505050565b6060600c8054610bcd906131da565b6060816127585750506040805180820190915260018152600360fc1b602082015290565b8160005b8115612782578061276c816134de565b915061277b9050600a83613470565b915061275c565b6000816001600160401b0381111561279c5761279c612c22565b6040519080825280601f01601f1916602001820160405280156127c6576020820181803683370190505b5090505b841561271d576127db6001836134f9565b91506127e8600a86613510565b6127f3906030613175565b60f81b81838151811061280857612808613294565b60200101906001600160f81b031916908160001a90535061282a600a86613470565b94506127ca565b6000546001600160a01b03841661285a57604051622e076360e81b815260040160405180910390fd5b826128785760405163b562e8dd60e01b815260040160405180910390fd5b6001600160a01b038416600081815260056020908152604080832080546fffffffffffffffffffffffffffffffff1981166001600160401b038083168b0181169182176801000000000000000067ffffffffffffffff1990941690921783900481168b01811690920217909155858452600490925290912080546001600160e01b0319168317600160a01b42909316929092029190911790558190818501903b156129a0575b60405182906001600160a01b038816906000907fddf252ad1be2c89b69c2b068fc378daa952ba7f163c4a11628f55a4df523b3ef908290a4612969600087848060010195508761262d565b612986576040516368d2bf6b60e11b815260040160405180910390fd5b80821061291e57826000541461299b57600080fd5b6129e5565b5b6040516001830192906001600160a01b038816906000907fddf252ad1be2c89b69c2b068fc378daa952ba7f163c4a11628f55a4df523b3ef908290a48082106129a1575b506000908155611ca29085838684565b600081815b8451811015611377576000858281518110612a1757612a17613294565b60200260200101519050808311612a3d5760008381526020829052604090209250612a4e565b600081815260208490526040902092505b5080612a59816134de565b9150506129fa565b828054612a6d906131da565b90600052602060002090601f016020900481019282612a8f5760008555612ad5565b82601f10612aa857805160ff1916838001178555612ad5565b82800160010185558215612ad5579182015b82811115612ad5578251825591602001919060010190612aba565b50612ae1929150612ae5565b5090565b5b80821115612ae15760008155600101612ae6565b6001600160a01b03811681146120d357600080fd5b60008060408385031215612b2257600080fd5b8235612b2d81612afa565b946020939093013593505050565b6001600160e01b0319811681146120d357600080fd5b600060208284031215612b6357600080fd5b8135611b4181612b3b565b60005b83811015612b89578181015183820152602001612b71565b83811115611ca25750506000910152565b60008151808452612bb2816020860160208601612b6e565b601f01601f19169290920160200192915050565b602081526000611b416020830184612b9a565b600060208284031215612beb57600080fd5b5035919050565b60008060408385031215612c0557600080fd5b823591506020830135612c1781612afa565b809150509250929050565b634e487b7160e01b600052604160045260246000fd5b604051601f8201601f191681016001600160401b0381118282101715612c6057612c60612c22565b604052919050565b60006001600160401b03821115612c8157612c81612c22565b50601f01601f191660200190565b6000612ca2612c9d84612c68565b612c38565b9050828152838383011115612cb657600080fd5b828260208301376000602084830101529392505050565b600060208284031215612cdf57600080fd5b81356001600160401b03811115612cf557600080fd5b8201601f81018413612d0657600080fd5b61271d84823560208401612c8f565b80358015158114612d2557600080fd5b919050565b600060208284031215612d3c57600080fd5b611b4182612d15565b600080600060608486031215612d5a57600080fd5b8335612d6581612afa565b92506020840135612d7581612afa565b929592945050506040919091013590565b600060208284031215612d9857600080fd5b8135611b4181612afa565b60006001600160401b03821115612dbc57612dbc612c22565b5060051b60200190565b60006020808385031215612dd957600080fd5b82356001600160401b03811115612def57600080fd5b8301601f81018513612e0057600080fd5b8035612e0e612c9d82612da3565b81815260059190911b82018301908381019087831115612e2d57600080fd5b928401925b82841015612e4b57833582529284019290840190612e32565b979650505050505050565b6020808252825182820181905260009190848201906040850190845b818110156118e057612ead83855180516001600160a01b031682526020808201516001600160401b0316908301526040908101511515910152565b9284019260609290920191600101612e72565b60008060008060608587031215612ed657600080fd5b8435612ee181612afa565b93506020850135925060408501356001600160401b0380821115612f0457600080fd5b818701915087601f830112612f1857600080fd5b813581811115612f2757600080fd5b8860208260051b8501011115612f3c57600080fd5b95989497505060200194505050565b6020808252825182820181905260009190848201906040850190845b818110156118e057835183529284019291840191600101612f67565b6000602080830181845280855180835260408601915060408160051b870101925083870160005b82811015612fd857603f19888603018452612fc6858351612b9a565b94509285019290850190600101612faa565b5092979650505050505050565b600080600060608486031215612ffa57600080fd5b833561300581612afa565b95602085013595506040909401359392505050565b6000806040838503121561302d57600080fd5b823561303881612afa565b915061304660208401612d15565b90509250929050565b6000806000806080858703121561306557600080fd5b843561307081612afa565b9350602085013561308081612afa565b92506040850135915060608501356001600160401b038111156130a257600080fd5b8501601f810187136130b357600080fd5b6130c287823560208401612c8f565b91505092959194509250565b81516001600160a01b031681526020808301516001600160401b03169082015260408083015115159082015260608101610bb8565b6000806040838503121561311657600080fd5b823561312181612afa565b91506020830135612c1781612afa565b602080825260149082015273496e76616c6964206d696e7420616d6f756e742160601b604082015260600190565b634e487b7160e01b600052601160045260246000fd5b600082198211156131885761318861315f565b500190565b6020808252601490820152734d617820737570706c792065786365656465642160601b604082015260600190565b60008160001904831182151516156131d5576131d561315f565b500290565b600181811c908216806131ee57607f821691505b6020821081141561320f57634e487b7160e01b600052602260045260246000fd5b50919050565b6020808252818101527f4f776e61626c653a2063616c6c6572206973206e6f7420746865206f776e6572604082015260600190565b6020808252602a908201527f4f6e6c792074686520746f6b656e206f776e65722063616e20636c61696d2072604082015269656465656d61626c657360b01b606082015260800190565b634e487b7160e01b600052603260045260246000fd5b600060208083850312156132bd57600080fd5b82516001600160401b03808211156132d457600080fd5b818501915085601f8301126132e857600080fd5b81516132f6612c9d82612da3565b81815260059190911b8301840190848101908883111561331557600080fd5b8585015b83811015613389578051858111156133315760008081fd5b8601603f81018b136133435760008081fd5b878101516040613355612c9d83612c68565b8281528d8284860101111561336a5760008081fd5b613379838c8301848701612b6e565b8652505050918601918601613319565b5098975050505050505050565b6000845160206133a98285838a01612b6e565b8551918401916133bc8184848a01612b6e565b8554920191600090600181811c90808316806133d957607f831692505b8583108114156133f757634e487b7160e01b85526022600452602485fd5b80801561340b576001811461341c57613449565b60ff19851688528388019550613449565b60008b81526020902060005b858110156134415781548a820152908401908801613428565b505083880195505b50939b9a5050505050505050505050565b634e487b7160e01b600052601260045260246000fd5b60008261347f5761347f61345a565b500490565b6001600160a01b03858116825284166020820152604081018390526080606082018190526000906134b790830184612b9a565b9695505050505050565b6000602082840312156134d357600080fd5b8151611b4181612b3b565b60006000198214156134f2576134f261315f565b5060010190565b60008282101561350b5761350b61315f565b500390565b60008261351f5761351f61345a565b50069056fea2646970667358221220206c49f044efb17d7ff208faed68f2e69daab5b5eb9bec9c9ec2d715e6d51c3c64736f6c634300080900334f776e61626c653a2063616c6c6572206973206e6f7420746865206f776e6572",
  "linkReferences": {},
  "deployedLinkReferences": {}
}