{
  "_format": "hh-sol-artifact-1",
  "contractName": "EnlightenedLizards",
  "sourceName": "contracts/EnlightenedLizards.sol",
  "abi": [
    {
      "inputs": [
        {
          "internalType": "string",
          "name": "_tokenName",
          "type": "string"
        },
        {
          "internalType": "string",
          "name": "_tokenSymbol",
          "type": "string"
        },
        {
          "internalType": "uint256",
          "name": "_cost",
          "type": "uint256"
        },
        {
          "internalType": "uint256",
          "name": "_maxSupply",
          "type": "uint256"
        },
        {
          "internalType": "uint256",
          "name": "_maxMintAmountPerTx",
          "type": "uint256"
        },
        {
          "internalType": "string",
          "name": "_hiddenMetadataUri",
          "type": "string"
        }
      ],
      "stateMutability": "nonpayable",
      "type": "constructor"
    },
    {
      "inputs": [],
      "name": "ApprovalCallerNotOwnerNorApproved",
      "type": "error"
    },
    {
      "inputs": [],
      "name": "ApprovalQueryForNonexistentToken",
      "type": "error"
    },
    {
      "inputs": [],
      "name": "ApprovalToCurrentOwner",
      "type": "error"
    },
    {
      "inputs": [],
      "name": "ApproveToCaller",
      "type": "error"
    },
    {
      "inputs": [],
      "name": "BalanceQueryForZeroAddress",
      "type": "error"
    },
    {
      "inputs": [],
      "name": "InvalidQueryRange",
      "type": "error"
    },
    {
      "inputs": [],
      "name": "MintToZeroAddress",
      "type": "error"
    },
    {
      "inputs": [],
      "name": "MintZeroQuantity",
      "type": "error"
    },
    {
      "inputs": [],
      "name": "OwnerQueryForNonexistentToken",
      "type": "error"
    },
    {
      "inputs": [],
      "name": "TransferCallerNotOwnerNorApproved",
      "type": "error"
    },
    {
      "inputs": [],
      "name": "TransferFromIncorrectOwner",
      "type": "error"
    },
    {
      "inputs": [],
      "name": "TransferToNonERC721ReceiverImplementer",
      "type": "error"
    },
    {
      "inputs": [],
      "name": "TransferToZeroAddress",
      "type": "error"
    },
    {
      "inputs": [],
      "name": "URIQueryForNonexistentToken",
      "type": "error"
    },
    {
      "anonymous": false,
      "inputs": [
        {
          "indexed": true,
          "internalType": "address",
          "name": "owner",
          "type": "address"
        },
        {
          "indexed": true,
          "internalType": "address",
          "name": "approved",
          "type": "address"
        },
        {
          "indexed": true,
          "internalType": "uint256",
          "name": "tokenId",
          "type": "uint256"
        }
      ],
      "name": "Approval",
      "type": "event"
    },
    {
      "anonymous": false,
      "inputs": [
        {
          "indexed": true,
          "internalType": "address",
          "name": "owner",
          "type": "address"
        },
        {
          "indexed": true,
          "internalType": "address",
          "name": "operator",
          "type": "address"
        },
        {
          "indexed": false,
          "internalType": "bool",
          "name": "approved",
          "type": "bool"
        }
      ],
      "name": "ApprovalForAll",
      "type": "event"
    },
    {
      "anonymous": false,
      "inputs": [
        {
          "indexed": false,
          "internalType": "address",
          "name": "newCEO",
          "type": "address"
        }
      ],
      "name": "CEOUpdated",
      "type": "event"
    },
    {
      "anonymous": false,
      "inputs": [
        {
          "indexed": false,
          "internalType": "address",
          "name": "newCTO",
          "type": "address"
        }
      ],
      "name": "CTOUpdated",
      "type": "event"
    },
    {
      "anonymous": false,
      "inputs": [
        {
          "indexed": false,
          "internalType": "uint256",
          "name": "balance",
          "type": "uint256"
        }
      ],
      "name": "FundsWithdrawn",
      "type": "event"
    },
    {
      "anonymous": false,
      "inputs": [
        {
          "indexed": false,
          "internalType": "uint256",
          "name": "tokenId",
          "type": "uint256"
        },
        {
          "indexed": false,
          "internalType": "string",
          "name": "tokenURI",
          "type": "string"
        },
        {
          "indexed": false,
          "internalType": "address",
          "name": "phan",
          "type": "address"
        }
      ],
      "name": "NewLizardMinted",
      "type": "event"
    },
    {
      "anonymous": false,
      "inputs": [
        {
          "indexed": true,
          "internalType": "address",
          "name": "previousOwner",
          "type": "address"
        },
        {
          "indexed": true,
          "internalType": "address",
          "name": "newOwner",
          "type": "address"
        }
      ],
      "name": "OwnershipTransferred",
      "type": "event"
    },
    {
      "anonymous": false,
      "inputs": [
        {
          "indexed": true,
          "internalType": "address",
          "name": "from",
          "type": "address"
        },
        {
          "indexed": true,
          "internalType": "address",
          "name": "to",
          "type": "address"
        },
        {
          "indexed": true,
          "internalType": "uint256",
          "name": "tokenId",
          "type": "uint256"
        }
      ],
      "name": "Transfer",
      "type": "event"
    },
    {
      "anonymous": false,
      "inputs": [
        {
          "indexed": false,
          "internalType": "address",
          "name": "newTreasuryAddress",
          "type": "address"
        }
      ],
      "name": "TreasuryUpdated",
      "type": "event"
    },
    {
      "inputs": [
        {
          "internalType": "address",
          "name": "_receiver",
          "type": "address"
        },
        {
          "internalType": "uint256",
          "name": "_mintAmount",
          "type": "uint256"
        }
      ],
      "name": "adminMintLizard",
      "outputs": [],
      "stateMutability": "nonpayable",
      "type": "function"
    },
    {
      "inputs": [
        {
          "internalType": "address",
          "name": "to",
          "type": "address"
        },
        {
          "internalType": "uint256",
          "name": "tokenId",
          "type": "uint256"
        }
      ],
      "name": "approve",
      "outputs": [],
      "stateMutability": "nonpayable",
      "type": "function"
    },
    {
      "inputs": [
        {
          "internalType": "address",
          "name": "owner",
          "type": "address"
        }
      ],
      "name": "balanceOf",
      "outputs": [
        {
          "internalType": "uint256",
          "name": "",
          "type": "uint256"
        }
      ],
      "stateMutability": "view",
      "type": "function"
    },
    {
      "inputs": [],
      "name": "claimCenterAddress",
      "outputs": [
        {
          "internalType": "address",
          "name": "",
          "type": "address"
        }
      ],
      "stateMutability": "view",
      "type": "function"
    },
    {
      "inputs": [],
      "name": "cost",
      "outputs": [
        {
          "internalType": "uint256",
          "name": "",
          "type": "uint256"
        }
      ],
      "stateMutability": "view",
      "type": "function"
    },
    {
      "inputs": [
        {
          "internalType": "uint256",
          "name": "tokenId",
          "type": "uint256"
        }
      ],
      "name": "explicitOwnershipOf",
      "outputs": [
        {
          "components": [
            {
              "internalType": "address",
              "name": "addr",
              "type": "address"
            },
            {
              "internalType": "uint64",
              "name": "startTimestamp",
              "type": "uint64"
            },
            {
              "internalType": "bool",
              "name": "burned",
              "type": "bool"
            }
          ],
          "internalType": "struct IERC721A.TokenOwnership",
          "name": "",
          "type": "tuple"
        }
      ],
      "stateMutability": "view",
      "type": "function"
    },
    {
      "inputs": [
        {
          "internalType": "uint256[]",
          "name": "tokenIds",
          "type": "uint256[]"
        }
      ],
      "name": "explicitOwnershipsOf",
      "outputs": [
        {
          "components": [
            {
              "internalType": "address",
              "name": "addr",
              "type": "address"
            },
            {
              "internalType": "uint64",
              "name": "startTimestamp",
              "type": "uint64"
            },
            {
              "internalType": "bool",
              "name": "burned",
              "type": "bool"
            }
          ],
          "internalType": "struct IERC721A.TokenOwnership[]",
          "name": "",
          "type": "tuple[]"
        }
      ],
      "stateMutability": "view",
      "type": "function"
    },
    {
      "inputs": [],
      "name": "fundTreasury",
      "outputs": [],
      "stateMutability": "nonpayable",
      "type": "function"
    },
    {
      "inputs": [
        {
          "internalType": "uint256",
          "name": "tokenId",
          "type": "uint256"
        }
      ],
      "name": "getApproved",
      "outputs": [
        {
          "internalType": "address",
          "name": "",
          "type": "address"
        }
      ],
      "stateMutability": "view",
      "type": "function"
    },
    {
      "inputs": [],
      "name": "getCEO",
      "outputs": [
        {
          "internalType": "address",
          "name": "",
          "type": "address"
        }
      ],
      "stateMutability": "view",
      "type": "function"
    },
    {
      "inputs": [],
      "name": "getCTO",
      "outputs": [
        {
          "internalType": "address",
          "name": "",
          "type": "address"
        }
      ],
      "stateMutability": "view",
      "type": "function"
    },
    {
      "inputs": [],
      "name": "getTreasury",
      "outputs": [
        {
          "internalType": "address",
          "name": "",
          "type": "address"
        }
      ],
      "stateMutability": "view",
      "type": "function"
    },
    {
      "inputs": [],
      "name": "hiddenMetadataUri",
      "outputs": [
        {
          "internalType": "string",
          "name": "",
          "type": "string"
        }
      ],
      "stateMutability": "view",
      "type": "function"
    },
    {
      "inputs": [],
      "name": "hiddenRightsUri",
      "outputs": [
        {
          "internalType": "string",
          "name": "",
          "type": "string"
        }
      ],
      "stateMutability": "view",
      "type": "function"
    },
    {
      "inputs": [
        {
          "internalType": "address",
          "name": "owner",
          "type": "address"
        },
        {
          "internalType": "address",
          "name": "operator",
          "type": "address"
        }
      ],
      "name": "isApprovedForAll",
      "outputs": [
        {
          "internalType": "bool",
          "name": "",
          "type": "bool"
        }
      ],
      "stateMutability": "view",
      "type": "function"
    },
    {
      "inputs": [],
      "name": "maxMintAmountPerTx",
      "outputs": [
        {
          "internalType": "uint256",
          "name": "",
          "type": "uint256"
        }
      ],
      "stateMutability": "view",
      "type": "function"
    },
    {
      "inputs": [],
      "name": "maxSupply",
      "outputs": [
        {
          "internalType": "uint256",
          "name": "",
          "type": "uint256"
        }
      ],
      "stateMutability": "view",
      "type": "function"
    },
    {
      "inputs": [],
      "name": "merkleRoot",
      "outputs": [
        {
          "internalType": "bytes32",
          "name": "",
          "type": "bytes32"
        }
      ],
      "stateMutability": "view",
      "type": "function"
    },
    {
      "inputs": [
        {
          "internalType": "address",
          "name": "_phan",
          "type": "address"
        },
        {
          "internalType": "uint256",
          "name": "_mintAmount",
          "type": "uint256"
        }
      ],
      "name": "mintLizard",
      "outputs": [],
      "stateMutability": "payable",
      "type": "function"
    },
    {
      "inputs": [],
      "name": "name",
      "outputs": [
        {
          "internalType": "string",
          "name": "",
          "type": "string"
        }
      ],
      "stateMutability": "view",
      "type": "function"
    },
    {
      "inputs": [],
      "name": "owner",
      "outputs": [
        {
          "internalType": "address",
          "name": "",
          "type": "address"
        }
      ],
      "stateMutability": "view",
      "type": "function"
    },
    {
      "inputs": [
        {
          "internalType": "uint256",
          "name": "tokenId",
          "type": "uint256"
        }
      ],
      "name": "ownerOf",
      "outputs": [
        {
          "internalType": "address",
          "name": "",
          "type": "address"
        }
      ],
      "stateMutability": "view",
      "type": "function"
    },
    {
      "inputs": [],
      "name": "paused",
      "outputs": [
        {
          "internalType": "bool",
          "name": "",
          "type": "bool"
        }
      ],
      "stateMutability": "view",
      "type": "function"
    },
    {
      "inputs": [],
      "name": "renounceOwnership",
      "outputs": [],
      "stateMutability": "nonpayable",
      "type": "function"
    },
    {
      "inputs": [],
      "name": "revealed",
      "outputs": [
        {
          "internalType": "bool",
          "name": "",
          "type": "bool"
        }
      ],
      "stateMutability": "view",
      "type": "function"
    },
    {
      "inputs": [],
      "name": "rightsProtocolAddress",
      "outputs": [
        {
          "internalType": "address",
          "name": "",
          "type": "address"
        }
      ],
      "stateMutability": "view",
      "type": "function"
    },
    {
      "inputs": [
        {
          "internalType": "uint256",
          "name": "_tokenId",
          "type": "uint256"
        }
      ],
      "name": "rightsURIs",
      "outputs": [
        {
          "internalType": "string[]",
          "name": "tokenRightsUris",
          "type": "string[]"
        }
      ],
      "stateMutability": "view",
      "type": "function"
    },
    {
      "inputs": [
        {
          "internalType": "address",
          "name": "from",
          "type": "address"
        },
        {
          "internalType": "address",
          "name": "to",
          "type": "address"
        },
        {
          "internalType": "uint256",
          "name": "tokenId",
          "type": "uint256"
        }
      ],
      "name": "safeTransferFrom",
      "outputs": [],
      "stateMutability": "nonpayable",
      "type": "function"
    },
    {
      "inputs": [
        {
          "internalType": "address",
          "name": "from",
          "type": "address"
        },
        {
          "internalType": "address",
          "name": "to",
          "type": "address"
        },
        {
          "internalType": "uint256",
          "name": "tokenId",
          "type": "uint256"
        },
        {
          "internalType": "bytes",
          "name": "_data",
          "type": "bytes"
        }
      ],
      "name": "safeTransferFrom",
      "outputs": [],
      "stateMutability": "nonpayable",
      "type": "function"
    },
    {
      "inputs": [
        {
          "internalType": "address",
          "name": "operator",
          "type": "address"
        },
        {
          "internalType": "bool",
          "name": "approved",
          "type": "bool"
        }
      ],
      "name": "setApprovalForAll",
      "outputs": [],
      "stateMutability": "nonpayable",
      "type": "function"
    },
    {
      "inputs": [
        {
          "internalType": "address",
          "name": "_newCEO",
          "type": "address"
        }
      ],
      "name": "setCEO",
      "outputs": [],
      "stateMutability": "nonpayable",
      "type": "function"
    },
    {
      "inputs": [
        {
          "internalType": "address",
          "name": "_newCTO",
          "type": "address"
        }
      ],
      "name": "setCTO",
      "outputs": [],
      "stateMutability": "nonpayable",
      "type": "function"
    },
    {
      "inputs": [
        {
          "internalType": "address",
          "name": "_claimCenterAddress",
          "type": "address"
        }
      ],
      "name": "setClaimCenterAddress",
      "outputs": [],
      "stateMutability": "nonpayable",
      "type": "function"
    },
    {
      "inputs": [
        {
          "internalType": "uint256",
          "name": "_cost",
          "type": "uint256"
        }
      ],
      "name": "setCost",
      "outputs": [],
      "stateMutability": "nonpayable",
      "type": "function"
    },
    {
      "inputs": [
        {
          "internalType": "string",
          "name": "_hiddenMetadataUri",
          "type": "string"
        }
      ],
      "name": "setHiddenMetadataUri",
      "outputs": [],
      "stateMutability": "nonpayable",
      "type": "function"
    },
    {
      "inputs": [
        {
          "internalType": "uint256",
          "name": "_maxMintAmountPerTx",
          "type": "uint256"
        }
      ],
      "name": "setMaxMintAmountPerTx",
      "outputs": [],
      "stateMutability": "nonpayable",
      "type": "function"
    },
    {
      "inputs": [
        {
          "internalType": "bytes32",
          "name": "_merkleRoot",
          "type": "bytes32"
        }
      ],
      "name": "setMerkleRoot",
      "outputs": [],
      "stateMutability": "nonpayable",
      "type": "function"
    },
    {
      "inputs": [
        {
          "internalType": "bool",
          "name": "_state",
          "type": "bool"
        }
      ],
      "name": "setPaused",
      "outputs": [],
      "stateMutability": "nonpayable",
      "type": "function"
    },
    {
      "inputs": [
        {
          "internalType": "bool",
          "name": "_state",
          "type": "bool"
        }
      ],
      "name": "setRevealed",
      "outputs": [],
      "stateMutability": "nonpayable",
      "type": "function"
    },
    {
      "inputs": [
        {
          "internalType": "address payable",
          "name": "rightsFeeRecipient_",
          "type": "address"
        }
      ],
      "name": "setRightsFeeRecipient",
      "outputs": [],
      "stateMutability": "nonpayable",
      "type": "function"
    },
    {
      "inputs": [
        {
          "internalType": "address",
          "name": "rightsProtocolAddress_",
          "type": "address"
        }
      ],
      "name": "setRightsProtocolAddress",
      "outputs": [],
      "stateMutability": "nonpayable",
      "type": "function"
    },
    {
      "inputs": [
        {
          "internalType": "address payable",
          "name": "_treasury",
          "type": "address"
        }
      ],
      "name": "setTreasury",
      "outputs": [],
      "stateMutability": "nonpayable",
      "type": "function"
    },
    {
      "inputs": [
        {
          "internalType": "string",
          "name": "_uriPrefix",
          "type": "string"
        }
      ],
      "name": "setUriPrefix",
      "outputs": [],
      "stateMutability": "nonpayable",
      "type": "function"
    },
    {
      "inputs": [
        {
          "internalType": "string",
          "name": "_uriSuffix",
          "type": "string"
        }
      ],
      "name": "setUriSuffix",
      "outputs": [],
      "stateMutability": "nonpayable",
      "type": "function"
    },
    {
      "inputs": [
        {
          "internalType": "bool",
          "name": "_state",
          "type": "bool"
        }
      ],
      "name": "setWhitelistMintEnabled",
      "outputs": [],
      "stateMutability": "nonpayable",
      "type": "function"
    },
    {
      "inputs": [
        {
          "internalType": "bytes4",
          "name": "interfaceId",
          "type": "bytes4"
        }
      ],
      "name": "supportsInterface",
      "outputs": [
        {
          "internalType": "bool",
          "name": "",
          "type": "bool"
        }
      ],
      "stateMutability": "view",
      "type": "function"
    },
    {
      "inputs": [],
      "name": "symbol",
      "outputs": [
        {
          "internalType": "string",
          "name": "",
          "type": "string"
        }
      ],
      "stateMutability": "view",
      "type": "function"
    },
    {
      "inputs": [
        {
          "internalType": "uint256",
          "name": "_tokenId",
          "type": "uint256"
        }
      ],
      "name": "tokenRedeemables",
      "outputs": [
        {
          "components": [
            {
              "internalType": "address",
              "name": "collectionAddress",
              "type": "address"
            },
            {
              "internalType": "uint256",
              "name": "tokenId",
              "type": "uint256"
            },
            {
              "internalType": "enum RedeemableType",
              "name": "redeemableType",
              "type": "uint8"
            },
            {
              "internalType": "string",
              "name": "key",
              "type": "string"
            },
            {
              "internalType": "string",
              "name": "name",
              "type": "string"
            },
            {
              "internalType": "uint256",
              "name": "createdAt",
              "type": "uint256"
            },
            {
              "internalType": "bool",
              "name": "claimed",
              "type": "bool"
            },
            {
              "internalType": "uint256",
              "name": "claimedAt",
              "type": "uint256"
            },
            {
              "internalType": "address",
              "name": "claimedBy",
              "type": "address"
            }
          ],
          "internalType": "struct RedeemableItem[]",
          "name": "redeemableItems",
          "type": "tuple[]"
        }
      ],
      "stateMutability": "view",
      "type": "function"
    },
    {
      "inputs": [
        {
          "internalType": "uint256",
          "name": "_tokenId",
          "type": "uint256"
        }
      ],
      "name": "tokenURI",
      "outputs": [
        {
          "internalType": "string",
          "name": "",
          "type": "string"
        }
      ],
      "stateMutability": "view",
      "type": "function"
    },
    {
      "inputs": [
        {
          "internalType": "address",
          "name": "owner",
          "type": "address"
        }
      ],
      "name": "tokensOfOwner",
      "outputs": [
        {
          "internalType": "uint256[]",
          "name": "",
          "type": "uint256[]"
        }
      ],
      "stateMutability": "view",
      "type": "function"
    },
    {
      "inputs": [
        {
          "internalType": "address",
          "name": "owner",
          "type": "address"
        },
        {
          "internalType": "uint256",
          "name": "start",
          "type": "uint256"
        },
        {
          "internalType": "uint256",
          "name": "stop",
          "type": "uint256"
        }
      ],
      "name": "tokensOfOwnerIn",
      "outputs": [
        {
          "internalType": "uint256[]",
          "name": "",
          "type": "uint256[]"
        }
      ],
      "stateMutability": "view",
      "type": "function"
    },
    {
      "inputs": [],
      "name": "totalSupply",
      "outputs": [
        {
          "internalType": "uint256",
          "name": "",
          "type": "uint256"
        }
      ],
      "stateMutability": "view",
      "type": "function"
    },
    {
      "inputs": [
        {
          "internalType": "address",
          "name": "from",
          "type": "address"
        },
        {
          "internalType": "address",
          "name": "to",
          "type": "address"
        },
        {
          "internalType": "uint256",
          "name": "tokenId",
          "type": "uint256"
        }
      ],
      "name": "transferFrom",
      "outputs": [],
      "stateMutability": "nonpayable",
      "type": "function"
    },
    {
      "inputs": [
        {
          "internalType": "address",
          "name": "newOwner",
          "type": "address"
        }
      ],
      "name": "transferOwnership",
      "outputs": [],
      "stateMutability": "nonpayable",
      "type": "function"
    },
    {
      "inputs": [],
      "name": "uriPrefix",
      "outputs": [
        {
          "internalType": "string",
          "name": "",
          "type": "string"
        }
      ],
      "stateMutability": "view",
      "type": "function"
    },
    {
      "inputs": [],
      "name": "uriSuffix",
      "outputs": [
        {
          "internalType": "string",
          "name": "",
          "type": "string"
        }
      ],
      "stateMutability": "view",
      "type": "function"
    },
    {
      "inputs": [
        {
          "internalType": "address",
          "name": "",
          "type": "address"
        }
      ],
      "name": "whitelistClaimed",
      "outputs": [
        {
          "internalType": "bool",
          "name": "",
          "type": "bool"
        }
      ],
      "stateMutability": "view",
      "type": "function"
    },
    {
      "inputs": [],
      "name": "whitelistMintEnabled",
      "outputs": [
        {
          "internalType": "bool",
          "name": "",
          "type": "bool"
        }
      ],
      "stateMutability": "view",
      "type": "function"
    },
    {
      "inputs": [
        {
          "internalType": "address",
          "name": "_phan",
          "type": "address"
        },
        {
          "internalType": "uint256",
          "name": "_mintAmount",
          "type": "uint256"
        },
        {
          "internalType": "bytes32[]",
          "name": "_merkleProof",
          "type": "bytes32[]"
        }
      ],
      "name": "whitelistMintLizard",
      "outputs": [],
      "stateMutability": "payable",
      "type": "function"
    }
  ],
  "bytecode": "0x6010805460ff1916905560a06040819052600060808190526200002591601191620003ee565b5060408051808201909152600580825264173539b7b760d91b60209092019182526200005491601291620003ee565b50604051806060016040528060238152602001620043416023913980516200008591601491602090910190620003ee565b506018805461ffff19166001179055348015620000a157600080fd5b50604051620043d9380380620043d9833981016040819052620000c4916200056e565b855186908690620000dd906002906020850190620003ee565b508051620000f3906003906020840190620003ee565b50506001600055506200010633620001c2565b60016009819055506200013e6040518060600160405280603181526020016200438460319139336200021460201b620024601760201c565b6200016e604051806060016040528060248152602001620043b560249139336200021460201b620024601760201c565b600a8054336001600160a01b03199182168117909255600b805490911690911790556200019b8462000265565b6016839055620001ab8262000305565b620001b68162000361565b5050505050506200069e565b600880546001600160a01b038381166001600160a01b0319831681179093556040519116919082907f8be0079c531659141344cd1fd0a4f28419497f9722a3daafe3b4186f6b6457e090600090a35050565b6200026182826040516024016200022d9291906200061b565b60408051601f198184030181529190526020810180516001600160e01b0390811663319af33360e01b17909152620003cd16565b5050565b600a546001600160a01b0316331480620002895750600b546001600160a01b031633145b806200029f57506008546001600160a01b031633145b620003005760405162461bcd60e51b815260206004820152602660248201527f5175616e746567794c616273416363657373436f6e74726f6c3a2041646d696e60448201526573206f6e6c7960d01b60648201526084015b60405180910390fd5b601555565b600b546001600160a01b031633146200035c5760405162461bcd60e51b81526020600482015260236024820152600080516020620043648339815191526044820152626e6c7960e81b6064820152608401620002f7565b601755565b600b546001600160a01b03163314620003b85760405162461bcd60e51b81526020600482015260236024820152600080516020620043648339815191526044820152626e6c7960e81b6064820152608401620002f7565b805162000261906013906020840190620003ee565b80516a636f6e736f6c652e6c6f67602083016000808483855afa5050505050565b828054620003fc9062000661565b90600052602060002090601f0160209004810192826200042057600085556200046b565b82601f106200043b57805160ff19168380011785556200046b565b828001600101855582156200046b579182015b828111156200046b5782518255916020019190600101906200044e565b50620004799291506200047d565b5090565b5b808211156200047957600081556001016200047e565b634e487b7160e01b600052604160045260246000fd5b60005b83811015620004c7578181015183820152602001620004ad565b83811115620004d7576000848401525b50505050565b600082601f830112620004ef57600080fd5b81516001600160401b03808211156200050c576200050c62000494565b604051601f8301601f19908116603f0116810190828211818310171562000537576200053762000494565b816040528381528660208588010111156200055157600080fd5b62000564846020830160208901620004aa565b9695505050505050565b60008060008060008060c087890312156200058857600080fd5b86516001600160401b0380821115620005a057600080fd5b620005ae8a838b01620004dd565b97506020890151915080821115620005c557600080fd5b620005d38a838b01620004dd565b965060408901519550606089015194506080890151935060a0890151915080821115620005ff57600080fd5b506200060e89828a01620004dd565b9150509295509295509295565b60408152600083518060408401526200063c816060850160208801620004aa565b6001600160a01b0393909316602083015250601f91909101601f191601606001919050565b600181811c908216806200067657607f821691505b602082108114156200069857634e487b7160e01b600052602260045260246000fd5b50919050565b613c9380620006ae6000396000f3fe60806040526004361061038c5760003560e01c806370a08231116101dc578063a689be5311610102578063c8b0e68d116100a0578063e985e9c51161006f578063e985e9c514610a35578063f0f4426014610a55578063f2fde38b14610a75578063fe1439b414610a9557600080fd5b8063c8b0e68d146109ba578063d5abeb01146109cf578063db4bec44146109e5578063e0a8085314610a1557600080fd5b8063b88d4fde116100dc578063b88d4fde14610938578063b9c1868514610958578063c23dc68f1461096d578063c87b56dd1461099a57600080fd5b8063a689be53146108d8578063b071401b146108f8578063b767a0981461091857600080fd5b80638886a6ee1161017a57806395d89b411161014957806395d89b411461086e57806399a2557a14610883578063a22cb465146108a3578063a45ba8e7146108c357600080fd5b80638886a6ee146107ed5780638da5cb5b1461080d5780638e7554851461082b57806394354fd01461085857600080fd5b80637cb64759116101b65780637cb64759146107535780637ec4a659146107735780637f7ab7f3146107935780638462151c146107c057600080fd5b806370a08231146106fe578063715018a61461071e5780637b06da401461073357600080fd5b80633b19e84a116102c15780635bbb21771161025f578063686ce3911161022e578063686ce3911461069c5780636caede3d146106b15780636db486e8146106cb5780636dd95f10146106eb57600080fd5b80635bbb2177146106205780635c975abb1461064d57806362b99ad4146106675780636352211e1461067c57600080fd5b806344a0d68a1161029b57806344a0d68a146105ac5780634fdd43cb146105cc57806351830227146105ec5780635503a0e81461060b57600080fd5b80633b19e84a1461056257806342842e0e14610577578063433fac851461059757600080fd5b806316ba10e01161032e57806323b872dd1161030857806323b872dd146104f757806327d7874c146105175780632eb4a7ab146105375780632fc227c31461054d57600080fd5b806316ba10e01461049957806316c38b3c146104b957806318160ddd146104d957600080fd5b8063081812fc1161036a578063081812fc146103fd578063095ea7b31461043557806312bfe49c1461045557806313faede61461047557600080fd5b806301b87ef61461039157806301ffc9a7146103a657806306fdde03146103db575b600080fd5b6103a461039f366004612eff565b610ab5565b005b3480156103b257600080fd5b506103c66103c1366004612f41565b610c8a565b60405190151581526020015b60405180910390f35b3480156103e757600080fd5b506103f0610cdc565b6040516103d29190612fb6565b34801561040957600080fd5b5061041d610418366004612fc9565b610d6e565b6040516001600160a01b0390911681526020016103d2565b34801561044157600080fd5b506103a4610450366004612eff565b610db2565b34801561046157600080fd5b506103a4610470366004612fe2565b610e39565b34801561048157600080fd5b5061048b60155481565b6040519081526020016103d2565b3480156104a557600080fd5b506103a46104b43660046130d3565b610e85565b3480156104c557600080fd5b506103a46104d4366004613129565b610ec6565b3480156104e557600080fd5b5061048b600154600054036000190190565b34801561050357600080fd5b506103a4610512366004613146565b610f03565b34801561052357600080fd5b506103a4610532366004612fe2565b610f0e565b34801561054357600080fd5b5061048b600e5481565b34801561055957600080fd5b506103f0610fa0565b34801561056e57600080fd5b5061041d61102e565b34801561058357600080fd5b506103a4610592366004613146565b611095565b3480156105a357600080fd5b5061041d6110b0565b3480156105b857600080fd5b506103a46105c7366004612fc9565b611117565b3480156105d857600080fd5b506103a46105e73660046130d3565b611170565b3480156105f857600080fd5b506018546103c690610100900460ff1681565b34801561061757600080fd5b506103f06111ad565b34801561062c57600080fd5b5061064061063b3660046131aa565b6111ba565b6040516103d2919061323a565b34801561065957600080fd5b506018546103c69060ff1681565b34801561067357600080fd5b506103f0611280565b34801561068857600080fd5b5061041d610697366004612fc9565b61128d565b3480156106a857600080fd5b5061041d61129f565b3480156106bd57600080fd5b506010546103c69060ff1681565b3480156106d757600080fd5b506103a46106e6366004612fe2565b6112dc565b6103a46106f93660046132a4565b611330565b34801561070a57600080fd5b5061048b610719366004612fe2565b611635565b34801561072a57600080fd5b506103a4611683565b34801561073f57600080fd5b506103a461074e366004612fe2565b6116e9565b34801561075f57600080fd5b506103a461076e366004612fc9565b611735565b34801561077f57600080fd5b506103a461078e3660046130d3565b611764565b34801561079f57600080fd5b506107b36107ae366004612fc9565b6117a1565b6040516103d29190613351565b3480156107cc57600080fd5b506107e06107db366004612fe2565b61183f565b6040516103d29190613447565b3480156107f957600080fd5b506103a4610808366004612eff565b61198c565b34801561081957600080fd5b506008546001600160a01b031661041d565b34801561083757600080fd5b5061084b610846366004612fc9565b611ac0565b6040516103d2919061347f565b34801561086457600080fd5b5061048b60175481565b34801561087a57600080fd5b506103f0611b64565b34801561088f57600080fd5b506107e061089e3660046134e1565b611b73565b3480156108af57600080fd5b506103a46108be366004613516565b611d39565b3480156108cf57600080fd5b506103f0611dcf565b3480156108e457600080fd5b50601a5461041d906001600160a01b031681565b34801561090457600080fd5b506103a4610913366004612fc9565b611ddc565b34801561092457600080fd5b506103a4610933366004613129565b611e0b565b34801561094457600080fd5b506103a461095336600461354f565b611e48565b34801561096457600080fd5b506103a4611e92565b34801561097957600080fd5b5061098d610988366004612fc9565b611f67565b6040516103d291906135ce565b3480156109a657600080fd5b506103f06109b5366004612fc9565b612021565b3480156109c657600080fd5b5061041d61218f565b3480156109db57600080fd5b5061048b60165481565b3480156109f157600080fd5b506103c6610a00366004612fe2565b600f6020526000908152604090205460ff1681565b348015610a2157600080fd5b506103a4610a30366004613129565b6121f6565b348015610a4157600080fd5b506103c6610a50366004613603565b61223a565b348015610a6157600080fd5b506103a4610a70366004612fe2565b612268565b348015610a8157600080fd5b506103a4610a90366004612fe2565b6122e0565b348015610aa157600080fd5b506103a4610ab0366004612fe2565b6123ab565b80600081118015610ac857506017548111155b610aed5760405162461bcd60e51b8152600401610ae490613631565b60405180910390fd5b60165481610b02600154600054036000190190565b610b0c9190613675565b1115610b2a5760405162461bcd60e51b8152600401610ae49061368d565b8180601554610b3991906136bb565b341015610b7e5760405162461bcd60e51b8152602060048201526013602482015272496e73756666696369656e742066756e64732160681b6044820152606401610ae4565b60185460ff1615610bd15760405162461bcd60e51b815260206004820152601760248201527f54686520636f6e747261637420697320706175736564210000000000000000006044820152606401610ae4565b610bdf600d80546001019055565b6000610bea600d5490565b9050610bf685856124a5565b6000610c1a6103e8610c1460216015546124bf90919063ffffffff16565b906124cb565b601854909150610c39906201000090046001600160a01b0316826124d7565b6000610c4483612021565b90507f268b08d15742710b15087dd93f7713e5e48e9648eafa6549133b936957b537a5838289604051610c79939291906136da565b60405180910390a150505050505050565b60006001600160e01b031982166380ac58cd60e01b1480610cbb57506001600160e01b03198216635b5e139f60e01b145b80610cd657506301ffc9a760e01b6001600160e01b03198316145b92915050565b606060028054610ceb9061370b565b80601f0160208091040260200160405190810160405280929190818152602001828054610d179061370b565b8015610d645780601f10610d3957610100808354040283529160200191610d64565b820191906000526020600020905b815481529060010190602001808311610d4757829003601f168201915b5050505050905090565b6000610d79826125f0565b610d96576040516333d1c03960e21b815260040160405180910390fd5b506000908152600660205260409020546001600160a01b031690565b6000610dbd8261128d565b9050806001600160a01b0316836001600160a01b03161415610df25760405163250fdee360e21b815260040160405180910390fd5b336001600160a01b03821614610e2957610e0c813361223a565b610e29576040516367d9dca160e11b815260040160405180910390fd5b610e34838383612629565b505050565b600b546001600160a01b03163314610e635760405162461bcd60e51b8152600401610ae490613746565b601980546001600160a01b0319166001600160a01b0392909216919091179055565b600b546001600160a01b03163314610eaf5760405162461bcd60e51b8152600401610ae490613746565b8051610ec2906012906020840190612e51565b5050565b600b546001600160a01b03163314610ef05760405162461bcd60e51b8152600401610ae490613746565b6018805460ff1916911515919091179055565b610e34838383612685565b600a546001600160a01b03163314610f385760405162461bcd60e51b8152600401610ae490613789565b6001600160a01b038116610f4b57600080fd5b600a80546001600160a01b0319166001600160a01b0383169081179091556040519081527f83430a5ceb5107ce76c0ebe77c43cdc5ddbd9d2269f5c7fe175933cd3d3b2ad8906020015b60405180910390a150565b60148054610fad9061370b565b80601f0160208091040260200160405190810160405280929190818152602001828054610fd99061370b565b80156110265780601f10610ffb57610100808354040283529160200191611026565b820191906000526020600020905b81548152906001019060200180831161100957829003601f168201915b505050505081565b600a546000906001600160a01b03163314806110545750600b546001600160a01b031633145b8061106957506008546001600160a01b031633145b6110855760405162461bcd60e51b8152600401610ae4906137cc565b50600c546001600160a01b031690565b610e3483838360405180602001604052806000815250611e48565b600a546000906001600160a01b03163314806110d65750600b546001600160a01b031633145b806110eb57506008546001600160a01b031633145b6111075760405162461bcd60e51b8152600401610ae4906137cc565b50600b546001600160a01b031690565b600a546001600160a01b031633148061113a5750600b546001600160a01b031633145b8061114f57506008546001600160a01b031633145b61116b5760405162461bcd60e51b8152600401610ae4906137cc565b601555565b600b546001600160a01b0316331461119a5760405162461bcd60e51b8152600401610ae490613746565b8051610ec2906013906020840190612e51565b60128054610fad9061370b565b80516060906000816001600160401b038111156111d9576111d9612fff565b60405190808252806020026020018201604052801561122457816020015b60408051606081018252600080825260208083018290529282015282526000199092019101816111f75790505b50905060005b8281146112785761125385828151811061124657611246613812565b6020026020010151611f67565b82828151811061126557611265613812565b602090810291909101015260010161122a565b509392505050565b60118054610fad9061370b565b600061129882612872565b5192915050565b600b546000906001600160a01b031633146112cc5760405162461bcd60e51b8152600401610ae490613746565b506019546001600160a01b031690565b600b546001600160a01b031633146113065760405162461bcd60e51b8152600401610ae490613746565b601880546001600160a01b03909216620100000262010000600160b01b0319909216919091179055565b8260008111801561134357506017548111155b61135f5760405162461bcd60e51b8152600401610ae490613631565b60165481611374600154600054036000190190565b61137e9190613675565b111561139c5760405162461bcd60e51b8152600401610ae49061368d565b83806015546113ab91906136bb565b3410156113f05760405162461bcd60e51b8152602060048201526013602482015272496e73756666696369656e742066756e64732160681b6044820152606401610ae4565b60105460ff1661144d5760405162461bcd60e51b815260206004820152602260248201527f5468652077686974656c6973742073616c65206973206e6f7420656e61626c65604482015261642160f01b6064820152608401610ae4565b336000908152600f602052604090205460ff16156114ad5760405162461bcd60e51b815260206004820152601860248201527f4164647265737320616c726561647920636c61696d65642100000000000000006044820152606401610ae4565b6040516bffffffffffffffffffffffff193360601b16602082015260009060340160405160208183030381529060405280519060200120905061152785858080602002602001604051908101604052809392919081815260200183836020028082843760009201919091525050600e549150849050612994565b6115645760405162461bcd60e51b815260206004820152600e60248201526d496e76616c69642070726f6f662160901b6044820152606401610ae4565b611572600d80546001019055565b600061157d600d5490565b905061158988886124a5565b6001600160a01b0388166000908152600f60205260408120805460ff191660011790556015546115c2906103e890610c149060216124bf565b6018549091506115e1906201000090046001600160a01b0316826124d7565b60006115ec83612021565b90507f268b08d15742710b15087dd93f7713e5e48e9648eafa6549133b936957b537a583828c604051611621939291906136da565b60405180910390a150505050505050505050565b60006001600160a01b03821661165e576040516323d3ad8160e21b815260040160405180910390fd5b506001600160a01b03166000908152600560205260409020546001600160401b031690565b6008546001600160a01b031633146116dd5760405162461bcd60e51b815260206004820181905260248201527f4f776e61626c653a2063616c6c6572206973206e6f7420746865206f776e65726044820152606401610ae4565b6116e760006129aa565b565b600b546001600160a01b031633146117135760405162461bcd60e51b8152600401610ae490613746565b601a80546001600160a01b0319166001600160a01b0392909216919091179055565b600b546001600160a01b0316331461175f5760405162461bcd60e51b8152600401610ae490613746565b600e55565b600b546001600160a01b0316331461178e5760405162461bcd60e51b8152600401610ae490613746565b8051610ec2906011906020840190612e51565b601a546060906001600160a01b03166117b957919050565b601a5460405163943adee360e01b8152306004820152602481018490526001600160a01b039091169063943adee39060440160006040518083038186803b15801561180357600080fd5b505afa158015611817573d6000803e3d6000fd5b505050506040513d6000823e601f3d908101601f19168201604052610cd69190810190613892565b6060600080600061184f85611635565b90506000816001600160401b0381111561186b5761186b612fff565b604051908082528060200260200182016040528015611894578160200160208202803683370190505b5090506118ba604080516060810182526000808252602082018190529181019190915290565b60015b83861461198057600081815260046020908152604091829020825160608101845290546001600160a01b0381168252600160a01b81046001600160401b031692820192909252600160e01b90910460ff1615801592820192909252925061192357611978565b81516001600160a01b03161561193857815194505b876001600160a01b0316856001600160a01b03161415611978578083878060010198508151811061196b5761196b613812565b6020026020010181815250505b6001016118bd565b50909695505050505050565b8060008111801561199f57506017548111155b6119bb5760405162461bcd60e51b8152600401610ae490613631565b601654816119d0600154600054036000190190565b6119da9190613675565b11156119f85760405162461bcd60e51b8152600401610ae49061368d565b600a546001600160a01b0316331480611a1b5750600b546001600160a01b031633145b80611a3057506008546001600160a01b031633145b611a4c5760405162461bcd60e51b8152600401610ae4906137cc565b611a5a600d80546001019055565b6000611a65600d5490565b9050611a7184846124a5565b6000611a7c82612021565b90507f268b08d15742710b15087dd93f7713e5e48e9648eafa6549133b936957b537a5828287604051611ab1939291906136da565b60405180910390a15050505050565b60185460609060ff61010090910416151560011415611b5f57601954604051632c0df8c560e01b8152306004820152602481018490526001600160a01b0390911690632c0df8c59060440160006040518083038186803b158015611b2357600080fd5b505afa158015611b37573d6000803e3d6000fd5b505050506040513d6000823e601f3d908101601f19168201604052610cd69190810190613a02565b919050565b606060038054610ceb9061370b565b6060818310611b9557604051631960ccad60e11b815260040160405180910390fd5b600080546001851015611ba757600194505b80841115611bb3578093505b6000611bbe87611635565b905084861015611bdd5785850381811015611bd7578091505b50611be1565b5060005b6000816001600160401b03811115611bfb57611bfb612fff565b604051908082528060200260200182016040528015611c24578160200160208202803683370190505b50905081611c37579350611d3292505050565b6000611c4288611f67565b905060008160400151611c53575080515b885b888114158015611c655750848714155b15611d2657600081815260046020908152604091829020825160608101845290546001600160a01b0381168252600160a01b81046001600160401b031692820192909252600160e01b90910460ff16158015928201929092529350611cc957611d1e565b82516001600160a01b031615611cde57825191505b8a6001600160a01b0316826001600160a01b03161415611d1e5780848880600101995081518110611d1157611d11613812565b6020026020010181815250505b600101611c55565b50505092835250909150505b9392505050565b6001600160a01b038216331415611d635760405163b06307db60e01b815260040160405180910390fd5b3360008181526007602090815260408083206001600160a01b03871680855290835292819020805460ff191686151590811790915590519081529192917f17307eab39ab6107e8899845ad3d59bd9653f200f220920489ca2b5937696c31910160405180910390a35050565b60138054610fad9061370b565b600b546001600160a01b03163314611e065760405162461bcd60e51b8152600401610ae490613746565b601755565b600b546001600160a01b03163314611e355760405162461bcd60e51b8152600401610ae490613746565b6010805460ff1916911515919091179055565b611e53848484612685565b6001600160a01b0383163b15611e8c57611e6f848484846129fc565b611e8c576040516368d2bf6b60e11b815260040160405180910390fd5b50505050565b600a546001600160a01b03163314611ebc5760405162461bcd60e51b8152600401610ae490613789565b60026009541415611f0f5760405162461bcd60e51b815260206004820152601f60248201527f5265656e7472616e637947756172643a207265656e7472616e742063616c6c006044820152606401610ae4565b6002600955600c544790611f2c906001600160a01b0316826124d7565b6040518181527f4a37b25aab49761ecf63117fe82b98d750917451133cf797507bc9fb5b96044a9060200160405180910390a1506001600955565b60408051606080820183526000808352602080840182905283850182905284519283018552818352820181905292810192909252906001831080611fad57506000548310155b15611fb85792915050565b50600082815260046020908152604091829020825160608101845290546001600160a01b0381168252600160a01b81046001600160401b031692820192909252600160e01b90910460ff1615801592820192909252906120185792915050565b611d3283612872565b606061202c826125f0565b6120905760405162461bcd60e51b815260206004820152602f60248201527f4552433732314d657461646174613a2055524920717565727920666f72206e6f60448201526e3732bc34b9ba32b73a103a37b5b2b760891b6064820152608401610ae4565b601854610100900460ff1661213157601380546120ac9061370b565b80601f01602080910402602001604051908101604052809291908181526020018280546120d89061370b565b80156121255780601f106120fa57610100808354040283529160200191612125565b820191906000526020600020905b81548152906001019060200180831161210857829003601f168201915b50505050509050919050565b600061213b612af4565b9050600081511161215b5760405180602001604052806000815250611d32565b8061216584612b03565b601260405160200161217993929190613aa5565b6040516020818303038152906040529392505050565b600a546000906001600160a01b03163314806121b55750600b546001600160a01b031633145b806121ca57506008546001600160a01b031633145b6121e65760405162461bcd60e51b8152600401610ae4906137cc565b50600a546001600160a01b031690565b600b546001600160a01b031633146122205760405162461bcd60e51b8152600401610ae490613746565b601880549115156101000261ff0019909216919091179055565b6001600160a01b03918216600090815260076020908152604080832093909416825291909152205460ff1690565b600a546001600160a01b031633146122925760405162461bcd60e51b8152600401610ae490613789565b600c80546001600160a01b0319166001600160a01b0383169081179091556040519081527f7dae230f18360d76a040c81f050aa14eb9d6dc7901b20fc5d855e2a20fe814d190602001610f95565b6008546001600160a01b0316331461233a5760405162461bcd60e51b815260206004820181905260248201527f4f776e61626c653a2063616c6c6572206973206e6f7420746865206f776e65726044820152606401610ae4565b6001600160a01b03811661239f5760405162461bcd60e51b815260206004820152602660248201527f4f776e61626c653a206e6577206f776e657220697320746865207a65726f206160448201526564647265737360d01b6064820152608401610ae4565b6123a8816129aa565b50565b600a546001600160a01b03163314806123ce5750600b546001600160a01b031633145b806123e357506008546001600160a01b031633145b6123ff5760405162461bcd60e51b8152600401610ae4906137cc565b6001600160a01b03811661241257600080fd5b600b80546001600160a01b0319166001600160a01b0383169081179091556040519081527f1f93b83ae610ff0234bc9cdd94f27cc0000fc5c6e4b021ece77a1fcb043df06290602001610f95565b610ec28282604051602401612476929190613b69565b60408051601f198184030181529190526020810180516001600160e01b031663319af33360e01b179052612c00565b610ec2828260405180602001604052806000815250612c21565b6000611d3282846136bb565b6000611d328284613ba9565b804710156125275760405162461bcd60e51b815260206004820152601d60248201527f416464726573733a20696e73756666696369656e742062616c616e63650000006044820152606401610ae4565b6000826001600160a01b03168260405160006040518083038185875af1925050503d8060008114612574576040519150601f19603f3d011682016040523d82523d6000602084013e612579565b606091505b5050905080610e345760405162461bcd60e51b815260206004820152603a60248201527f416464726573733a20756e61626c6520746f2073656e642076616c75652c207260448201527f6563697069656e74206d617920686176652072657665727465640000000000006064820152608401610ae4565b600081600111158015612604575060005482105b8015610cd6575050600090815260046020526040902054600160e01b900460ff161590565b60008281526006602052604080822080546001600160a01b0319166001600160a01b0387811691821790925591518593918516917f8c5be1e5ebec7d5bd14f71427d1e84f3dd0314c0f7b2291e5b200ac8c7c3b92591a4505050565b600061269082612872565b9050836001600160a01b031681600001516001600160a01b0316146126c75760405162a1148160e81b815260040160405180910390fd5b6000336001600160a01b03861614806126e557506126e5853361223a565b806127005750336126f584610d6e565b6001600160a01b0316145b90508061272057604051632ce44b5f60e11b815260040160405180910390fd5b6001600160a01b03841661274757604051633a954ecd60e21b815260040160405180910390fd5b61275360008487612629565b6001600160a01b038581166000908152600560209081526040808320805467ffffffffffffffff198082166001600160401b0392831660001901831617909255898616808652838620805493841693831660019081018416949094179055898652600490945282852080546001600160e01b031916909417600160a01b4290921691909102178355870180845292208054919390911661282757600054821461282757805460208601516001600160401b0316600160a01b026001600160e01b03199091166001600160a01b038a16171781555b50505082846001600160a01b0316866001600160a01b03167fddf252ad1be2c89b69c2b068fc378daa952ba7f163c4a11628f55a4df523b3ef60405160405180910390a45050505050565b6040805160608101825260008082526020820181905291810191909152818060011161297b5760005481101561297b57600081815260046020908152604091829020825160608101845290546001600160a01b0381168252600160a01b81046001600160401b031692820192909252600160e01b90910460ff161515918101829052906129795780516001600160a01b031615612910579392505050565b5060001901600081815260046020908152604091829020825160608101845290546001600160a01b038116808352600160a01b82046001600160401b031693830193909352600160e01b900460ff1615159281019290925215612974579392505050565b612910565b505b604051636f96cda160e11b815260040160405180910390fd5b6000826129a18584612de5565b14949350505050565b600880546001600160a01b038381166001600160a01b0319831681179093556040519116919082907f8be0079c531659141344cd1fd0a4f28419497f9722a3daafe3b4186f6b6457e090600090a35050565b604051630a85bd0160e11b81526000906001600160a01b0385169063150b7a0290612a31903390899088908890600401613bbd565b602060405180830381600087803b158015612a4b57600080fd5b505af1925050508015612a7b575060408051601f3d908101601f19168201909252612a7891810190613bfa565b60015b612ad6573d808015612aa9576040519150601f19603f3d011682016040523d82523d6000602084013e612aae565b606091505b508051612ace576040516368d2bf6b60e11b815260040160405180910390fd5b805181602001fd5b6001600160e01b031916630a85bd0160e11b1490505b949350505050565b606060118054610ceb9061370b565b606081612b275750506040805180820190915260018152600360fc1b602082015290565b8160005b8115612b515780612b3b81613c17565b9150612b4a9050600a83613ba9565b9150612b2b565b6000816001600160401b03811115612b6b57612b6b612fff565b6040519080825280601f01601f191660200182016040528015612b95576020820181803683370190505b5090505b8415612aec57612baa600183613c32565b9150612bb7600a86613c49565b612bc2906030613675565b60f81b818381518110612bd757612bd7613812565b60200101906001600160f81b031916908160001a905350612bf9600a86613ba9565b9450612b99565b80516a636f6e736f6c652e6c6f67602083016000808483855afa5050505050565b6000546001600160a01b038416612c4a57604051622e076360e81b815260040160405180910390fd5b82612c685760405163b562e8dd60e01b815260040160405180910390fd5b6001600160a01b038416600081815260056020908152604080832080546fffffffffffffffffffffffffffffffff1981166001600160401b038083168b0181169182176801000000000000000067ffffffffffffffff1990941690921783900481168b01811690920217909155858452600490925290912080546001600160e01b0319168317600160a01b42909316929092029190911790558190818501903b15612d90575b60405182906001600160a01b038816906000907fddf252ad1be2c89b69c2b068fc378daa952ba7f163c4a11628f55a4df523b3ef908290a4612d5960008784806001019550876129fc565b612d76576040516368d2bf6b60e11b815260040160405180910390fd5b808210612d0e578260005414612d8b57600080fd5b612dd5565b5b6040516001830192906001600160a01b038816906000907fddf252ad1be2c89b69c2b068fc378daa952ba7f163c4a11628f55a4df523b3ef908290a4808210612d91575b506000908155611e8c9085838684565b600081815b8451811015611278576000858281518110612e0757612e07613812565b60200260200101519050808311612e2d5760008381526020829052604090209250612e3e565b600081815260208490526040902092505b5080612e4981613c17565b915050612dea565b828054612e5d9061370b565b90600052602060002090601f016020900481019282612e7f5760008555612ec5565b82601f10612e9857805160ff1916838001178555612ec5565b82800160010185558215612ec5579182015b82811115612ec5578251825591602001919060010190612eaa565b50612ed1929150612ed5565b5090565b5b80821115612ed15760008155600101612ed6565b6001600160a01b03811681146123a857600080fd5b60008060408385031215612f1257600080fd5b8235612f1d81612eea565b946020939093013593505050565b6001600160e01b0319811681146123a857600080fd5b600060208284031215612f5357600080fd5b8135611d3281612f2b565b60005b83811015612f79578181015183820152602001612f61565b83811115611e8c5750506000910152565b60008151808452612fa2816020860160208601612f5e565b601f01601f19169290920160200192915050565b602081526000611d326020830184612f8a565b600060208284031215612fdb57600080fd5b5035919050565b600060208284031215612ff457600080fd5b8135611d3281612eea565b634e487b7160e01b600052604160045260246000fd5b60405161012081016001600160401b038111828210171561303857613038612fff565b60405290565b604051601f8201601f191681016001600160401b038111828210171561306657613066612fff565b604052919050565b60006001600160401b0382111561308757613087612fff565b50601f01601f191660200190565b60006130a86130a38461306e565b61303e565b90508281528383830111156130bc57600080fd5b828260208301376000602084830101529392505050565b6000602082840312156130e557600080fd5b81356001600160401b038111156130fb57600080fd5b8201601f8101841361310c57600080fd5b612aec84823560208401613095565b80151581146123a857600080fd5b60006020828403121561313b57600080fd5b8135611d328161311b565b60008060006060848603121561315b57600080fd5b833561316681612eea565b9250602084013561317681612eea565b929592945050506040919091013590565b60006001600160401b038211156131a0576131a0612fff565b5060051b60200190565b600060208083850312156131bd57600080fd5b82356001600160401b038111156131d357600080fd5b8301601f810185136131e457600080fd5b80356131f26130a382613187565b81815260059190911b8201830190838101908783111561321157600080fd5b928401925b8284101561322f57833582529284019290840190613216565b979650505050505050565b6020808252825182820181905260009190848201906040850190845b818110156119805761329183855180516001600160a01b031682526020808201516001600160401b0316908301526040908101511515910152565b9284019260609290920191600101613256565b600080600080606085870312156132ba57600080fd5b84356132c581612eea565b93506020850135925060408501356001600160401b03808211156132e857600080fd5b818701915087601f8301126132fc57600080fd5b81358181111561330b57600080fd5b8860208260051b850101111561332057600080fd5b95989497505060200194505050565b6004811061334d57634e487b7160e01b600052602160045260246000fd5b9052565b60006020808301818452808551808352604092508286019150828160051b87010184880160005b8381101561343957888303603f19018552815180516001600160a01b031684526101208882015189860152878201516133b38987018261332f565b5060608083015182828801526133cb83880182612f8a565b92505050608080830151868303828801526133e68382612f8a565b9250505060a080830151818701525060c0808301516134088288018215159052565b505060e08281015190860152610100918201516001600160a01b031691909401529386019390860190600101613378565b509098975050505050505050565b6020808252825182820181905260009190848201906040850190845b8181101561198057835183529284019291840191600101613463565b6000602080830181845280855180835260408601915060408160051b870101925083870160005b828110156134d457603f198886030184526134c2858351612f8a565b945092850192908501906001016134a6565b5092979650505050505050565b6000806000606084860312156134f657600080fd5b833561350181612eea565b95602085013595506040909401359392505050565b6000806040838503121561352957600080fd5b823561353481612eea565b915060208301356135448161311b565b809150509250929050565b6000806000806080858703121561356557600080fd5b843561357081612eea565b9350602085013561358081612eea565b92506040850135915060608501356001600160401b038111156135a257600080fd5b8501601f810187136135b357600080fd5b6135c287823560208401613095565b91505092959194509250565b81516001600160a01b031681526020808301516001600160401b03169082015260408083015115159082015260608101610cd6565b6000806040838503121561361657600080fd5b823561362181612eea565b9150602083013561354481612eea565b602080825260149082015273496e76616c6964206d696e7420616d6f756e742160601b604082015260600190565b634e487b7160e01b600052601160045260246000fd5b600082198211156136885761368861365f565b500190565b6020808252601490820152734d617820737570706c792065786365656465642160601b604082015260600190565b60008160001904831182151516156136d5576136d561365f565b500290565b8381526060602082015260006136f36060830185612f8a565b905060018060a01b0383166040830152949350505050565b600181811c9082168061371f57607f821691505b6020821081141561374057634e487b7160e01b600052602260045260246000fd5b50919050565b60208082526023908201527f5175616e746567794c616273416363657373436f6e74726f6c3a2043544f206f6040820152626e6c7960e81b606082015260800190565b60208082526023908201527f5175616e746567794c616273416363657373436f6e74726f6c3a2043454f206f6040820152626e6c7960e81b606082015260800190565b60208082526026908201527f5175616e746567794c616273416363657373436f6e74726f6c3a2041646d696e60408201526573206f6e6c7960d01b606082015260800190565b634e487b7160e01b600052603260045260246000fd5b8051611b5f81612eea565b805160048110611b5f57600080fd5b600082601f83011261385357600080fd5b81516138616130a38261306e565b81815284602083860101111561387657600080fd5b612aec826020830160208701612f5e565b8051611b5f8161311b565b600060208083850312156138a557600080fd5b82516001600160401b03808211156138bc57600080fd5b818501915085601f8301126138d057600080fd5b81516138de6130a382613187565b81815260059190911b830184019084810190888311156138fd57600080fd5b8585015b838110156139f55780518581111561391857600080fd5b8601610120818c03601f190181131561393057600080fd5b613938613015565b6139438a8401613828565b815260408301518a82015261395a60608401613833565b60408201526080830151888111156139725760008081fd5b6139808e8c83870101613842565b60608301525060a0808401518981111561399a5760008081fd5b6139a88f8d83880101613842565b60808401525060c0808501518284015260e091506139c7828601613887565b9083015261010084810151828401526139e1848601613828565b908301525085525050918601918601613901565b5098975050505050505050565b60006020808385031215613a1557600080fd5b82516001600160401b0380821115613a2c57600080fd5b818501915085601f830112613a4057600080fd5b8151613a4e6130a382613187565b81815260059190911b83018401908481019088831115613a6d57600080fd5b8585015b838110156139f557805185811115613a895760008081fd5b613a978b89838a0101613842565b845250918601918601613a71565b600084516020613ab88285838a01612f5e565b855191840191613acb8184848a01612f5e565b8554920191600090600181811c9080831680613ae857607f831692505b858310811415613b0657634e487b7160e01b85526022600452602485fd5b808015613b1a5760018114613b2b57613b58565b60ff19851688528388019550613b58565b60008b81526020902060005b85811015613b505781548a820152908401908801613b37565b505083880195505b50939b9a5050505050505050505050565b604081526000613b7c6040830185612f8a565b905060018060a01b03831660208301529392505050565b634e487b7160e01b600052601260045260246000fd5b600082613bb857613bb8613b93565b500490565b6001600160a01b0385811682528416602082015260408101839052608060608201819052600090613bf090830184612f8a565b9695505050505050565b600060208284031215613c0c57600080fd5b8151611d3281612f2b565b6000600019821415613c2b57613c2b61365f565b5060010190565b600082821015613c4457613c4461365f565b500390565b600082613c5857613c58613b93565b50069056fea264697066735822122060ae5fc3f39a2a4b1b2dc815428ae82418c8037d67c9d68748a419657c70f46e64736f6c634300080900335269676874732055524973206172652068696464656e20756e74696c2072657665616c5175616e746567794c616273416363657373436f6e74726f6c3a2043544f206f4465706c6f79696e67205175616e746567794c616273416363657373436f6e74726f6c20636f6e74726163742066726f6d43454f20616e642043544f2061636365737320686173206265656e20676976656e20746f",
  "linkReferences": {},
  "deployedLinkReferences": {}
}