{
  "_format": "hh-sol-artifact-1",
  "contractName": "EnlightenedLizards",
  "sourceName": "contracts/EnlightenedLizards.sol",
  "abi": [
    {
      "inputs": [
        {
          "internalType": "string",
          "name": "_tokenName",
          "type": "string"
        },
        {
          "internalType": "string",
          "name": "_tokenSymbol",
          "type": "string"
        },
        {
          "internalType": "uint256",
          "name": "_cost",
          "type": "uint256"
        },
        {
          "internalType": "uint256",
          "name": "_maxSupply",
          "type": "uint256"
        },
        {
          "internalType": "uint256",
          "name": "_maxMintAmountPerTx",
          "type": "uint256"
        },
        {
          "internalType": "string",
          "name": "_hiddenMetadataUri",
          "type": "string"
        }
      ],
      "stateMutability": "nonpayable",
      "type": "constructor"
    },
    {
      "inputs": [],
      "name": "ApprovalCallerNotOwnerNorApproved",
      "type": "error"
    },
    {
      "inputs": [],
      "name": "ApprovalQueryForNonexistentToken",
      "type": "error"
    },
    {
      "inputs": [],
      "name": "ApprovalToCurrentOwner",
      "type": "error"
    },
    {
      "inputs": [],
      "name": "ApproveToCaller",
      "type": "error"
    },
    {
      "inputs": [],
      "name": "BalanceQueryForZeroAddress",
      "type": "error"
    },
    {
      "inputs": [],
      "name": "InvalidQueryRange",
      "type": "error"
    },
    {
      "inputs": [],
      "name": "MintToZeroAddress",
      "type": "error"
    },
    {
      "inputs": [],
      "name": "MintZeroQuantity",
      "type": "error"
    },
    {
      "inputs": [],
      "name": "OwnerQueryForNonexistentToken",
      "type": "error"
    },
    {
      "inputs": [],
      "name": "TransferCallerNotOwnerNorApproved",
      "type": "error"
    },
    {
      "inputs": [],
      "name": "TransferFromIncorrectOwner",
      "type": "error"
    },
    {
      "inputs": [],
      "name": "TransferToNonERC721ReceiverImplementer",
      "type": "error"
    },
    {
      "inputs": [],
      "name": "TransferToZeroAddress",
      "type": "error"
    },
    {
      "inputs": [],
      "name": "URIQueryForNonexistentToken",
      "type": "error"
    },
    {
      "anonymous": false,
      "inputs": [
        {
          "indexed": true,
          "internalType": "address",
          "name": "owner",
          "type": "address"
        },
        {
          "indexed": true,
          "internalType": "address",
          "name": "approved",
          "type": "address"
        },
        {
          "indexed": true,
          "internalType": "uint256",
          "name": "tokenId",
          "type": "uint256"
        }
      ],
      "name": "Approval",
      "type": "event"
    },
    {
      "anonymous": false,
      "inputs": [
        {
          "indexed": true,
          "internalType": "address",
          "name": "owner",
          "type": "address"
        },
        {
          "indexed": true,
          "internalType": "address",
          "name": "operator",
          "type": "address"
        },
        {
          "indexed": false,
          "internalType": "bool",
          "name": "approved",
          "type": "bool"
        }
      ],
      "name": "ApprovalForAll",
      "type": "event"
    },
    {
      "anonymous": false,
      "inputs": [
        {
          "indexed": false,
          "internalType": "address",
          "name": "newCEO",
          "type": "address"
        }
      ],
      "name": "CEOUpdated",
      "type": "event"
    },
    {
      "anonymous": false,
      "inputs": [
        {
          "indexed": false,
          "internalType": "address",
          "name": "newCTO",
          "type": "address"
        }
      ],
      "name": "CTOUpdated",
      "type": "event"
    },
    {
      "anonymous": false,
      "inputs": [
        {
          "indexed": false,
          "internalType": "uint256",
          "name": "tokenId",
          "type": "uint256"
        },
        {
          "indexed": false,
          "internalType": "string",
          "name": "key",
          "type": "string"
        },
        {
          "indexed": false,
          "internalType": "address",
          "name": "addedBy",
          "type": "address"
        }
      ],
      "name": "ClaimableAdded",
      "type": "event"
    },
    {
      "anonymous": false,
      "inputs": [
        {
          "indexed": false,
          "internalType": "uint256",
          "name": "tokenId",
          "type": "uint256"
        },
        {
          "indexed": false,
          "internalType": "string",
          "name": "key",
          "type": "string"
        },
        {
          "indexed": false,
          "internalType": "address",
          "name": "claimedBy",
          "type": "address"
        }
      ],
      "name": "ClaimableClaimed",
      "type": "event"
    },
    {
      "anonymous": false,
      "inputs": [
        {
          "indexed": false,
          "internalType": "uint256",
          "name": "tokenId",
          "type": "uint256"
        },
        {
          "indexed": false,
          "internalType": "string",
          "name": "key",
          "type": "string"
        },
        {
          "indexed": false,
          "internalType": "address",
          "name": "deletedBy",
          "type": "address"
        }
      ],
      "name": "ClaimableDeleted",
      "type": "event"
    },
    {
      "anonymous": false,
      "inputs": [
        {
          "indexed": false,
          "internalType": "uint256",
          "name": "balance",
          "type": "uint256"
        }
      ],
      "name": "FundsWithdrawn",
      "type": "event"
    },
    {
      "anonymous": false,
      "inputs": [
        {
          "indexed": false,
          "internalType": "uint256",
          "name": "tokenId",
          "type": "uint256"
        },
        {
          "indexed": false,
          "internalType": "string",
          "name": "tokenURI",
          "type": "string"
        },
        {
          "indexed": false,
          "internalType": "address",
          "name": "phan",
          "type": "address"
        }
      ],
      "name": "NewLizardMinted",
      "type": "event"
    },
    {
      "anonymous": false,
      "inputs": [
        {
          "indexed": true,
          "internalType": "address",
          "name": "previousOwner",
          "type": "address"
        },
        {
          "indexed": true,
          "internalType": "address",
          "name": "newOwner",
          "type": "address"
        }
      ],
      "name": "OwnershipTransferred",
      "type": "event"
    },
    {
      "anonymous": false,
      "inputs": [
        {
          "indexed": false,
          "internalType": "uint256",
          "name": "tokenId",
          "type": "uint256"
        },
        {
          "indexed": false,
          "internalType": "address",
          "name": "phan",
          "type": "address"
        }
      ],
      "name": "PosterItemClaimed",
      "type": "event"
    },
    {
      "anonymous": false,
      "inputs": [
        {
          "indexed": true,
          "internalType": "address",
          "name": "from",
          "type": "address"
        },
        {
          "indexed": true,
          "internalType": "address",
          "name": "to",
          "type": "address"
        },
        {
          "indexed": true,
          "internalType": "uint256",
          "name": "tokenId",
          "type": "uint256"
        }
      ],
      "name": "Transfer",
      "type": "event"
    },
    {
      "anonymous": false,
      "inputs": [
        {
          "indexed": false,
          "internalType": "address",
          "name": "newTreasuryAddress",
          "type": "address"
        }
      ],
      "name": "TreasuryUpdated",
      "type": "event"
    },
    {
      "anonymous": false,
      "inputs": [
        {
          "indexed": false,
          "internalType": "uint256",
          "name": "tokenId",
          "type": "uint256"
        },
        {
          "indexed": false,
          "internalType": "address",
          "name": "phan",
          "type": "address"
        }
      ],
      "name": "WearableItemClaimed",
      "type": "event"
    },
    {
      "inputs": [
        {
          "internalType": "enum Claimables.ClaimableType",
          "name": "_claimableType",
          "type": "uint8"
        },
        {
          "internalType": "string",
          "name": "_key",
          "type": "string"
        },
        {
          "internalType": "string",
          "name": "_name",
          "type": "string"
        }
      ],
      "name": "addClaimableForAllTokens",
      "outputs": [],
      "stateMutability": "nonpayable",
      "type": "function"
    },
    {
      "inputs": [
        {
          "internalType": "address",
          "name": "_receiver",
          "type": "address"
        },
        {
          "internalType": "uint256",
          "name": "_mintAmount",
          "type": "uint256"
        }
      ],
      "name": "adminMintLizard",
      "outputs": [],
      "stateMutability": "nonpayable",
      "type": "function"
    },
    {
      "inputs": [
        {
          "internalType": "address",
          "name": "to",
          "type": "address"
        },
        {
          "internalType": "uint256",
          "name": "tokenId",
          "type": "uint256"
        }
      ],
      "name": "approve",
      "outputs": [],
      "stateMutability": "nonpayable",
      "type": "function"
    },
    {
      "inputs": [
        {
          "internalType": "address",
          "name": "owner",
          "type": "address"
        }
      ],
      "name": "balanceOf",
      "outputs": [
        {
          "internalType": "uint256",
          "name": "",
          "type": "uint256"
        }
      ],
      "stateMutability": "view",
      "type": "function"
    },
    {
      "inputs": [
        {
          "internalType": "uint256",
          "name": "_tokenId",
          "type": "uint256"
        },
        {
          "internalType": "string",
          "name": "_key",
          "type": "string"
        }
      ],
      "name": "claimItemForToken",
      "outputs": [
        {
          "components": [
            {
              "internalType": "enum Claimables.ClaimableType",
              "name": "claimableType",
              "type": "uint8"
            },
            {
              "internalType": "string",
              "name": "key",
              "type": "string"
            },
            {
              "internalType": "string",
              "name": "name",
              "type": "string"
            },
            {
              "internalType": "bool",
              "name": "claimed",
              "type": "bool"
            },
            {
              "internalType": "uint256",
              "name": "claimedAt",
              "type": "uint256"
            },
            {
              "internalType": "address",
              "name": "claimedBy",
              "type": "address"
            }
          ],
          "internalType": "struct Claimables.Claimable",
          "name": "",
          "type": "tuple"
        }
      ],
      "stateMutability": "nonpayable",
      "type": "function"
    },
    {
      "inputs": [],
      "name": "cost",
      "outputs": [
        {
          "internalType": "uint256",
          "name": "",
          "type": "uint256"
        }
      ],
      "stateMutability": "view",
      "type": "function"
    },
    {
      "inputs": [
        {
          "internalType": "uint256",
          "name": "tokenId",
          "type": "uint256"
        }
      ],
      "name": "explicitOwnershipOf",
      "outputs": [
        {
          "components": [
            {
              "internalType": "address",
              "name": "addr",
              "type": "address"
            },
            {
              "internalType": "uint64",
              "name": "startTimestamp",
              "type": "uint64"
            },
            {
              "internalType": "bool",
              "name": "burned",
              "type": "bool"
            }
          ],
          "internalType": "struct IERC721A.TokenOwnership",
          "name": "",
          "type": "tuple"
        }
      ],
      "stateMutability": "view",
      "type": "function"
    },
    {
      "inputs": [
        {
          "internalType": "uint256[]",
          "name": "tokenIds",
          "type": "uint256[]"
        }
      ],
      "name": "explicitOwnershipsOf",
      "outputs": [
        {
          "components": [
            {
              "internalType": "address",
              "name": "addr",
              "type": "address"
            },
            {
              "internalType": "uint64",
              "name": "startTimestamp",
              "type": "uint64"
            },
            {
              "internalType": "bool",
              "name": "burned",
              "type": "bool"
            }
          ],
          "internalType": "struct IERC721A.TokenOwnership[]",
          "name": "",
          "type": "tuple[]"
        }
      ],
      "stateMutability": "view",
      "type": "function"
    },
    {
      "inputs": [],
      "name": "fundTreasury",
      "outputs": [],
      "stateMutability": "nonpayable",
      "type": "function"
    },
    {
      "inputs": [
        {
          "internalType": "uint256",
          "name": "tokenId",
          "type": "uint256"
        }
      ],
      "name": "getApproved",
      "outputs": [
        {
          "internalType": "address",
          "name": "",
          "type": "address"
        }
      ],
      "stateMutability": "view",
      "type": "function"
    },
    {
      "inputs": [],
      "name": "getBank",
      "outputs": [
        {
          "internalType": "address",
          "name": "",
          "type": "address"
        }
      ],
      "stateMutability": "view",
      "type": "function"
    },
    {
      "inputs": [],
      "name": "getCEO",
      "outputs": [
        {
          "internalType": "address",
          "name": "",
          "type": "address"
        }
      ],
      "stateMutability": "view",
      "type": "function"
    },
    {
      "inputs": [],
      "name": "getCTO",
      "outputs": [
        {
          "internalType": "address",
          "name": "",
          "type": "address"
        }
      ],
      "stateMutability": "view",
      "type": "function"
    },
    {
      "inputs": [],
      "name": "getTreasury",
      "outputs": [
        {
          "internalType": "address",
          "name": "",
          "type": "address"
        }
      ],
      "stateMutability": "view",
      "type": "function"
    },
    {
      "inputs": [],
      "name": "hiddenMetadataUri",
      "outputs": [
        {
          "internalType": "string",
          "name": "",
          "type": "string"
        }
      ],
      "stateMutability": "view",
      "type": "function"
    },
    {
      "inputs": [],
      "name": "hiddenRightsUri",
      "outputs": [
        {
          "internalType": "string",
          "name": "",
          "type": "string"
        }
      ],
      "stateMutability": "view",
      "type": "function"
    },
    {
      "inputs": [
        {
          "internalType": "address",
          "name": "owner",
          "type": "address"
        },
        {
          "internalType": "address",
          "name": "operator",
          "type": "address"
        }
      ],
      "name": "isApprovedForAll",
      "outputs": [
        {
          "internalType": "bool",
          "name": "",
          "type": "bool"
        }
      ],
      "stateMutability": "view",
      "type": "function"
    },
    {
      "inputs": [],
      "name": "maxMintAmountPerTx",
      "outputs": [
        {
          "internalType": "uint256",
          "name": "",
          "type": "uint256"
        }
      ],
      "stateMutability": "view",
      "type": "function"
    },
    {
      "inputs": [],
      "name": "maxSupply",
      "outputs": [
        {
          "internalType": "uint256",
          "name": "",
          "type": "uint256"
        }
      ],
      "stateMutability": "view",
      "type": "function"
    },
    {
      "inputs": [],
      "name": "merkleRoot",
      "outputs": [
        {
          "internalType": "bytes32",
          "name": "",
          "type": "bytes32"
        }
      ],
      "stateMutability": "view",
      "type": "function"
    },
    {
      "inputs": [
        {
          "internalType": "address",
          "name": "_phan",
          "type": "address"
        },
        {
          "internalType": "uint256",
          "name": "_mintAmount",
          "type": "uint256"
        }
      ],
      "name": "mintLizard",
      "outputs": [],
      "stateMutability": "payable",
      "type": "function"
    },
    {
      "inputs": [],
      "name": "name",
      "outputs": [
        {
          "internalType": "string",
          "name": "",
          "type": "string"
        }
      ],
      "stateMutability": "view",
      "type": "function"
    },
    {
      "inputs": [],
      "name": "owner",
      "outputs": [
        {
          "internalType": "address",
          "name": "",
          "type": "address"
        }
      ],
      "stateMutability": "view",
      "type": "function"
    },
    {
      "inputs": [
        {
          "internalType": "uint256",
          "name": "tokenId",
          "type": "uint256"
        }
      ],
      "name": "ownerOf",
      "outputs": [
        {
          "internalType": "address",
          "name": "",
          "type": "address"
        }
      ],
      "stateMutability": "view",
      "type": "function"
    },
    {
      "inputs": [],
      "name": "paused",
      "outputs": [
        {
          "internalType": "bool",
          "name": "",
          "type": "bool"
        }
      ],
      "stateMutability": "view",
      "type": "function"
    },
    {
      "inputs": [
        {
          "internalType": "string",
          "name": "_key",
          "type": "string"
        }
      ],
      "name": "removeClaimableForAllTokens",
      "outputs": [],
      "stateMutability": "nonpayable",
      "type": "function"
    },
    {
      "inputs": [
        {
          "internalType": "uint256",
          "name": "_tokenId",
          "type": "uint256"
        },
        {
          "internalType": "string",
          "name": "_key",
          "type": "string"
        }
      ],
      "name": "removeClaimableForToken",
      "outputs": [],
      "stateMutability": "nonpayable",
      "type": "function"
    },
    {
      "inputs": [],
      "name": "renounceOwnership",
      "outputs": [],
      "stateMutability": "nonpayable",
      "type": "function"
    },
    {
      "inputs": [],
      "name": "revealed",
      "outputs": [
        {
          "internalType": "bool",
          "name": "",
          "type": "bool"
        }
      ],
      "stateMutability": "view",
      "type": "function"
    },
    {
      "inputs": [
        {
          "internalType": "uint256",
          "name": "_tokenId",
          "type": "uint256"
        }
      ],
      "name": "rightsURIs",
      "outputs": [
        {
          "internalType": "string[]",
          "name": "tokenRightsUris",
          "type": "string[]"
        }
      ],
      "stateMutability": "view",
      "type": "function"
    },
    {
      "inputs": [
        {
          "internalType": "address",
          "name": "from",
          "type": "address"
        },
        {
          "internalType": "address",
          "name": "to",
          "type": "address"
        },
        {
          "internalType": "uint256",
          "name": "tokenId",
          "type": "uint256"
        }
      ],
      "name": "safeTransferFrom",
      "outputs": [],
      "stateMutability": "nonpayable",
      "type": "function"
    },
    {
      "inputs": [
        {
          "internalType": "address",
          "name": "from",
          "type": "address"
        },
        {
          "internalType": "address",
          "name": "to",
          "type": "address"
        },
        {
          "internalType": "uint256",
          "name": "tokenId",
          "type": "uint256"
        },
        {
          "internalType": "bytes",
          "name": "_data",
          "type": "bytes"
        }
      ],
      "name": "safeTransferFrom",
      "outputs": [],
      "stateMutability": "nonpayable",
      "type": "function"
    },
    {
      "inputs": [
        {
          "internalType": "address",
          "name": "operator",
          "type": "address"
        },
        {
          "internalType": "bool",
          "name": "approved",
          "type": "bool"
        }
      ],
      "name": "setApprovalForAll",
      "outputs": [],
      "stateMutability": "nonpayable",
      "type": "function"
    },
    {
      "inputs": [
        {
          "internalType": "address",
          "name": "_newCEO",
          "type": "address"
        }
      ],
      "name": "setCEO",
      "outputs": [],
      "stateMutability": "nonpayable",
      "type": "function"
    },
    {
      "inputs": [
        {
          "internalType": "address",
          "name": "_newCTO",
          "type": "address"
        }
      ],
      "name": "setCTO",
      "outputs": [],
      "stateMutability": "nonpayable",
      "type": "function"
    },
    {
      "inputs": [
        {
          "internalType": "uint256",
          "name": "_cost",
          "type": "uint256"
        }
      ],
      "name": "setCost",
      "outputs": [],
      "stateMutability": "nonpayable",
      "type": "function"
    },
    {
      "inputs": [
        {
          "internalType": "string",
          "name": "_hiddenMetadataUri",
          "type": "string"
        }
      ],
      "name": "setHiddenMetadataUri",
      "outputs": [],
      "stateMutability": "nonpayable",
      "type": "function"
    },
    {
      "inputs": [
        {
          "internalType": "uint256",
          "name": "_maxMintAmountPerTx",
          "type": "uint256"
        }
      ],
      "name": "setMaxMintAmountPerTx",
      "outputs": [],
      "stateMutability": "nonpayable",
      "type": "function"
    },
    {
      "inputs": [
        {
          "internalType": "bytes32",
          "name": "_merkleRoot",
          "type": "bytes32"
        }
      ],
      "name": "setMerkleRoot",
      "outputs": [],
      "stateMutability": "nonpayable",
      "type": "function"
    },
    {
      "inputs": [
        {
          "internalType": "bool",
          "name": "_state",
          "type": "bool"
        }
      ],
      "name": "setPaused",
      "outputs": [],
      "stateMutability": "nonpayable",
      "type": "function"
    },
    {
      "inputs": [
        {
          "internalType": "bool",
          "name": "_state",
          "type": "bool"
        }
      ],
      "name": "setRevealed",
      "outputs": [],
      "stateMutability": "nonpayable",
      "type": "function"
    },
    {
      "inputs": [
        {
          "internalType": "address payable",
          "name": "rightsFeeRecipient_",
          "type": "address"
        }
      ],
      "name": "setRightsFeeRecipient",
      "outputs": [],
      "stateMutability": "nonpayable",
      "type": "function"
    },
    {
      "inputs": [
        {
          "internalType": "address",
          "name": "rightsProtocolAddr_",
          "type": "address"
        }
      ],
      "name": "setRightsProtocolAddr",
      "outputs": [],
      "stateMutability": "nonpayable",
      "type": "function"
    },
    {
      "inputs": [
        {
          "internalType": "address payable",
          "name": "_treasury",
          "type": "address"
        }
      ],
      "name": "setTreasury",
      "outputs": [],
      "stateMutability": "nonpayable",
      "type": "function"
    },
    {
      "inputs": [
        {
          "internalType": "string",
          "name": "_uriPrefix",
          "type": "string"
        }
      ],
      "name": "setUriPrefix",
      "outputs": [],
      "stateMutability": "nonpayable",
      "type": "function"
    },
    {
      "inputs": [
        {
          "internalType": "string",
          "name": "_uriSuffix",
          "type": "string"
        }
      ],
      "name": "setUriSuffix",
      "outputs": [],
      "stateMutability": "nonpayable",
      "type": "function"
    },
    {
      "inputs": [
        {
          "internalType": "bool",
          "name": "_state",
          "type": "bool"
        }
      ],
      "name": "setWhitelistMintEnabled",
      "outputs": [],
      "stateMutability": "nonpayable",
      "type": "function"
    },
    {
      "inputs": [
        {
          "internalType": "bytes4",
          "name": "interfaceId",
          "type": "bytes4"
        }
      ],
      "name": "supportsInterface",
      "outputs": [
        {
          "internalType": "bool",
          "name": "",
          "type": "bool"
        }
      ],
      "stateMutability": "view",
      "type": "function"
    },
    {
      "inputs": [],
      "name": "symbol",
      "outputs": [
        {
          "internalType": "string",
          "name": "",
          "type": "string"
        }
      ],
      "stateMutability": "view",
      "type": "function"
    },
    {
      "inputs": [
        {
          "internalType": "uint256",
          "name": "",
          "type": "uint256"
        },
        {
          "internalType": "string",
          "name": "",
          "type": "string"
        }
      ],
      "name": "tokenClaimables",
      "outputs": [
        {
          "internalType": "enum Claimables.ClaimableType",
          "name": "claimableType",
          "type": "uint8"
        },
        {
          "internalType": "string",
          "name": "key",
          "type": "string"
        },
        {
          "internalType": "string",
          "name": "name",
          "type": "string"
        },
        {
          "internalType": "bool",
          "name": "claimed",
          "type": "bool"
        },
        {
          "internalType": "uint256",
          "name": "claimedAt",
          "type": "uint256"
        },
        {
          "internalType": "address",
          "name": "claimedBy",
          "type": "address"
        }
      ],
      "stateMutability": "view",
      "type": "function"
    },
    {
      "inputs": [
        {
          "internalType": "uint256",
          "name": "_tokenId",
          "type": "uint256"
        }
      ],
      "name": "tokenURI",
      "outputs": [
        {
          "internalType": "string",
          "name": "",
          "type": "string"
        }
      ],
      "stateMutability": "view",
      "type": "function"
    },
    {
      "inputs": [
        {
          "internalType": "address",
          "name": "owner",
          "type": "address"
        }
      ],
      "name": "tokensOfOwner",
      "outputs": [
        {
          "internalType": "uint256[]",
          "name": "",
          "type": "uint256[]"
        }
      ],
      "stateMutability": "view",
      "type": "function"
    },
    {
      "inputs": [
        {
          "internalType": "address",
          "name": "owner",
          "type": "address"
        },
        {
          "internalType": "uint256",
          "name": "start",
          "type": "uint256"
        },
        {
          "internalType": "uint256",
          "name": "stop",
          "type": "uint256"
        }
      ],
      "name": "tokensOfOwnerIn",
      "outputs": [
        {
          "internalType": "uint256[]",
          "name": "",
          "type": "uint256[]"
        }
      ],
      "stateMutability": "view",
      "type": "function"
    },
    {
      "inputs": [],
      "name": "totalSupply",
      "outputs": [
        {
          "internalType": "uint256",
          "name": "",
          "type": "uint256"
        }
      ],
      "stateMutability": "view",
      "type": "function"
    },
    {
      "inputs": [
        {
          "internalType": "address",
          "name": "from",
          "type": "address"
        },
        {
          "internalType": "address",
          "name": "to",
          "type": "address"
        },
        {
          "internalType": "uint256",
          "name": "tokenId",
          "type": "uint256"
        }
      ],
      "name": "transferFrom",
      "outputs": [],
      "stateMutability": "nonpayable",
      "type": "function"
    },
    {
      "inputs": [
        {
          "internalType": "address",
          "name": "newOwner",
          "type": "address"
        }
      ],
      "name": "transferOwnership",
      "outputs": [],
      "stateMutability": "nonpayable",
      "type": "function"
    },
    {
      "inputs": [],
      "name": "uriPrefix",
      "outputs": [
        {
          "internalType": "string",
          "name": "",
          "type": "string"
        }
      ],
      "stateMutability": "view",
      "type": "function"
    },
    {
      "inputs": [],
      "name": "uriSuffix",
      "outputs": [
        {
          "internalType": "string",
          "name": "",
          "type": "string"
        }
      ],
      "stateMutability": "view",
      "type": "function"
    },
    {
      "inputs": [
        {
          "internalType": "address",
          "name": "",
          "type": "address"
        }
      ],
      "name": "whitelistClaimed",
      "outputs": [
        {
          "internalType": "bool",
          "name": "",
          "type": "bool"
        }
      ],
      "stateMutability": "view",
      "type": "function"
    },
    {
      "inputs": [],
      "name": "whitelistMintEnabled",
      "outputs": [
        {
          "internalType": "bool",
          "name": "",
          "type": "bool"
        }
      ],
      "stateMutability": "view",
      "type": "function"
    },
    {
      "inputs": [
        {
          "internalType": "address",
          "name": "_phan",
          "type": "address"
        },
        {
          "internalType": "uint256",
          "name": "_mintAmount",
          "type": "uint256"
        },
        {
          "internalType": "bytes32[]",
          "name": "_merkleProof",
          "type": "bytes32[]"
        }
      ],
      "name": "whitelistMintLizard",
      "outputs": [],
      "stateMutability": "payable",
      "type": "function"
    }
  ],
  "bytecode": "0x6012805460ff1916905560a06040819052600060808190526200002591601391620003ee565b5060408051808201909152600580825264173539b7b760d91b60209092019182526200005491601491620003ee565b506040518060600160405280602b815260200162004d67602b913980516200008591601691602090910190620003ee565b50601a805461ffff19166001179055348015620000a157600080fd5b5060405162004e0738038062004e07833981016040819052620000c4916200056e565b855186908690620000dd906002906020850190620003ee565b508051620000f3906003906020840190620003ee565b50506001600055506200010633620001c2565b60016009819055506200013e60405180606001604052806031815260200162004db260319139336200021460201b62002c0c1760201c565b6200016e60405180606001604052806024815260200162004de360249139336200021460201b62002c0c1760201c565b600a8054336001600160a01b03199182168117909255600b805490911690911790556200019b8462000265565b6018839055620001ab8262000305565b620001b68162000361565b5050505050506200069e565b600880546001600160a01b038381166001600160a01b0319831681179093556040519116919082907f8be0079c531659141344cd1fd0a4f28419497f9722a3daafe3b4186f6b6457e090600090a35050565b6200026182826040516024016200022d9291906200061b565b60408051601f198184030181529190526020810180516001600160e01b0390811663319af33360e01b17909152620003cd16565b5050565b600a546001600160a01b0316331480620002895750600b546001600160a01b031633145b806200029f57506008546001600160a01b031633145b620003005760405162461bcd60e51b815260206004820152602660248201527f5175616e746567794c616273416363657373436f6e74726f6c3a2041646d696e60448201526573206f6e6c7960d01b60648201526084015b60405180910390fd5b601755565b600b546001600160a01b031633146200035c5760405162461bcd60e51b8152602060048201526023602482015260008051602062004d928339815191526044820152626e6c7960e81b6064820152608401620002f7565b601955565b600b546001600160a01b03163314620003b85760405162461bcd60e51b8152602060048201526023602482015260008051602062004d928339815191526044820152626e6c7960e81b6064820152608401620002f7565b805162000261906015906020840190620003ee565b80516a636f6e736f6c652e6c6f67602083016000808483855afa5050505050565b828054620003fc9062000661565b90600052602060002090601f0160209004810192826200042057600085556200046b565b82601f106200043b57805160ff19168380011785556200046b565b828001600101855582156200046b579182015b828111156200046b5782518255916020019190600101906200044e565b50620004799291506200047d565b5090565b5b808211156200047957600081556001016200047e565b634e487b7160e01b600052604160045260246000fd5b60005b83811015620004c7578181015183820152602001620004ad565b83811115620004d7576000848401525b50505050565b600082601f830112620004ef57600080fd5b81516001600160401b03808211156200050c576200050c62000494565b604051601f8301601f19908116603f0116810190828211818310171562000537576200053762000494565b816040528381528660208588010111156200055157600080fd5b62000564846020830160208901620004aa565b9695505050505050565b60008060008060008060c087890312156200058857600080fd5b86516001600160401b0380821115620005a057600080fd5b620005ae8a838b01620004dd565b97506020890151915080821115620005c557600080fd5b620005d38a838b01620004dd565b965060408901519550606089015194506080890151935060a0890151915080821115620005ff57600080fd5b506200060e89828a01620004dd565b9150509295509295509295565b60408152600083518060408401526200063c816060850160208801620004aa565b6001600160a01b0393909316602083015250601f91909101601f191601606001919050565b600181811c908216806200067657607f821691505b602082108114156200069857634e487b7160e01b600052602260045260246000fd5b50919050565b6146b980620006ae6000396000f3fe6080604052600436106103a25760003560e01c806370a08231116101e7578063b767a0981161010d578063d737094d116100a0578063e985e9c51161006f578063e985e9c514610a9d578063f0f4426014610abd578063f2fde38b14610add578063fe1439b414610afd57600080fd5b8063d737094d146109fb578063db4bec4414610a2d578063dc4104c314610a5d578063e0a8085314610a7d57600080fd5b8063c87b56dd116100dc578063c87b56dd14610983578063c8b0e68d146109a3578063cc72bcd5146109b8578063d5abeb01146109e557600080fd5b8063b767a09814610901578063b88d4fde14610921578063b9c1868514610941578063c23dc68f1461095657600080fd5b80638e75548511610185578063a22cb46511610154578063a22cb4651461088c578063a45ba8e7146108ac578063a5af871d146108c1578063b071401b146108e157600080fd5b80638e7554851461081457806394354fd01461084157806395d89b411461085757806399a2557a1461086c57600080fd5b80637ec4a659116101c15780637ec4a659146107895780638462151c146107a95780638886a6ee146107d65780638da5cb5b146107f657600080fd5b806370a0823114610734578063715018a6146107545780637cb647591461076957600080fd5b806342842e0e116102cc5780635c975abb1161026a578063662d284111610239578063662d2841146106c75780636caede3d146106e75780636db486e8146107015780636dd95f101461072157600080fd5b80635c975abb1461066357806360d704db1461067d57806362b99ad4146106925780636352211e146106a757600080fd5b80634fdd43cb116102a65780634fdd43cb146105e257806351830227146106025780635503a0e8146106215780635bbb21771461063657600080fd5b806342842e0e1461058d578063433fac85146105ad57806344a0d68a146105c257600080fd5b806316c38b3c116103445780632eb4a7ab116103135780632eb4a7ab1461052d5780632fc227c3146105435780633b19e84a146105585780633f02847c1461056d57600080fd5b806316c38b3c146104af57806318160ddd146104cf57806323b872dd146104ed57806327d7874c1461050d57600080fd5b8063081812fc11610380578063081812fc14610413578063095ea7b31461044b57806313faede61461046b57806316ba10e01461048f57600080fd5b806301b87ef6146103a757806301ffc9a7146103bc57806306fdde03146103f1575b600080fd5b6103ba6103b53660046138e7565b610b1d565b005b3480156103c857600080fd5b506103dc6103d7366004613929565b610d0d565b60405190151581526020015b60405180910390f35b3480156103fd57600080fd5b50610406610d5f565b6040516103e8919061399e565b34801561041f57600080fd5b5061043361042e3660046139b1565b610df1565b6040516001600160a01b0390911681526020016103e8565b34801561045757600080fd5b506103ba6104663660046138e7565b610e35565b34801561047757600080fd5b5061048160175481565b6040519081526020016103e8565b34801561049b57600080fd5b506103ba6104aa366004613a95565b610ebc565b3480156104bb57600080fd5b506103ba6104ca366004613ad9565b610efd565b3480156104db57600080fd5b50610481600154600054036000190190565b3480156104f957600080fd5b506103ba610508366004613af4565b610f3a565b34801561051957600080fd5b506103ba610528366004613b35565b610f45565b34801561053957600080fd5b5061048160105481565b34801561054f57600080fd5b50610406610fd7565b34801561056457600080fd5b50610433611065565b34801561057957600080fd5b506103ba610588366004613b35565b6110cc565b34801561059957600080fd5b506103ba6105a8366004613af4565b611118565b3480156105b957600080fd5b50610433611133565b3480156105ce57600080fd5b506103ba6105dd3660046139b1565b61119a565b3480156105ee57600080fd5b506103ba6105fd366004613a95565b6111f3565b34801561060e57600080fd5b50601a546103dc90610100900460ff1681565b34801561062d57600080fd5b50610406611230565b34801561064257600080fd5b50610656610651366004613b75565b61123d565b6040516103e89190613c05565b34801561066f57600080fd5b50601a546103dc9060ff1681565b34801561068957600080fd5b50610433611303565b34801561069e57600080fd5b506104066113a6565b3480156106b357600080fd5b506104336106c23660046139b1565b6113b3565b3480156106d357600080fd5b506103ba6106e2366004613c6f565b6113c5565b3480156106f357600080fd5b506012546103dc9060ff1681565b34801561070d57600080fd5b506103ba61071c366004613b35565b611450565b6103ba61072f366004613ce8565b6114a4565b34801561074057600080fd5b5061048161074f366004613b35565b6117a9565b34801561076057600080fd5b506103ba6117f7565b34801561077557600080fd5b506103ba6107843660046139b1565b61185d565b34801561079557600080fd5b506103ba6107a4366004613a95565b61188c565b3480156107b557600080fd5b506107c96107c4366004613b35565b6118c9565b6040516103e89190613d73565b3480156107e257600080fd5b506103ba6107f13660046138e7565b611a16565b34801561080257600080fd5b506008546001600160a01b0316610433565b34801561082057600080fd5b5061083461082f3660046139b1565b611ae0565b6040516103e89190613dab565b34801561084d57600080fd5b5061048160195481565b34801561086357600080fd5b50610406611b84565b34801561087857600080fd5b506107c9610887366004613e0d565b611b93565b34801561089857600080fd5b506103ba6108a7366004613e42565b611d59565b3480156108b857600080fd5b50610406611def565b3480156108cd57600080fd5b506103ba6108dc366004613e77565b611dfc565b3480156108ed57600080fd5b506103ba6108fc3660046139b1565b611f05565b34801561090d57600080fd5b506103ba61091c366004613ad9565b611f34565b34801561092d57600080fd5b506103ba61093c366004613ebd565b611f71565b34801561094d57600080fd5b506103ba611fb5565b34801561096257600080fd5b506109766109713660046139b1565b61214b565b6040516103e89190613f3c565b34801561098f57600080fd5b5061040661099e3660046139b1565b612205565b3480156109af57600080fd5b50610433612373565b3480156109c457600080fd5b506109d86109d3366004613f71565b6123da565b6040516103e89190614024565b3480156109f157600080fd5b5061048160185481565b348015610a0757600080fd5b50610a1b610a16366004613e77565b6127ac565b6040516103e8969594939291906140a3565b348015610a3957600080fd5b506103dc610a48366004613b35565b60116020526000908152604090205460ff1681565b348015610a6957600080fd5b506103ba610a78366004613a95565b612920565b348015610a8957600080fd5b506103ba610a98366004613ad9565b6129a2565b348015610aa957600080fd5b506103dc610ab83660046140fd565b6129e6565b348015610ac957600080fd5b506103ba610ad8366004613b35565b612a14565b348015610ae957600080fd5b506103ba610af8366004613b35565b612a8c565b348015610b0957600080fd5b506103ba610b18366004613b35565b612b57565b80600081118015610b3057506019548111155b610b555760405162461bcd60e51b8152600401610b4c90614136565b60405180910390fd5b60185481610b6a600154600054036000190190565b610b74919061417a565b1115610b925760405162461bcd60e51b8152600401610b4c90614192565b8180601754610ba191906141c0565b341015610be65760405162461bcd60e51b8152602060048201526013602482015272496e73756666696369656e742066756e64732160681b6044820152606401610b4c565b601a5460ff1615610c395760405162461bcd60e51b815260206004820152601760248201527f54686520636f6e747261637420697320706175736564210000000000000000006044820152606401610b4c565b610c47600f80546001019055565b6000610c52600f5490565b9050610c5e8585612c51565b6001600160a01b0385166000908152601160205260408120805460ff19166001179055601754610c9d906103e890610c97906021612c6b565b90612c77565b601a54909150610cbc906201000090046001600160a01b031682612c83565b6000610cc783612205565b90507f268b08d15742710b15087dd93f7713e5e48e9648eafa6549133b936957b537a5838289604051610cfc939291906141df565b60405180910390a150505050505050565b60006001600160e01b031982166380ac58cd60e01b1480610d3e57506001600160e01b03198216635b5e139f60e01b145b80610d5957506301ffc9a760e01b6001600160e01b03198316145b92915050565b606060028054610d6e90614210565b80601f0160208091040260200160405190810160405280929190818152602001828054610d9a90614210565b8015610de75780601f10610dbc57610100808354040283529160200191610de7565b820191906000526020600020905b815481529060010190602001808311610dca57829003601f168201915b5050505050905090565b6000610dfc82612d9c565b610e19576040516333d1c03960e21b815260040160405180910390fd5b506000908152600660205260409020546001600160a01b031690565b6000610e40826113b3565b9050806001600160a01b0316836001600160a01b03161415610e755760405163250fdee360e21b815260040160405180910390fd5b336001600160a01b03821614610eac57610e8f81336129e6565b610eac576040516367d9dca160e11b815260040160405180910390fd5b610eb7838383612dd5565b505050565b600b546001600160a01b03163314610ee65760405162461bcd60e51b8152600401610b4c9061424b565b8051610ef99060149060208401906137bd565b5050565b600b546001600160a01b03163314610f275760405162461bcd60e51b8152600401610b4c9061424b565b601a805460ff1916911515919091179055565b610eb7838383612e31565b600a546001600160a01b03163314610f6f5760405162461bcd60e51b8152600401610b4c9061428e565b6001600160a01b038116610f8257600080fd5b600a80546001600160a01b0319166001600160a01b0383169081179091556040519081527f83430a5ceb5107ce76c0ebe77c43cdc5ddbd9d2269f5c7fe175933cd3d3b2ad8906020015b60405180910390a150565b60168054610fe490614210565b80601f016020809104026020016040519081016040528092919081815260200182805461101090614210565b801561105d5780601f106110325761010080835404028352916020019161105d565b820191906000526020600020905b81548152906001019060200180831161104057829003601f168201915b505050505081565b600a546000906001600160a01b031633148061108b5750600b546001600160a01b031633145b806110a057506008546001600160a01b031633145b6110bc5760405162461bcd60e51b8152600401610b4c906142d1565b50600c546001600160a01b031690565b600b546001600160a01b031633146110f65760405162461bcd60e51b8152600401610b4c9061424b565b601b80546001600160a01b0319166001600160a01b0392909216919091179055565b610eb783838360405180602001604052806000815250611f71565b600a546000906001600160a01b03163314806111595750600b546001600160a01b031633145b8061116e57506008546001600160a01b031633145b61118a5760405162461bcd60e51b8152600401610b4c906142d1565b50600b546001600160a01b031690565b600a546001600160a01b03163314806111bd5750600b546001600160a01b031633145b806111d257506008546001600160a01b031633145b6111ee5760405162461bcd60e51b8152600401610b4c906142d1565b601755565b600b546001600160a01b0316331461121d5760405162461bcd60e51b8152600401610b4c9061424b565b8051610ef99060159060208401906137bd565b60148054610fe490614210565b80516060906000816001600160401b0381111561125c5761125c6139ca565b6040519080825280602002602001820160405280156112a757816020015b604080516060810182526000808252602080830182905292820152825260001990920191018161127a5790505b50905060005b8281146112fb576112d68582815181106112c9576112c9614317565b602002602001015161214b565b8282815181106112e8576112e8614317565b60209081029190910101526001016112ad565b509392505050565b600b546000906001600160a01b031633146113305760405162461bcd60e51b8152600401610b4c9061424b565b306001600160a01b0316633b19e84a6040518163ffffffff1660e01b815260040160206040518083038186803b15801561136957600080fd5b505afa15801561137d573d6000803e3d6000fd5b505050506040513d601f19601f820116820180604052508101906113a1919061432d565b905090565b60138054610fe490614210565b60006113be8261301e565b5192915050565b600a546001600160a01b03163314806113e85750600b546001600160a01b031633145b806113fd57506008546001600160a01b031633145b6114195760405162461bcd60e51b8152600401610b4c906142d1565b60015b600e548160ff161161144a576114378160ff16858585613140565b50806114428161434a565b91505061141c565b50505050565b600b546001600160a01b0316331461147a5760405162461bcd60e51b8152600401610b4c9061424b565b601a80546001600160a01b03909216620100000262010000600160b01b0319909216919091179055565b826000811180156114b757506019548111155b6114d35760405162461bcd60e51b8152600401610b4c90614136565b601854816114e8600154600054036000190190565b6114f2919061417a565b11156115105760405162461bcd60e51b8152600401610b4c90614192565b838060175461151f91906141c0565b3410156115645760405162461bcd60e51b8152602060048201526013602482015272496e73756666696369656e742066756e64732160681b6044820152606401610b4c565b60125460ff166115c15760405162461bcd60e51b815260206004820152602260248201527f5468652077686974656c6973742073616c65206973206e6f7420656e61626c65604482015261642160f01b6064820152608401610b4c565b3360009081526011602052604090205460ff16156116215760405162461bcd60e51b815260206004820152601860248201527f4164647265737320616c726561647920636c61696d65642100000000000000006044820152606401610b4c565b6040516bffffffffffffffffffffffff193360601b16602082015260009060340160405160208183030381529060405280519060200120905061169b858580806020026020016040519081016040528093929190818152602001838360200280828437600092019190915250506010549150849050613304565b6116d85760405162461bcd60e51b815260206004820152600e60248201526d496e76616c69642070726f6f662160901b6044820152606401610b4c565b6116e6600f80546001019055565b60006116f1600f5490565b90506116fd8888612c51565b6001600160a01b0388166000908152601160205260408120805460ff19166001179055601754611736906103e890610c97906021612c6b565b601a54909150611755906201000090046001600160a01b031682612c83565b600061176083612205565b90507f268b08d15742710b15087dd93f7713e5e48e9648eafa6549133b936957b537a583828c604051611795939291906141df565b60405180910390a150505050505050505050565b60006001600160a01b0382166117d2576040516323d3ad8160e21b815260040160405180910390fd5b506001600160a01b03166000908152600560205260409020546001600160401b031690565b6008546001600160a01b031633146118515760405162461bcd60e51b815260206004820181905260248201527f4f776e61626c653a2063616c6c6572206973206e6f7420746865206f776e65726044820152606401610b4c565b61185b600061331a565b565b600b546001600160a01b031633146118875760405162461bcd60e51b8152600401610b4c9061424b565b601055565b600b546001600160a01b031633146118b65760405162461bcd60e51b8152600401610b4c9061424b565b8051610ef99060139060208401906137bd565b606060008060006118d9856117a9565b90506000816001600160401b038111156118f5576118f56139ca565b60405190808252806020026020018201604052801561191e578160200160208202803683370190505b509050611944604080516060810182526000808252602082018190529181019190915290565b60015b838614611a0a57600081815260046020908152604091829020825160608101845290546001600160a01b0381168252600160a01b81046001600160401b031692820192909252600160e01b90910460ff161580159282019290925292506119ad57611a02565b81516001600160a01b0316156119c257815194505b876001600160a01b0316856001600160a01b03161415611a0257808387806001019850815181106119f5576119f5614317565b6020026020010181815250505b600101611947565b50909695505050505050565b80600081118015611a2957506019548111155b611a455760405162461bcd60e51b8152600401610b4c90614136565b60185481611a5a600154600054036000190190565b611a64919061417a565b1115611a825760405162461bcd60e51b8152600401610b4c90614192565b600a546001600160a01b0316331480611aa55750600b546001600160a01b031633145b80611aba57506008546001600160a01b031633145b611ad65760405162461bcd60e51b8152600401610b4c906142d1565b610eb78383612c51565b601a5460609060ff61010090910416151560011415611b7f57601b54604051632c0df8c560e01b8152306004820152602481018490526001600160a01b0390911690632c0df8c59060440160006040518083038186803b158015611b4357600080fd5b505afa158015611b57573d6000803e3d6000fd5b505050506040513d6000823e601f3d908101601f19168201604052610d59919081019061436a565b919050565b606060038054610d6e90614210565b6060818310611bb557604051631960ccad60e11b815260040160405180910390fd5b600080546001851015611bc757600194505b80841115611bd3578093505b6000611bde876117a9565b905084861015611bfd5785850381811015611bf7578091505b50611c01565b5060005b6000816001600160401b03811115611c1b57611c1b6139ca565b604051908082528060200260200182016040528015611c44578160200160208202803683370190505b50905081611c57579350611d5292505050565b6000611c628861214b565b905060008160400151611c73575080515b885b888114158015611c855750848714155b15611d4657600081815260046020908152604091829020825160608101845290546001600160a01b0381168252600160a01b81046001600160401b031692820192909252600160e01b90910460ff16158015928201929092529350611ce957611d3e565b82516001600160a01b031615611cfe57825191505b8a6001600160a01b0316826001600160a01b03161415611d3e5780848880600101995081518110611d3157611d31614317565b6020026020010181815250505b600101611c75565b50505092835250909150505b9392505050565b6001600160a01b038216331415611d835760405163b06307db60e01b815260040160405180910390fd5b3360008181526007602090815260408083206001600160a01b03871680855290835292819020805460ff191686151590811790915590519081529192917f17307eab39ab6107e8899845ad3d59bd9653f200f220920489ca2b5937696c31910160405180910390a35050565b60158054610fe490614210565b600a546001600160a01b0316331480611e1f5750600b546001600160a01b031633145b80611e3457506008546001600160a01b031633145b611e505760405162461bcd60e51b8152600401610b4c906142d1565b6000828152600d6020526040908190209051611e6d908390614456565b908152604051908190036020019020805460ff191681556000611e936001830182613841565b611ea1600283016000613841565b5060038101805460ff191690556000600482015560050180546001600160a01b03191690557fbf024659055c0ecc9487db128b2e3ddc0e60ab4ddec3bccc4b23a6e250687f31828233604051611ef9939291906141df565b60405180910390a15050565b600b546001600160a01b03163314611f2f5760405162461bcd60e51b8152600401610b4c9061424b565b601955565b600b546001600160a01b03163314611f5e5760405162461bcd60e51b8152600401610b4c9061424b565b6012805460ff1916911515919091179055565b611f7c848484612e31565b6001600160a01b0383163b1561144a57611f988484848461336c565b61144a576040516368d2bf6b60e11b815260040160405180910390fd5b600a546001600160a01b03163314611fdf5760405162461bcd60e51b8152600401610b4c9061428e565b600260095414156120325760405162461bcd60e51b815260206004820152601f60248201527f5265656e7472616e637947756172643a207265656e7472616e742063616c6c006044820152606401610b4c565b600260098190555060004790506000306001600160a01b0316633b19e84a6040518163ffffffff1660e01b815260040160206040518083038186803b15801561207a57600080fd5b505afa15801561208e573d6000803e3d6000fd5b505050506040513d601f19601f820116820180604052508101906120b2919061432d565b6001600160a01b03168260405160006040518083038185875af1925050503d80600081146120fc576040519150601f19603f3d011682016040523d82523d6000602084013e612101565b606091505b505090508061210f57600080fd5b6040518281527f4a37b25aab49761ecf63117fe82b98d750917451133cf797507bc9fb5b96044a9060200160405180910390a150506001600955565b6040805160608082018352600080835260208084018290528385018290528451928301855281835282018190529281019290925290600183108061219157506000548310155b1561219c5792915050565b50600082815260046020908152604091829020825160608101845290546001600160a01b0381168252600160a01b81046001600160401b031692820192909252600160e01b90910460ff1615801592820192909252906121fc5792915050565b611d528361301e565b606061221082612d9c565b6122745760405162461bcd60e51b815260206004820152602f60248201527f4552433732314d657461646174613a2055524920717565727920666f72206e6f60448201526e3732bc34b9ba32b73a103a37b5b2b760891b6064820152608401610b4c565b601a54610100900460ff16612315576015805461229090614210565b80601f01602080910402602001604051908101604052809291908181526020018280546122bc90614210565b80156123095780601f106122de57610100808354040283529160200191612309565b820191906000526020600020905b8154815290600101906020018083116122ec57829003601f168201915b50505050509050919050565b600061231f613460565b9050600081511161233f5760405180602001604052806000815250611d52565b806123498461346f565b601460405160200161235d93929190614472565b6040516020818303038152906040529392505050565b600a546000906001600160a01b03163314806123995750600b546001600160a01b031633145b806123ae57506008546001600160a01b031633145b6123ca5760405162461bcd60e51b8152600401610b4c906142d1565b50600a546001600160a01b031690565b6123e261387b565b6000848152600d602052604080822090516124009086908690614536565b9081526040805191829003602001822060c083019091528054829060ff16600281111561242f5761242f613fec565b600281111561244057612440613fec565b815260200160018201805461245490614210565b80601f016020809104026020016040519081016040528092919081815260200182805461248090614210565b80156124cd5780601f106124a2576101008083540402835291602001916124cd565b820191906000526020600020905b8154815290600101906020018083116124b057829003601f168201915b505050505081526020016002820180546124e690614210565b80601f016020809104026020016040519081016040528092919081815260200182805461251290614210565b801561255f5780601f106125345761010080835404028352916020019161255f565b820191906000526020600020905b81548152906001019060200180831161254257829003601f168201915b5050509183525050600382015460ff1615156020820152600482015460408201526005909101546001600160a01b03166060918201526001908201529050336001600160a01b031660a08201524260808201527f3d9e288e57affd236b62a17f5bbbee7bdb87930e804a793e3d15a104712b8cdb858585336040516125e79493929190614546565b60405180910390a16000858152600d602052604090819020905161260e9086908690614536565b9081526040805191829003602001822060c083019091528054829060ff16600281111561263d5761263d613fec565b600281111561264e5761264e613fec565b815260200160018201805461266290614210565b80601f016020809104026020016040519081016040528092919081815260200182805461268e90614210565b80156126db5780601f106126b0576101008083540402835291602001916126db565b820191906000526020600020905b8154815290600101906020018083116126be57829003601f168201915b505050505081526020016002820180546126f490614210565b80601f016020809104026020016040519081016040528092919081815260200182805461272090614210565b801561276d5780601f106127425761010080835404028352916020019161276d565b820191906000526020600020905b81548152906001019060200180831161275057829003601f168201915b5050509183525050600382015460ff1615156020820152600482015460408201526005909101546001600160a01b031660609091015295945050505050565b600d60209081526000928352604090922081518083018401805192815290840192909301919091209152805460018201805460ff90921692916127ee90614210565b80601f016020809104026020016040519081016040528092919081815260200182805461281a90614210565b80156128675780601f1061283c57610100808354040283529160200191612867565b820191906000526020600020905b81548152906001019060200180831161284a57829003601f168201915b50505050509080600201805461287c90614210565b80601f01602080910402602001604051908101604052809291908181526020018280546128a890614210565b80156128f55780601f106128ca576101008083540402835291602001916128f5565b820191906000526020600020905b8154815290600101906020018083116128d857829003601f168201915b5050505060038301546004840154600590940154929360ff909116929091506001600160a01b031686565b600a546001600160a01b03163314806129435750600b546001600160a01b031633145b8061295857506008546001600160a01b031633145b6129745760405162461bcd60e51b8152600401610b4c906142d1565b60015b600e548160ff1611610ef9576129908160ff1683611dfc565b8061299a8161434a565b915050612977565b600b546001600160a01b031633146129cc5760405162461bcd60e51b8152600401610b4c9061424b565b601a80549115156101000261ff0019909216919091179055565b6001600160a01b03918216600090815260076020908152604080832093909416825291909152205460ff1690565b600a546001600160a01b03163314612a3e5760405162461bcd60e51b8152600401610b4c9061428e565b600c80546001600160a01b0319166001600160a01b0383169081179091556040519081527f7dae230f18360d76a040c81f050aa14eb9d6dc7901b20fc5d855e2a20fe814d190602001610fcc565b6008546001600160a01b03163314612ae65760405162461bcd60e51b815260206004820181905260248201527f4f776e61626c653a2063616c6c6572206973206e6f7420746865206f776e65726044820152606401610b4c565b6001600160a01b038116612b4b5760405162461bcd60e51b815260206004820152602660248201527f4f776e61626c653a206e6577206f776e657220697320746865207a65726f206160448201526564647265737360d01b6064820152608401610b4c565b612b548161331a565b50565b600a546001600160a01b0316331480612b7a5750600b546001600160a01b031633145b80612b8f57506008546001600160a01b031633145b612bab5760405162461bcd60e51b8152600401610b4c906142d1565b6001600160a01b038116612bbe57600080fd5b600b80546001600160a01b0319166001600160a01b0383169081179091556040519081527f1f93b83ae610ff0234bc9cdd94f27cc0000fc5c6e4b021ece77a1fcb043df06290602001610fcc565b610ef98282604051602401612c2292919061458f565b60408051601f198184030181529190526020810180516001600160e01b031663319af33360e01b17905261356c565b610ef982826040518060200160405280600081525061358d565b6000611d5282846141c0565b6000611d5282846145cf565b80471015612cd35760405162461bcd60e51b815260206004820152601d60248201527f416464726573733a20696e73756666696369656e742062616c616e63650000006044820152606401610b4c565b6000826001600160a01b03168260405160006040518083038185875af1925050503d8060008114612d20576040519150601f19603f3d011682016040523d82523d6000602084013e612d25565b606091505b5050905080610eb75760405162461bcd60e51b815260206004820152603a60248201527f416464726573733a20756e61626c6520746f2073656e642076616c75652c207260448201527f6563697069656e74206d617920686176652072657665727465640000000000006064820152608401610b4c565b600081600111158015612db0575060005482105b8015610d59575050600090815260046020526040902054600160e01b900460ff161590565b60008281526006602052604080822080546001600160a01b0319166001600160a01b0387811691821790925591518593918516917f8c5be1e5ebec7d5bd14f71427d1e84f3dd0314c0f7b2291e5b200ac8c7c3b92591a4505050565b6000612e3c8261301e565b9050836001600160a01b031681600001516001600160a01b031614612e735760405162a1148160e81b815260040160405180910390fd5b6000336001600160a01b0386161480612e915750612e9185336129e6565b80612eac575033612ea184610df1565b6001600160a01b0316145b905080612ecc57604051632ce44b5f60e11b815260040160405180910390fd5b6001600160a01b038416612ef357604051633a954ecd60e21b815260040160405180910390fd5b612eff60008487612dd5565b6001600160a01b038581166000908152600560209081526040808320805467ffffffffffffffff198082166001600160401b0392831660001901831617909255898616808652838620805493841693831660019081018416949094179055898652600490945282852080546001600160e01b031916909417600160a01b42909216919091021783558701808452922080549193909116612fd3576000548214612fd357805460208601516001600160401b0316600160a01b026001600160e01b03199091166001600160a01b038a16171781555b50505082846001600160a01b0316866001600160a01b03167fddf252ad1be2c89b69c2b068fc378daa952ba7f163c4a11628f55a4df523b3ef60405160405180910390a45050505050565b604080516060810182526000808252602082018190529181019190915281806001116131275760005481101561312757600081815260046020908152604091829020825160608101845290546001600160a01b0381168252600160a01b81046001600160401b031692820192909252600160e01b90910460ff161515918101829052906131255780516001600160a01b0316156130bc579392505050565b5060001901600081815260046020908152604091829020825160608101845290546001600160a01b038116808352600160a01b82046001600160401b031693830193909352600160e01b900460ff1615159281019290925215613120579392505050565b6130bc565b505b604051636f96cda160e11b815260040160405180910390fd5b61314861387b565b600a546001600160a01b031633148061316b5750600b546001600160a01b031633145b8061318057506008546001600160a01b031633145b61319c5760405162461bcd60e51b8152600401610b4c906142d1565b60006040518060c001604052808660028111156131bb576131bb613fec565b815260200185815260200184815260200160001515815260200142815260200160006001600160a01b0316815250905080600d60008881526020019081526020016000208560405161320d9190614456565b90815260405190819003602001902081518154829060ff1916600183600281111561323a5761323a613fec565b0217905550602082810151805161325792600185019201906137bd565b50604082015180516132739160028401916020909101906137bd565b50606082015160038201805460ff19169115159190911790556080820151600482015560a090910151600590910180546001600160a01b0319166001600160a01b039092169190911790557f7c3d02d6194407085d071da10ea3a62ce91a71382a249d42a37428106fd015078685336040516132f1939291906141df565b60405180910390a190505b949350505050565b6000826133118584613751565b14949350505050565b600880546001600160a01b038381166001600160a01b0319831681179093556040519116919082907f8be0079c531659141344cd1fd0a4f28419497f9722a3daafe3b4186f6b6457e090600090a35050565b604051630a85bd0160e11b81526000906001600160a01b0385169063150b7a02906133a19033908990889088906004016145e3565b602060405180830381600087803b1580156133bb57600080fd5b505af19250505080156133eb575060408051601f3d908101601f191682019092526133e891810190614620565b60015b613446573d808015613419576040519150601f19603f3d011682016040523d82523d6000602084013e61341e565b606091505b50805161343e576040516368d2bf6b60e11b815260040160405180910390fd5b805181602001fd5b6001600160e01b031916630a85bd0160e11b1490506132fc565b606060138054610d6e90614210565b6060816134935750506040805180820190915260018152600360fc1b602082015290565b8160005b81156134bd57806134a78161463d565b91506134b69050600a836145cf565b9150613497565b6000816001600160401b038111156134d7576134d76139ca565b6040519080825280601f01601f191660200182016040528015613501576020820181803683370190505b5090505b84156132fc57613516600183614658565b9150613523600a8661466f565b61352e90603061417a565b60f81b81838151811061354357613543614317565b60200101906001600160f81b031916908160001a905350613565600a866145cf565b9450613505565b80516a636f6e736f6c652e6c6f67602083016000808483855afa5050505050565b6000546001600160a01b0384166135b657604051622e076360e81b815260040160405180910390fd5b826135d45760405163b562e8dd60e01b815260040160405180910390fd5b6001600160a01b038416600081815260056020908152604080832080546fffffffffffffffffffffffffffffffff1981166001600160401b038083168b0181169182176801000000000000000067ffffffffffffffff1990941690921783900481168b01811690920217909155858452600490925290912080546001600160e01b0319168317600160a01b42909316929092029190911790558190818501903b156136fc575b60405182906001600160a01b038816906000907fddf252ad1be2c89b69c2b068fc378daa952ba7f163c4a11628f55a4df523b3ef908290a46136c5600087848060010195508761336c565b6136e2576040516368d2bf6b60e11b815260040160405180910390fd5b80821061367a5782600054146136f757600080fd5b613741565b5b6040516001830192906001600160a01b038816906000907fddf252ad1be2c89b69c2b068fc378daa952ba7f163c4a11628f55a4df523b3ef908290a48082106136fd575b50600090815561144a9085838684565b600081815b84518110156112fb57600085828151811061377357613773614317565b6020026020010151905080831161379957600083815260208290526040902092506137aa565b600081815260208490526040902092505b50806137b58161463d565b915050613756565b8280546137c990614210565b90600052602060002090601f0160209004810192826137eb5760008555613831565b82601f1061380457805160ff1916838001178555613831565b82800160010185558215613831579182015b82811115613831578251825591602001919060010190613816565b5061383d9291506138bd565b5090565b50805461384d90614210565b6000825580601f1061385d575050565b601f016020900490600052602060002090810190612b5491906138bd565b6040805160c08101909152806000815260200160608152602001606081526020016000151581526020016000815260200160006001600160a01b031681525090565b5b8082111561383d57600081556001016138be565b6001600160a01b0381168114612b5457600080fd5b600080604083850312156138fa57600080fd5b8235613905816138d2565b946020939093013593505050565b6001600160e01b031981168114612b5457600080fd5b60006020828403121561393b57600080fd5b8135611d5281613913565b60005b83811015613961578181015183820152602001613949565b8381111561144a5750506000910152565b6000815180845261398a816020860160208601613946565b601f01601f19169290920160200192915050565b602081526000611d526020830184613972565b6000602082840312156139c357600080fd5b5035919050565b634e487b7160e01b600052604160045260246000fd5b604051601f8201601f191681016001600160401b0381118282101715613a0857613a086139ca565b604052919050565b60006001600160401b03821115613a2957613a296139ca565b50601f01601f191660200190565b6000613a4a613a4584613a10565b6139e0565b9050828152838383011115613a5e57600080fd5b828260208301376000602084830101529392505050565b600082601f830112613a8657600080fd5b611d5283833560208501613a37565b600060208284031215613aa757600080fd5b81356001600160401b03811115613abd57600080fd5b6132fc84828501613a75565b80358015158114611b7f57600080fd5b600060208284031215613aeb57600080fd5b611d5282613ac9565b600080600060608486031215613b0957600080fd5b8335613b14816138d2565b92506020840135613b24816138d2565b929592945050506040919091013590565b600060208284031215613b4757600080fd5b8135611d52816138d2565b60006001600160401b03821115613b6b57613b6b6139ca565b5060051b60200190565b60006020808385031215613b8857600080fd5b82356001600160401b03811115613b9e57600080fd5b8301601f81018513613baf57600080fd5b8035613bbd613a4582613b52565b81815260059190911b82018301908381019087831115613bdc57600080fd5b928401925b82841015613bfa57833582529284019290840190613be1565b979650505050505050565b6020808252825182820181905260009190848201906040850190845b81811015611a0a57613c5c83855180516001600160a01b031682526020808201516001600160401b0316908301526040908101511515910152565b9284019260609290920191600101613c21565b600080600060608486031215613c8457600080fd5b833560038110613c9357600080fd5b925060208401356001600160401b0380821115613caf57600080fd5b613cbb87838801613a75565b93506040860135915080821115613cd157600080fd5b50613cde86828701613a75565b9150509250925092565b60008060008060608587031215613cfe57600080fd5b8435613d09816138d2565b93506020850135925060408501356001600160401b0380821115613d2c57600080fd5b818701915087601f830112613d4057600080fd5b813581811115613d4f57600080fd5b8860208260051b8501011115613d6457600080fd5b95989497505060200194505050565b6020808252825182820181905260009190848201906040850190845b81811015611a0a57835183529284019291840191600101613d8f565b6000602080830181845280855180835260408601915060408160051b870101925083870160005b82811015613e0057603f19888603018452613dee858351613972565b94509285019290850190600101613dd2565b5092979650505050505050565b600080600060608486031215613e2257600080fd5b8335613e2d816138d2565b95602085013595506040909401359392505050565b60008060408385031215613e5557600080fd5b8235613e60816138d2565b9150613e6e60208401613ac9565b90509250929050565b60008060408385031215613e8a57600080fd5b8235915060208301356001600160401b03811115613ea757600080fd5b613eb385828601613a75565b9150509250929050565b60008060008060808587031215613ed357600080fd5b8435613ede816138d2565b93506020850135613eee816138d2565b92506040850135915060608501356001600160401b03811115613f1057600080fd5b8501601f81018713613f2157600080fd5b613f3087823560208401613a37565b91505092959194509250565b81516001600160a01b031681526020808301516001600160401b03169082015260408083015115159082015260608101610d59565b600080600060408486031215613f8657600080fd5b8335925060208401356001600160401b0380821115613fa457600080fd5b818601915086601f830112613fb857600080fd5b813581811115613fc757600080fd5b876020828501011115613fd957600080fd5b6020830194508093505050509250925092565b634e487b7160e01b600052602160045260246000fd5b6003811061402057634e487b7160e01b600052602160045260246000fd5b9052565b60208152614036602082018351614002565b6000602083015160c0604084015261405160e0840182613972565b90506040840151601f1984830301606085015261406e8282613972565b915050606084015115156080840152608084015160a084015260018060a01b0360a08501511660c08401528091505092915050565b6140ad8188614002565b60c0602082015260006140c360c0830188613972565b82810360408401526140d58188613972565b9515156060840152505060808101929092526001600160a01b031660a0909101529392505050565b6000806040838503121561411057600080fd5b823561411b816138d2565b9150602083013561412b816138d2565b809150509250929050565b602080825260149082015273496e76616c6964206d696e7420616d6f756e742160601b604082015260600190565b634e487b7160e01b600052601160045260246000fd5b6000821982111561418d5761418d614164565b500190565b6020808252601490820152734d617820737570706c792065786365656465642160601b604082015260600190565b60008160001904831182151516156141da576141da614164565b500290565b8381526060602082015260006141f86060830185613972565b905060018060a01b0383166040830152949350505050565b600181811c9082168061422457607f821691505b6020821081141561424557634e487b7160e01b600052602260045260246000fd5b50919050565b60208082526023908201527f5175616e746567794c616273416363657373436f6e74726f6c3a2043544f206f6040820152626e6c7960e81b606082015260800190565b60208082526023908201527f5175616e746567794c616273416363657373436f6e74726f6c3a2043454f206f6040820152626e6c7960e81b606082015260800190565b60208082526026908201527f5175616e746567794c616273416363657373436f6e74726f6c3a2041646d696e60408201526573206f6e6c7960d01b606082015260800190565b634e487b7160e01b600052603260045260246000fd5b60006020828403121561433f57600080fd5b8151611d52816138d2565b600060ff821660ff81141561436157614361614164565b60010192915050565b6000602080838503121561437d57600080fd5b82516001600160401b038082111561439457600080fd5b818501915085601f8301126143a857600080fd5b81516143b6613a4582613b52565b81815260059190911b830184019084810190888311156143d557600080fd5b8585015b83811015614449578051858111156143f15760008081fd5b8601603f81018b136144035760008081fd5b878101516040614415613a4583613a10565b8281528d8284860101111561442a5760008081fd5b614439838c8301848701613946565b86525050509186019186016143d9565b5098975050505050505050565b60008251614468818460208701613946565b9190910192915050565b6000845160206144858285838a01613946565b8551918401916144988184848a01613946565b8554920191600090600181811c90808316806144b557607f831692505b8583108114156144d357634e487b7160e01b85526022600452602485fd5b8080156144e757600181146144f857614525565b60ff19851688528388019550614525565b60008b81526020902060005b8581101561451d5781548a820152908401908801614504565b505083880195505b50939b9a5050505050505050505050565b8183823760009101908152919050565b848152606060208201528260608201528284608083013760008184016080908101919091526001600160a01b03929092166040820152601f909201601f19169091010192915050565b6040815260006145a26040830185613972565b905060018060a01b03831660208301529392505050565b634e487b7160e01b600052601260045260246000fd5b6000826145de576145de6145b9565b500490565b6001600160a01b038581168252841660208201526040810183905260806060820181905260009061461690830184613972565b9695505050505050565b60006020828403121561463257600080fd5b8151611d5281613913565b600060001982141561465157614651614164565b5060010190565b60008282101561466a5761466a614164565b500390565b60008261467e5761467e6145b9565b50069056fea26469706673582212207197829e160c0f6dba75efa70d3dcc09f93b23c4d0032ab0e92148d0589bc00264736f6c6343000809003374686973206973206e6f7420616c6c6f77656420746f206265207365656e20756e74696c2072657665616c5175616e746567794c616273416363657373436f6e74726f6c3a2043544f206f4465706c6f79696e67205175616e746567794c616273416363657373436f6e74726f6c20636f6e74726163742066726f6d43454f20616e642043544f2061636365737320686173206265656e20676976656e20746f",
  "linkReferences": {},
  "deployedLinkReferences": {}
}