{
  "_format": "hh-sol-artifact-1",
  "contractName": "EnlightenedLizards",
  "sourceName": "contracts/EnlightenedLizards.sol",
  "abi": [
    {
      "inputs": [
        {
          "internalType": "string",
          "name": "_tokenName",
          "type": "string"
        },
        {
          "internalType": "string",
          "name": "_tokenSymbol",
          "type": "string"
        },
        {
          "internalType": "uint256",
          "name": "_cost",
          "type": "uint256"
        },
        {
          "internalType": "uint256",
          "name": "_maxSupply",
          "type": "uint256"
        },
        {
          "internalType": "uint256",
          "name": "_maxMintAmountPerTx",
          "type": "uint256"
        },
        {
          "internalType": "string",
          "name": "_hiddenMetadataUri",
          "type": "string"
        }
      ],
      "stateMutability": "nonpayable",
      "type": "constructor"
    },
    {
      "inputs": [],
      "name": "ApprovalCallerNotOwnerNorApproved",
      "type": "error"
    },
    {
      "inputs": [],
      "name": "ApprovalQueryForNonexistentToken",
      "type": "error"
    },
    {
      "inputs": [],
      "name": "ApprovalToCurrentOwner",
      "type": "error"
    },
    {
      "inputs": [],
      "name": "ApproveToCaller",
      "type": "error"
    },
    {
      "inputs": [],
      "name": "BalanceQueryForZeroAddress",
      "type": "error"
    },
    {
      "inputs": [],
      "name": "InvalidQueryRange",
      "type": "error"
    },
    {
      "inputs": [],
      "name": "MintToZeroAddress",
      "type": "error"
    },
    {
      "inputs": [],
      "name": "MintZeroQuantity",
      "type": "error"
    },
    {
      "inputs": [],
      "name": "OwnerQueryForNonexistentToken",
      "type": "error"
    },
    {
      "inputs": [],
      "name": "TransferCallerNotOwnerNorApproved",
      "type": "error"
    },
    {
      "inputs": [],
      "name": "TransferFromIncorrectOwner",
      "type": "error"
    },
    {
      "inputs": [],
      "name": "TransferToNonERC721ReceiverImplementer",
      "type": "error"
    },
    {
      "inputs": [],
      "name": "TransferToZeroAddress",
      "type": "error"
    },
    {
      "inputs": [],
      "name": "URIQueryForNonexistentToken",
      "type": "error"
    },
    {
      "anonymous": false,
      "inputs": [
        {
          "indexed": true,
          "internalType": "address",
          "name": "owner",
          "type": "address"
        },
        {
          "indexed": true,
          "internalType": "address",
          "name": "approved",
          "type": "address"
        },
        {
          "indexed": true,
          "internalType": "uint256",
          "name": "tokenId",
          "type": "uint256"
        }
      ],
      "name": "Approval",
      "type": "event"
    },
    {
      "anonymous": false,
      "inputs": [
        {
          "indexed": true,
          "internalType": "address",
          "name": "owner",
          "type": "address"
        },
        {
          "indexed": true,
          "internalType": "address",
          "name": "operator",
          "type": "address"
        },
        {
          "indexed": false,
          "internalType": "bool",
          "name": "approved",
          "type": "bool"
        }
      ],
      "name": "ApprovalForAll",
      "type": "event"
    },
    {
      "anonymous": false,
      "inputs": [
        {
          "indexed": false,
          "internalType": "address",
          "name": "newCEO",
          "type": "address"
        }
      ],
      "name": "CEOUpdated",
      "type": "event"
    },
    {
      "anonymous": false,
      "inputs": [
        {
          "indexed": false,
          "internalType": "address",
          "name": "newCTO",
          "type": "address"
        }
      ],
      "name": "CTOUpdated",
      "type": "event"
    },
    {
      "anonymous": false,
      "inputs": [
        {
          "indexed": false,
          "internalType": "uint256",
          "name": "balance",
          "type": "uint256"
        }
      ],
      "name": "FundsWithdrawn",
      "type": "event"
    },
    {
      "anonymous": false,
      "inputs": [
        {
          "indexed": false,
          "internalType": "uint256",
          "name": "tokenId",
          "type": "uint256"
        },
        {
          "indexed": false,
          "internalType": "string",
          "name": "tokenURI",
          "type": "string"
        },
        {
          "indexed": false,
          "internalType": "address",
          "name": "phan",
          "type": "address"
        }
      ],
      "name": "NewLizardMinted",
      "type": "event"
    },
    {
      "anonymous": false,
      "inputs": [
        {
          "indexed": true,
          "internalType": "address",
          "name": "previousOwner",
          "type": "address"
        },
        {
          "indexed": true,
          "internalType": "address",
          "name": "newOwner",
          "type": "address"
        }
      ],
      "name": "OwnershipTransferred",
      "type": "event"
    },
    {
      "anonymous": false,
      "inputs": [
        {
          "indexed": true,
          "internalType": "address",
          "name": "from",
          "type": "address"
        },
        {
          "indexed": true,
          "internalType": "address",
          "name": "to",
          "type": "address"
        },
        {
          "indexed": true,
          "internalType": "uint256",
          "name": "tokenId",
          "type": "uint256"
        }
      ],
      "name": "Transfer",
      "type": "event"
    },
    {
      "anonymous": false,
      "inputs": [
        {
          "indexed": false,
          "internalType": "address",
          "name": "newTreasuryAddress",
          "type": "address"
        }
      ],
      "name": "TreasuryUpdated",
      "type": "event"
    },
    {
      "inputs": [
        {
          "internalType": "address",
          "name": "_receiver",
          "type": "address"
        },
        {
          "internalType": "uint256",
          "name": "_mintAmount",
          "type": "uint256"
        }
      ],
      "name": "adminMintLizard",
      "outputs": [],
      "stateMutability": "nonpayable",
      "type": "function"
    },
    {
      "inputs": [
        {
          "internalType": "address",
          "name": "to",
          "type": "address"
        },
        {
          "internalType": "uint256",
          "name": "tokenId",
          "type": "uint256"
        }
      ],
      "name": "approve",
      "outputs": [],
      "stateMutability": "nonpayable",
      "type": "function"
    },
    {
      "inputs": [
        {
          "internalType": "address",
          "name": "owner",
          "type": "address"
        }
      ],
      "name": "balanceOf",
      "outputs": [
        {
          "internalType": "uint256",
          "name": "",
          "type": "uint256"
        }
      ],
      "stateMutability": "view",
      "type": "function"
    },
    {
      "inputs": [],
      "name": "claimCenterAddress",
      "outputs": [
        {
          "internalType": "address",
          "name": "",
          "type": "address"
        }
      ],
      "stateMutability": "view",
      "type": "function"
    },
    {
      "inputs": [],
      "name": "collectionRedeemables",
      "outputs": [
        {
          "components": [
            {
              "internalType": "address",
              "name": "collectionAddress",
              "type": "address"
            },
            {
              "internalType": "uint256",
              "name": "tokenId",
              "type": "uint256"
            },
            {
              "internalType": "enum RedeemableType",
              "name": "redeemableType",
              "type": "uint8"
            },
            {
              "internalType": "string",
              "name": "key",
              "type": "string"
            },
            {
              "internalType": "string",
              "name": "name",
              "type": "string"
            },
            {
              "internalType": "uint256",
              "name": "createdAt",
              "type": "uint256"
            },
            {
              "internalType": "bool",
              "name": "claimed",
              "type": "bool"
            },
            {
              "internalType": "uint256",
              "name": "claimedAt",
              "type": "uint256"
            },
            {
              "internalType": "address",
              "name": "claimedBy",
              "type": "address"
            }
          ],
          "internalType": "struct RedeemableItem[][]",
          "name": "redeemableItems",
          "type": "tuple[][]"
        }
      ],
      "stateMutability": "nonpayable",
      "type": "function"
    },
    {
      "inputs": [],
      "name": "cost",
      "outputs": [
        {
          "internalType": "uint256",
          "name": "",
          "type": "uint256"
        }
      ],
      "stateMutability": "view",
      "type": "function"
    },
    {
      "inputs": [
        {
          "internalType": "uint256",
          "name": "tokenId",
          "type": "uint256"
        }
      ],
      "name": "explicitOwnershipOf",
      "outputs": [
        {
          "components": [
            {
              "internalType": "address",
              "name": "addr",
              "type": "address"
            },
            {
              "internalType": "uint64",
              "name": "startTimestamp",
              "type": "uint64"
            },
            {
              "internalType": "bool",
              "name": "burned",
              "type": "bool"
            }
          ],
          "internalType": "struct IERC721A.TokenOwnership",
          "name": "",
          "type": "tuple"
        }
      ],
      "stateMutability": "view",
      "type": "function"
    },
    {
      "inputs": [
        {
          "internalType": "uint256[]",
          "name": "tokenIds",
          "type": "uint256[]"
        }
      ],
      "name": "explicitOwnershipsOf",
      "outputs": [
        {
          "components": [
            {
              "internalType": "address",
              "name": "addr",
              "type": "address"
            },
            {
              "internalType": "uint64",
              "name": "startTimestamp",
              "type": "uint64"
            },
            {
              "internalType": "bool",
              "name": "burned",
              "type": "bool"
            }
          ],
          "internalType": "struct IERC721A.TokenOwnership[]",
          "name": "",
          "type": "tuple[]"
        }
      ],
      "stateMutability": "view",
      "type": "function"
    },
    {
      "inputs": [],
      "name": "fundTreasury",
      "outputs": [],
      "stateMutability": "nonpayable",
      "type": "function"
    },
    {
      "inputs": [
        {
          "internalType": "uint256",
          "name": "tokenId",
          "type": "uint256"
        }
      ],
      "name": "getApproved",
      "outputs": [
        {
          "internalType": "address",
          "name": "",
          "type": "address"
        }
      ],
      "stateMutability": "view",
      "type": "function"
    },
    {
      "inputs": [],
      "name": "getCEO",
      "outputs": [
        {
          "internalType": "address",
          "name": "",
          "type": "address"
        }
      ],
      "stateMutability": "view",
      "type": "function"
    },
    {
      "inputs": [],
      "name": "getCTO",
      "outputs": [
        {
          "internalType": "address",
          "name": "",
          "type": "address"
        }
      ],
      "stateMutability": "view",
      "type": "function"
    },
    {
      "inputs": [],
      "name": "getTreasury",
      "outputs": [
        {
          "internalType": "address",
          "name": "",
          "type": "address"
        }
      ],
      "stateMutability": "view",
      "type": "function"
    },
    {
      "inputs": [],
      "name": "hiddenMetadataUri",
      "outputs": [
        {
          "internalType": "string",
          "name": "",
          "type": "string"
        }
      ],
      "stateMutability": "view",
      "type": "function"
    },
    {
      "inputs": [],
      "name": "hiddenRightsUri",
      "outputs": [
        {
          "internalType": "string",
          "name": "",
          "type": "string"
        }
      ],
      "stateMutability": "view",
      "type": "function"
    },
    {
      "inputs": [
        {
          "internalType": "address",
          "name": "owner",
          "type": "address"
        },
        {
          "internalType": "address",
          "name": "operator",
          "type": "address"
        }
      ],
      "name": "isApprovedForAll",
      "outputs": [
        {
          "internalType": "bool",
          "name": "",
          "type": "bool"
        }
      ],
      "stateMutability": "view",
      "type": "function"
    },
    {
      "inputs": [],
      "name": "maxMintAmountPerTx",
      "outputs": [
        {
          "internalType": "uint256",
          "name": "",
          "type": "uint256"
        }
      ],
      "stateMutability": "view",
      "type": "function"
    },
    {
      "inputs": [],
      "name": "maxSupply",
      "outputs": [
        {
          "internalType": "uint256",
          "name": "",
          "type": "uint256"
        }
      ],
      "stateMutability": "view",
      "type": "function"
    },
    {
      "inputs": [],
      "name": "merkleRoot",
      "outputs": [
        {
          "internalType": "bytes32",
          "name": "",
          "type": "bytes32"
        }
      ],
      "stateMutability": "view",
      "type": "function"
    },
    {
      "inputs": [
        {
          "internalType": "address",
          "name": "_phan",
          "type": "address"
        },
        {
          "internalType": "uint256",
          "name": "_mintAmount",
          "type": "uint256"
        }
      ],
      "name": "mintLizard",
      "outputs": [],
      "stateMutability": "payable",
      "type": "function"
    },
    {
      "inputs": [],
      "name": "name",
      "outputs": [
        {
          "internalType": "string",
          "name": "",
          "type": "string"
        }
      ],
      "stateMutability": "view",
      "type": "function"
    },
    {
      "inputs": [],
      "name": "owner",
      "outputs": [
        {
          "internalType": "address",
          "name": "",
          "type": "address"
        }
      ],
      "stateMutability": "view",
      "type": "function"
    },
    {
      "inputs": [
        {
          "internalType": "uint256",
          "name": "tokenId",
          "type": "uint256"
        }
      ],
      "name": "ownerOf",
      "outputs": [
        {
          "internalType": "address",
          "name": "",
          "type": "address"
        }
      ],
      "stateMutability": "view",
      "type": "function"
    },
    {
      "inputs": [],
      "name": "paused",
      "outputs": [
        {
          "internalType": "bool",
          "name": "",
          "type": "bool"
        }
      ],
      "stateMutability": "view",
      "type": "function"
    },
    {
      "inputs": [],
      "name": "renounceOwnership",
      "outputs": [],
      "stateMutability": "nonpayable",
      "type": "function"
    },
    {
      "inputs": [],
      "name": "revealed",
      "outputs": [
        {
          "internalType": "bool",
          "name": "",
          "type": "bool"
        }
      ],
      "stateMutability": "view",
      "type": "function"
    },
    {
      "inputs": [],
      "name": "rightsProtocolAddress",
      "outputs": [
        {
          "internalType": "address",
          "name": "",
          "type": "address"
        }
      ],
      "stateMutability": "view",
      "type": "function"
    },
    {
      "inputs": [
        {
          "internalType": "uint256",
          "name": "_tokenId",
          "type": "uint256"
        }
      ],
      "name": "rightsURIs",
      "outputs": [
        {
          "internalType": "string[]",
          "name": "tokenRightsUris",
          "type": "string[]"
        }
      ],
      "stateMutability": "view",
      "type": "function"
    },
    {
      "inputs": [
        {
          "internalType": "address",
          "name": "from",
          "type": "address"
        },
        {
          "internalType": "address",
          "name": "to",
          "type": "address"
        },
        {
          "internalType": "uint256",
          "name": "tokenId",
          "type": "uint256"
        }
      ],
      "name": "safeTransferFrom",
      "outputs": [],
      "stateMutability": "nonpayable",
      "type": "function"
    },
    {
      "inputs": [
        {
          "internalType": "address",
          "name": "from",
          "type": "address"
        },
        {
          "internalType": "address",
          "name": "to",
          "type": "address"
        },
        {
          "internalType": "uint256",
          "name": "tokenId",
          "type": "uint256"
        },
        {
          "internalType": "bytes",
          "name": "_data",
          "type": "bytes"
        }
      ],
      "name": "safeTransferFrom",
      "outputs": [],
      "stateMutability": "nonpayable",
      "type": "function"
    },
    {
      "inputs": [
        {
          "internalType": "address",
          "name": "operator",
          "type": "address"
        },
        {
          "internalType": "bool",
          "name": "approved",
          "type": "bool"
        }
      ],
      "name": "setApprovalForAll",
      "outputs": [],
      "stateMutability": "nonpayable",
      "type": "function"
    },
    {
      "inputs": [
        {
          "internalType": "address",
          "name": "_newCEO",
          "type": "address"
        }
      ],
      "name": "setCEO",
      "outputs": [],
      "stateMutability": "nonpayable",
      "type": "function"
    },
    {
      "inputs": [
        {
          "internalType": "address",
          "name": "_newCTO",
          "type": "address"
        }
      ],
      "name": "setCTO",
      "outputs": [],
      "stateMutability": "nonpayable",
      "type": "function"
    },
    {
      "inputs": [
        {
          "internalType": "address",
          "name": "_claimCenterAddress",
          "type": "address"
        }
      ],
      "name": "setClaimCenterAddress",
      "outputs": [],
      "stateMutability": "nonpayable",
      "type": "function"
    },
    {
      "inputs": [
        {
          "internalType": "uint256",
          "name": "_cost",
          "type": "uint256"
        }
      ],
      "name": "setCost",
      "outputs": [],
      "stateMutability": "nonpayable",
      "type": "function"
    },
    {
      "inputs": [
        {
          "internalType": "string",
          "name": "_hiddenMetadataUri",
          "type": "string"
        }
      ],
      "name": "setHiddenMetadataUri",
      "outputs": [],
      "stateMutability": "nonpayable",
      "type": "function"
    },
    {
      "inputs": [
        {
          "internalType": "uint256",
          "name": "_maxMintAmountPerTx",
          "type": "uint256"
        }
      ],
      "name": "setMaxMintAmountPerTx",
      "outputs": [],
      "stateMutability": "nonpayable",
      "type": "function"
    },
    {
      "inputs": [
        {
          "internalType": "bytes32",
          "name": "_merkleRoot",
          "type": "bytes32"
        }
      ],
      "name": "setMerkleRoot",
      "outputs": [],
      "stateMutability": "nonpayable",
      "type": "function"
    },
    {
      "inputs": [
        {
          "internalType": "bool",
          "name": "_state",
          "type": "bool"
        }
      ],
      "name": "setPaused",
      "outputs": [],
      "stateMutability": "nonpayable",
      "type": "function"
    },
    {
      "inputs": [
        {
          "internalType": "bool",
          "name": "_state",
          "type": "bool"
        }
      ],
      "name": "setRevealed",
      "outputs": [],
      "stateMutability": "nonpayable",
      "type": "function"
    },
    {
      "inputs": [
        {
          "internalType": "address payable",
          "name": "rightsFeeRecipient_",
          "type": "address"
        }
      ],
      "name": "setRightsFeeRecipient",
      "outputs": [],
      "stateMutability": "nonpayable",
      "type": "function"
    },
    {
      "inputs": [
        {
          "internalType": "address",
          "name": "rightsProtocolAddress_",
          "type": "address"
        }
      ],
      "name": "setRightsProtocolAddress",
      "outputs": [],
      "stateMutability": "nonpayable",
      "type": "function"
    },
    {
      "inputs": [
        {
          "internalType": "address payable",
          "name": "_treasury",
          "type": "address"
        }
      ],
      "name": "setTreasury",
      "outputs": [],
      "stateMutability": "nonpayable",
      "type": "function"
    },
    {
      "inputs": [
        {
          "internalType": "string",
          "name": "_uriPrefix",
          "type": "string"
        }
      ],
      "name": "setUriPrefix",
      "outputs": [],
      "stateMutability": "nonpayable",
      "type": "function"
    },
    {
      "inputs": [
        {
          "internalType": "string",
          "name": "_uriSuffix",
          "type": "string"
        }
      ],
      "name": "setUriSuffix",
      "outputs": [],
      "stateMutability": "nonpayable",
      "type": "function"
    },
    {
      "inputs": [
        {
          "internalType": "bool",
          "name": "_state",
          "type": "bool"
        }
      ],
      "name": "setWhitelistMintEnabled",
      "outputs": [],
      "stateMutability": "nonpayable",
      "type": "function"
    },
    {
      "inputs": [
        {
          "internalType": "bytes4",
          "name": "interfaceId",
          "type": "bytes4"
        }
      ],
      "name": "supportsInterface",
      "outputs": [
        {
          "internalType": "bool",
          "name": "",
          "type": "bool"
        }
      ],
      "stateMutability": "view",
      "type": "function"
    },
    {
      "inputs": [],
      "name": "symbol",
      "outputs": [
        {
          "internalType": "string",
          "name": "",
          "type": "string"
        }
      ],
      "stateMutability": "view",
      "type": "function"
    },
    {
      "inputs": [
        {
          "internalType": "uint256",
          "name": "_tokenId",
          "type": "uint256"
        }
      ],
      "name": "tokenRedeemables",
      "outputs": [
        {
          "components": [
            {
              "internalType": "address",
              "name": "collectionAddress",
              "type": "address"
            },
            {
              "internalType": "uint256",
              "name": "tokenId",
              "type": "uint256"
            },
            {
              "internalType": "enum RedeemableType",
              "name": "redeemableType",
              "type": "uint8"
            },
            {
              "internalType": "string",
              "name": "key",
              "type": "string"
            },
            {
              "internalType": "string",
              "name": "name",
              "type": "string"
            },
            {
              "internalType": "uint256",
              "name": "createdAt",
              "type": "uint256"
            },
            {
              "internalType": "bool",
              "name": "claimed",
              "type": "bool"
            },
            {
              "internalType": "uint256",
              "name": "claimedAt",
              "type": "uint256"
            },
            {
              "internalType": "address",
              "name": "claimedBy",
              "type": "address"
            }
          ],
          "internalType": "struct RedeemableItem[]",
          "name": "redeemableItems",
          "type": "tuple[]"
        }
      ],
      "stateMutability": "nonpayable",
      "type": "function"
    },
    {
      "inputs": [
        {
          "internalType": "uint256",
          "name": "_tokenId",
          "type": "uint256"
        }
      ],
      "name": "tokenURI",
      "outputs": [
        {
          "internalType": "string",
          "name": "",
          "type": "string"
        }
      ],
      "stateMutability": "view",
      "type": "function"
    },
    {
      "inputs": [
        {
          "internalType": "address",
          "name": "owner",
          "type": "address"
        }
      ],
      "name": "tokensOfOwner",
      "outputs": [
        {
          "internalType": "uint256[]",
          "name": "",
          "type": "uint256[]"
        }
      ],
      "stateMutability": "view",
      "type": "function"
    },
    {
      "inputs": [
        {
          "internalType": "address",
          "name": "owner",
          "type": "address"
        },
        {
          "internalType": "uint256",
          "name": "start",
          "type": "uint256"
        },
        {
          "internalType": "uint256",
          "name": "stop",
          "type": "uint256"
        }
      ],
      "name": "tokensOfOwnerIn",
      "outputs": [
        {
          "internalType": "uint256[]",
          "name": "",
          "type": "uint256[]"
        }
      ],
      "stateMutability": "view",
      "type": "function"
    },
    {
      "inputs": [],
      "name": "totalSupply",
      "outputs": [
        {
          "internalType": "uint256",
          "name": "",
          "type": "uint256"
        }
      ],
      "stateMutability": "view",
      "type": "function"
    },
    {
      "inputs": [
        {
          "internalType": "address",
          "name": "from",
          "type": "address"
        },
        {
          "internalType": "address",
          "name": "to",
          "type": "address"
        },
        {
          "internalType": "uint256",
          "name": "tokenId",
          "type": "uint256"
        }
      ],
      "name": "transferFrom",
      "outputs": [],
      "stateMutability": "nonpayable",
      "type": "function"
    },
    {
      "inputs": [
        {
          "internalType": "address",
          "name": "newOwner",
          "type": "address"
        }
      ],
      "name": "transferOwnership",
      "outputs": [],
      "stateMutability": "nonpayable",
      "type": "function"
    },
    {
      "inputs": [],
      "name": "uriPrefix",
      "outputs": [
        {
          "internalType": "string",
          "name": "",
          "type": "string"
        }
      ],
      "stateMutability": "view",
      "type": "function"
    },
    {
      "inputs": [],
      "name": "uriSuffix",
      "outputs": [
        {
          "internalType": "string",
          "name": "",
          "type": "string"
        }
      ],
      "stateMutability": "view",
      "type": "function"
    },
    {
      "inputs": [
        {
          "internalType": "address",
          "name": "",
          "type": "address"
        }
      ],
      "name": "whitelistClaimed",
      "outputs": [
        {
          "internalType": "bool",
          "name": "",
          "type": "bool"
        }
      ],
      "stateMutability": "view",
      "type": "function"
    },
    {
      "inputs": [],
      "name": "whitelistMintEnabled",
      "outputs": [
        {
          "internalType": "bool",
          "name": "",
          "type": "bool"
        }
      ],
      "stateMutability": "view",
      "type": "function"
    },
    {
      "inputs": [
        {
          "internalType": "address",
          "name": "_phan",
          "type": "address"
        },
        {
          "internalType": "uint256",
          "name": "_mintAmount",
          "type": "uint256"
        },
        {
          "internalType": "bytes32[]",
          "name": "_merkleProof",
          "type": "bytes32[]"
        }
      ],
      "name": "whitelistMintLizard",
      "outputs": [],
      "stateMutability": "payable",
      "type": "function"
    }
  ],
  "bytecode": "0x6010805460ff1916905560a06040819052600060808190526200002591601191620003ee565b5060408051808201909152600580825264173539b7b760d91b60209092019182526200005491601291620003ee565b506040518060600160405280602b8152602001620045aa602b913980516200008591601491602090910190620003ee565b506018805461ffff19166001179055348015620000a157600080fd5b506040516200464a3803806200464a833981016040819052620000c4916200056e565b855186908690620000dd906002906020850190620003ee565b508051620000f3906003906020840190620003ee565b50506001600055506200010633620001c2565b60016009819055506200013e604051806060016040528060318152602001620045f560319139336200021460201b620025821760201c565b6200016e6040518060600160405280602481526020016200462660249139336200021460201b620025821760201c565b600a8054336001600160a01b03199182168117909255600b805490911690911790556200019b8462000265565b6016839055620001ab8262000305565b620001b68162000361565b5050505050506200069e565b600880546001600160a01b038381166001600160a01b0319831681179093556040519116919082907f8be0079c531659141344cd1fd0a4f28419497f9722a3daafe3b4186f6b6457e090600090a35050565b6200026182826040516024016200022d9291906200061b565b60408051601f198184030181529190526020810180516001600160e01b0390811663319af33360e01b17909152620003cd16565b5050565b600a546001600160a01b0316331480620002895750600b546001600160a01b031633145b806200029f57506008546001600160a01b031633145b620003005760405162461bcd60e51b815260206004820152602660248201527f5175616e746567794c616273416363657373436f6e74726f6c3a2041646d696e60448201526573206f6e6c7960d01b60648201526084015b60405180910390fd5b601555565b600b546001600160a01b031633146200035c5760405162461bcd60e51b81526020600482015260236024820152600080516020620045d58339815191526044820152626e6c7960e81b6064820152608401620002f7565b601755565b600b546001600160a01b03163314620003b85760405162461bcd60e51b81526020600482015260236024820152600080516020620045d58339815191526044820152626e6c7960e81b6064820152608401620002f7565b805162000261906013906020840190620003ee565b80516a636f6e736f6c652e6c6f67602083016000808483855afa5050505050565b828054620003fc9062000661565b90600052602060002090601f0160209004810192826200042057600085556200046b565b82601f106200043b57805160ff19168380011785556200046b565b828001600101855582156200046b579182015b828111156200046b5782518255916020019190600101906200044e565b50620004799291506200047d565b5090565b5b808211156200047957600081556001016200047e565b634e487b7160e01b600052604160045260246000fd5b60005b83811015620004c7578181015183820152602001620004ad565b83811115620004d7576000848401525b50505050565b600082601f830112620004ef57600080fd5b81516001600160401b03808211156200050c576200050c62000494565b604051601f8301601f19908116603f0116810190828211818310171562000537576200053762000494565b816040528381528660208588010111156200055157600080fd5b62000564846020830160208901620004aa565b9695505050505050565b60008060008060008060c087890312156200058857600080fd5b86516001600160401b0380821115620005a057600080fd5b620005ae8a838b01620004dd565b97506020890151915080821115620005c557600080fd5b620005d38a838b01620004dd565b965060408901519550606089015194506080890151935060a0890151915080821115620005ff57600080fd5b506200060e89828a01620004dd565b9150509295509295509295565b60408152600083518060408401526200063c816060850160208801620004aa565b6001600160a01b0393909316602083015250601f91909101601f191601606001919050565b600181811c908216806200067657607f821691505b602082108114156200069857634e487b7160e01b600052602260045260246000fd5b50919050565b613efc80620006ae6000396000f3fe6080604052600436106103975760003560e01c806370a08231116101dc578063a689be5311610102578063c8b0e68d116100a0578063e985e9c51161006f578063e985e9c514610a62578063f0f4426014610a82578063f2fde38b14610aa2578063fe1439b414610ac257600080fd5b8063c8b0e68d146109e7578063d5abeb01146109fc578063db4bec4414610a12578063e0a8085314610a4257600080fd5b8063b88d4fde116100dc578063b88d4fde14610965578063b9c1868514610985578063c23dc68f1461099a578063c87b56dd146109c757600080fd5b8063a689be5314610905578063b071401b14610925578063b767a0981461094557600080fd5b80638886a6ee1161017a57806395d89b411161014957806395d89b411461089b57806399a2557a146108b0578063a22cb465146108d0578063a45ba8e7146108f057600080fd5b80638886a6ee1461081a5780638da5cb5b1461083a5780638e7554851461085857806394354fd01461088557600080fd5b80637cb64759116101b65780637cb64759146107805780637ec4a659146107a05780637f7ab7f3146107c05780638462151c146107ed57600080fd5b806370a082311461072b578063715018a61461074b5780637b06da401461076057600080fd5b806342842e0e116102c15780635bbb21771161025f578063686ce3911161022e578063686ce391146106c95780636caede3d146106de5780636db486e8146106f85780636dd95f101461071857600080fd5b80635bbb21771461064d5780635c975abb1461067a57806362b99ad4146106945780636352211e146106a957600080fd5b80634f1abfb31161029b5780634f1abfb3146105d75780634fdd43cb146105f957806351830227146106195780635503a0e81461063857600080fd5b806342842e0e14610582578063433fac85146105a257806344a0d68a146105b757600080fd5b806316ba10e01161033957806327d7874c1161030857806327d7874c146105225780632eb4a7ab146105425780632fc227c3146105585780633b19e84a1461056d57600080fd5b806316ba10e0146104a457806316c38b3c146104c457806318160ddd146104e457806323b872dd1461050257600080fd5b8063081812fc11610375578063081812fc14610408578063095ea7b31461044057806312bfe49c1461046057806313faede61461048057600080fd5b806301b87ef61461039c57806301ffc9a7146103b157806306fdde03146103e6575b600080fd5b6103af6103aa366004613021565b610ae2565b005b3480156103bd57600080fd5b506103d16103cc366004613063565b610cb7565b60405190151581526020015b60405180910390f35b3480156103f257600080fd5b506103fb610d09565b6040516103dd91906130d8565b34801561041457600080fd5b506104286104233660046130eb565b610d9b565b6040516001600160a01b0390911681526020016103dd565b34801561044c57600080fd5b506103af61045b366004613021565b610ddf565b34801561046c57600080fd5b506103af61047b366004613104565b610e66565b34801561048c57600080fd5b5061049660155481565b6040519081526020016103dd565b3480156104b057600080fd5b506103af6104bf3660046131f5565b610eb2565b3480156104d057600080fd5b506103af6104df36600461324b565b610ef3565b3480156104f057600080fd5b50610496600154600054036000190190565b34801561050e57600080fd5b506103af61051d366004613268565b610f30565b34801561052e57600080fd5b506103af61053d366004613104565b610f3b565b34801561054e57600080fd5b50610496600e5481565b34801561056457600080fd5b506103fb610fcd565b34801561057957600080fd5b5061042861105b565b34801561058e57600080fd5b506103af61059d366004613268565b6110c2565b3480156105ae57600080fd5b506104286110dd565b3480156105c357600080fd5b506103af6105d23660046130eb565b611144565b3480156105e357600080fd5b506105ec61119d565b6040516103dd91906133b6565b34801561060557600080fd5b506103af6106143660046131f5565b611239565b34801561062557600080fd5b506018546103d190610100900460ff1681565b34801561064457600080fd5b506103fb611276565b34801561065957600080fd5b5061066d61066836600461343b565b611283565b6040516103dd91906134cb565b34801561068657600080fd5b506018546103d19060ff1681565b3480156106a057600080fd5b506103fb611349565b3480156106b557600080fd5b506104286106c43660046130eb565b611356565b3480156106d557600080fd5b50610428611368565b3480156106ea57600080fd5b506010546103d19060ff1681565b34801561070457600080fd5b506103af610713366004613104565b6113a5565b6103af610726366004613535565b6113f9565b34801561073757600080fd5b50610496610746366004613104565b6116fe565b34801561075757600080fd5b506103af61174c565b34801561076c57600080fd5b506103af61077b366004613104565b6117b2565b34801561078c57600080fd5b506103af61079b3660046130eb565b6117fe565b3480156107ac57600080fd5b506103af6107bb3660046131f5565b61182d565b3480156107cc57600080fd5b506107e06107db3660046130eb565b61186a565b6040516103dd91906135c0565b3480156107f957600080fd5b5061080d610808366004613104565b61190a565b6040516103dd91906135d3565b34801561082657600080fd5b506103af610835366004613021565b611a57565b34801561084657600080fd5b506008546001600160a01b0316610428565b34801561086457600080fd5b506108786108733660046130eb565b611b21565b6040516103dd919061360b565b34801561089157600080fd5b5061049660175481565b3480156108a757600080fd5b506103fb611bc5565b3480156108bc57600080fd5b5061080d6108cb366004613660565b611bd4565b3480156108dc57600080fd5b506103af6108eb366004613695565b611d9a565b3480156108fc57600080fd5b506103fb611e30565b34801561091157600080fd5b50601a54610428906001600160a01b031681565b34801561093157600080fd5b506103af6109403660046130eb565b611e3d565b34801561095157600080fd5b506103af61096036600461324b565b611e6c565b34801561097157600080fd5b506103af6109803660046136ce565b611ea9565b34801561099157600080fd5b506103af611ef3565b3480156109a657600080fd5b506109ba6109b53660046130eb565b612089565b6040516103dd919061374d565b3480156109d357600080fd5b506103fb6109e23660046130eb565b612143565b3480156109f357600080fd5b506104286122b1565b348015610a0857600080fd5b5061049660165481565b348015610a1e57600080fd5b506103d1610a2d366004613104565b600f6020526000908152604090205460ff1681565b348015610a4e57600080fd5b506103af610a5d36600461324b565b612318565b348015610a6e57600080fd5b506103d1610a7d366004613782565b61235c565b348015610a8e57600080fd5b506103af610a9d366004613104565b61238a565b348015610aae57600080fd5b506103af610abd366004613104565b612402565b348015610ace57600080fd5b506103af610add366004613104565b6124cd565b80600081118015610af557506017548111155b610b1a5760405162461bcd60e51b8152600401610b11906137b0565b60405180910390fd5b60165481610b2f600154600054036000190190565b610b3991906137f4565b1115610b575760405162461bcd60e51b8152600401610b119061380c565b8180601554610b66919061383a565b341015610bab5760405162461bcd60e51b8152602060048201526013602482015272496e73756666696369656e742066756e64732160681b6044820152606401610b11565b60185460ff1615610bfe5760405162461bcd60e51b815260206004820152601760248201527f54686520636f6e747261637420697320706175736564210000000000000000006044820152606401610b11565b610c0c600d80546001019055565b6000610c17600d5490565b9050610c2385856125c7565b6000610c476103e8610c4160216015546125e190919063ffffffff16565b906125ed565b601854909150610c66906201000090046001600160a01b0316826125f9565b6000610c7183612143565b90507f268b08d15742710b15087dd93f7713e5e48e9648eafa6549133b936957b537a5838289604051610ca693929190613859565b60405180910390a150505050505050565b60006001600160e01b031982166380ac58cd60e01b1480610ce857506001600160e01b03198216635b5e139f60e01b145b80610d0357506301ffc9a760e01b6001600160e01b03198316145b92915050565b606060028054610d189061388a565b80601f0160208091040260200160405190810160405280929190818152602001828054610d449061388a565b8015610d915780601f10610d6657610100808354040283529160200191610d91565b820191906000526020600020905b815481529060010190602001808311610d7457829003601f168201915b5050505050905090565b6000610da682612712565b610dc3576040516333d1c03960e21b815260040160405180910390fd5b506000908152600660205260409020546001600160a01b031690565b6000610dea82611356565b9050806001600160a01b0316836001600160a01b03161415610e1f5760405163250fdee360e21b815260040160405180910390fd5b336001600160a01b03821614610e5657610e39813361235c565b610e56576040516367d9dca160e11b815260040160405180910390fd5b610e6183838361274b565b505050565b600b546001600160a01b03163314610e905760405162461bcd60e51b8152600401610b11906138c5565b601980546001600160a01b0319166001600160a01b0392909216919091179055565b600b546001600160a01b03163314610edc5760405162461bcd60e51b8152600401610b11906138c5565b8051610eef906012906020840190612f73565b5050565b600b546001600160a01b03163314610f1d5760405162461bcd60e51b8152600401610b11906138c5565b6018805460ff1916911515919091179055565b610e618383836127a7565b600a546001600160a01b03163314610f655760405162461bcd60e51b8152600401610b1190613908565b6001600160a01b038116610f7857600080fd5b600a80546001600160a01b0319166001600160a01b0383169081179091556040519081527f83430a5ceb5107ce76c0ebe77c43cdc5ddbd9d2269f5c7fe175933cd3d3b2ad8906020015b60405180910390a150565b60148054610fda9061388a565b80601f01602080910402602001604051908101604052809291908181526020018280546110069061388a565b80156110535780601f1061102857610100808354040283529160200191611053565b820191906000526020600020905b81548152906001019060200180831161103657829003601f168201915b505050505081565b600a546000906001600160a01b03163314806110815750600b546001600160a01b031633145b8061109657506008546001600160a01b031633145b6110b25760405162461bcd60e51b8152600401610b119061394b565b50600c546001600160a01b031690565b610e6183838360405180602001604052806000815250611ea9565b600a546000906001600160a01b03163314806111035750600b546001600160a01b031633145b8061111857506008546001600160a01b031633145b6111345760405162461bcd60e51b8152600401610b119061394b565b50600b546001600160a01b031690565b600a546001600160a01b03163314806111675750600b546001600160a01b031633145b8061117c57506008546001600160a01b031633145b6111985760405162461bcd60e51b8152600401610b119061394b565b601555565b601a546060906001600160a01b03166111b35790565b601a54604051631cea166360e31b81523060048201526001600160a01b039091169063e750b31890602401600060405180830381600087803b1580156111f857600080fd5b505af115801561120c573d6000803e3d6000fd5b505050506040513d6000823e601f3d908101601f191682016040526112349190810190613b54565b905090565b600b546001600160a01b031633146112635760405162461bcd60e51b8152600401610b11906138c5565b8051610eef906013906020840190612f73565b60128054610fda9061388a565b80516060906000816001600160401b038111156112a2576112a2613121565b6040519080825280602002602001820160405280156112ed57816020015b60408051606081018252600080825260208083018290529282015282526000199092019101816112c05790505b50905060005b8281146113415761131c85828151811061130f5761130f613c04565b6020026020010151612089565b82828151811061132e5761132e613c04565b60209081029190910101526001016112f3565b509392505050565b60118054610fda9061388a565b600061136182612994565b5192915050565b600b546000906001600160a01b031633146113955760405162461bcd60e51b8152600401610b11906138c5565b506019546001600160a01b031690565b600b546001600160a01b031633146113cf5760405162461bcd60e51b8152600401610b11906138c5565b601880546001600160a01b03909216620100000262010000600160b01b0319909216919091179055565b8260008111801561140c57506017548111155b6114285760405162461bcd60e51b8152600401610b11906137b0565b6016548161143d600154600054036000190190565b61144791906137f4565b11156114655760405162461bcd60e51b8152600401610b119061380c565b8380601554611474919061383a565b3410156114b95760405162461bcd60e51b8152602060048201526013602482015272496e73756666696369656e742066756e64732160681b6044820152606401610b11565b60105460ff166115165760405162461bcd60e51b815260206004820152602260248201527f5468652077686974656c6973742073616c65206973206e6f7420656e61626c65604482015261642160f01b6064820152608401610b11565b336000908152600f602052604090205460ff16156115765760405162461bcd60e51b815260206004820152601860248201527f4164647265737320616c726561647920636c61696d65642100000000000000006044820152606401610b11565b6040516bffffffffffffffffffffffff193360601b1660208201526000906034016040516020818303038152906040528051906020012090506115f085858080602002602001604051908101604052809392919081815260200183836020028082843760009201919091525050600e549150849050612ab6565b61162d5760405162461bcd60e51b815260206004820152600e60248201526d496e76616c69642070726f6f662160901b6044820152606401610b11565b61163b600d80546001019055565b6000611646600d5490565b905061165288886125c7565b6001600160a01b0388166000908152600f60205260408120805460ff1916600117905560155461168b906103e890610c419060216125e1565b6018549091506116aa906201000090046001600160a01b0316826125f9565b60006116b583612143565b90507f268b08d15742710b15087dd93f7713e5e48e9648eafa6549133b936957b537a583828c6040516116ea93929190613859565b60405180910390a150505050505050505050565b60006001600160a01b038216611727576040516323d3ad8160e21b815260040160405180910390fd5b506001600160a01b03166000908152600560205260409020546001600160401b031690565b6008546001600160a01b031633146117a65760405162461bcd60e51b815260206004820181905260248201527f4f776e61626c653a2063616c6c6572206973206e6f7420746865206f776e65726044820152606401610b11565b6117b06000612acc565b565b600b546001600160a01b031633146117dc5760405162461bcd60e51b8152600401610b11906138c5565b601a80546001600160a01b0319166001600160a01b0392909216919091179055565b600b546001600160a01b031633146118285760405162461bcd60e51b8152600401610b11906138c5565b600e55565b600b546001600160a01b031633146118575760405162461bcd60e51b8152600401610b11906138c5565b8051610eef906011906020840190612f73565b601a546060906001600160a01b031661188257919050565b601a5460405163943adee360e01b8152306004820152602481018490526001600160a01b039091169063943adee390604401600060405180830381600087803b1580156118ce57600080fd5b505af11580156118e2573d6000803e3d6000fd5b505050506040513d6000823e601f3d908101601f19168201604052610d039190810190613c1a565b6060600080600061191a856116fe565b90506000816001600160401b0381111561193657611936613121565b60405190808252806020026020018201604052801561195f578160200160208202803683370190505b509050611985604080516060810182526000808252602082018190529181019190915290565b60015b838614611a4b57600081815260046020908152604091829020825160608101845290546001600160a01b0381168252600160a01b81046001600160401b031692820192909252600160e01b90910460ff161580159282019290925292506119ee57611a43565b81516001600160a01b031615611a0357815194505b876001600160a01b0316856001600160a01b03161415611a435780838780600101985081518110611a3657611a36613c04565b6020026020010181815250505b600101611988565b50909695505050505050565b80600081118015611a6a57506017548111155b611a865760405162461bcd60e51b8152600401610b11906137b0565b60165481611a9b600154600054036000190190565b611aa591906137f4565b1115611ac35760405162461bcd60e51b8152600401610b119061380c565b600a546001600160a01b0316331480611ae65750600b546001600160a01b031633145b80611afb57506008546001600160a01b031633145b611b175760405162461bcd60e51b8152600401610b119061394b565b610e6183836125c7565b60185460609060ff61010090910416151560011415611bc057601954604051632c0df8c560e01b8152306004820152602481018490526001600160a01b0390911690632c0df8c59060440160006040518083038186803b158015611b8457600080fd5b505afa158015611b98573d6000803e3d6000fd5b505050506040513d6000823e601f3d908101601f19168201604052610d039190810190613c4e565b919050565b606060038054610d189061388a565b6060818310611bf657604051631960ccad60e11b815260040160405180910390fd5b600080546001851015611c0857600194505b80841115611c14578093505b6000611c1f876116fe565b905084861015611c3e5785850381811015611c38578091505b50611c42565b5060005b6000816001600160401b03811115611c5c57611c5c613121565b604051908082528060200260200182016040528015611c85578160200160208202803683370190505b50905081611c98579350611d9392505050565b6000611ca388612089565b905060008160400151611cb4575080515b885b888114158015611cc65750848714155b15611d8757600081815260046020908152604091829020825160608101845290546001600160a01b0381168252600160a01b81046001600160401b031692820192909252600160e01b90910460ff16158015928201929092529350611d2a57611d7f565b82516001600160a01b031615611d3f57825191505b8a6001600160a01b0316826001600160a01b03161415611d7f5780848880600101995081518110611d7257611d72613c04565b6020026020010181815250505b600101611cb6565b50505092835250909150505b9392505050565b6001600160a01b038216331415611dc45760405163b06307db60e01b815260040160405180910390fd5b3360008181526007602090815260408083206001600160a01b03871680855290835292819020805460ff191686151590811790915590519081529192917f17307eab39ab6107e8899845ad3d59bd9653f200f220920489ca2b5937696c31910160405180910390a35050565b60138054610fda9061388a565b600b546001600160a01b03163314611e675760405162461bcd60e51b8152600401610b11906138c5565b601755565b600b546001600160a01b03163314611e965760405162461bcd60e51b8152600401610b11906138c5565b6010805460ff1916911515919091179055565b611eb48484846127a7565b6001600160a01b0383163b15611eed57611ed084848484612b1e565b611eed576040516368d2bf6b60e11b815260040160405180910390fd5b50505050565b600a546001600160a01b03163314611f1d5760405162461bcd60e51b8152600401610b1190613908565b60026009541415611f705760405162461bcd60e51b815260206004820152601f60248201527f5265656e7472616e637947756172643a207265656e7472616e742063616c6c006044820152606401610b11565b600260098190555060004790506000306001600160a01b0316633b19e84a6040518163ffffffff1660e01b815260040160206040518083038186803b158015611fb857600080fd5b505afa158015611fcc573d6000803e3d6000fd5b505050506040513d601f19601f82011682018060405250810190611ff09190613cf1565b6001600160a01b03168260405160006040518083038185875af1925050503d806000811461203a576040519150601f19603f3d011682016040523d82523d6000602084013e61203f565b606091505b505090508061204d57600080fd5b6040518281527f4a37b25aab49761ecf63117fe82b98d750917451133cf797507bc9fb5b96044a9060200160405180910390a150506001600955565b604080516060808201835260008083526020808401829052838501829052845192830185528183528201819052928101929092529060018310806120cf57506000548310155b156120da5792915050565b50600082815260046020908152604091829020825160608101845290546001600160a01b0381168252600160a01b81046001600160401b031692820192909252600160e01b90910460ff16158015928201929092529061213a5792915050565b611d9383612994565b606061214e82612712565b6121b25760405162461bcd60e51b815260206004820152602f60248201527f4552433732314d657461646174613a2055524920717565727920666f72206e6f60448201526e3732bc34b9ba32b73a103a37b5b2b760891b6064820152608401610b11565b601854610100900460ff1661225357601380546121ce9061388a565b80601f01602080910402602001604051908101604052809291908181526020018280546121fa9061388a565b80156122475780601f1061221c57610100808354040283529160200191612247565b820191906000526020600020905b81548152906001019060200180831161222a57829003601f168201915b50505050509050919050565b600061225d612c16565b9050600081511161227d5760405180602001604052806000815250611d93565b8061228784612c25565b601260405160200161229b93929190613d0e565b6040516020818303038152906040529392505050565b600a546000906001600160a01b03163314806122d75750600b546001600160a01b031633145b806122ec57506008546001600160a01b031633145b6123085760405162461bcd60e51b8152600401610b119061394b565b50600a546001600160a01b031690565b600b546001600160a01b031633146123425760405162461bcd60e51b8152600401610b11906138c5565b601880549115156101000261ff0019909216919091179055565b6001600160a01b03918216600090815260076020908152604080832093909416825291909152205460ff1690565b600a546001600160a01b031633146123b45760405162461bcd60e51b8152600401610b1190613908565b600c80546001600160a01b0319166001600160a01b0383169081179091556040519081527f7dae230f18360d76a040c81f050aa14eb9d6dc7901b20fc5d855e2a20fe814d190602001610fc2565b6008546001600160a01b0316331461245c5760405162461bcd60e51b815260206004820181905260248201527f4f776e61626c653a2063616c6c6572206973206e6f7420746865206f776e65726044820152606401610b11565b6001600160a01b0381166124c15760405162461bcd60e51b815260206004820152602660248201527f4f776e61626c653a206e6577206f776e657220697320746865207a65726f206160448201526564647265737360d01b6064820152608401610b11565b6124ca81612acc565b50565b600a546001600160a01b03163314806124f05750600b546001600160a01b031633145b8061250557506008546001600160a01b031633145b6125215760405162461bcd60e51b8152600401610b119061394b565b6001600160a01b03811661253457600080fd5b600b80546001600160a01b0319166001600160a01b0383169081179091556040519081527f1f93b83ae610ff0234bc9cdd94f27cc0000fc5c6e4b021ece77a1fcb043df06290602001610fc2565b610eef8282604051602401612598929190613dd2565b60408051601f198184030181529190526020810180516001600160e01b031663319af33360e01b179052612d22565b610eef828260405180602001604052806000815250612d43565b6000611d93828461383a565b6000611d938284613e12565b804710156126495760405162461bcd60e51b815260206004820152601d60248201527f416464726573733a20696e73756666696369656e742062616c616e63650000006044820152606401610b11565b6000826001600160a01b03168260405160006040518083038185875af1925050503d8060008114612696576040519150601f19603f3d011682016040523d82523d6000602084013e61269b565b606091505b5050905080610e615760405162461bcd60e51b815260206004820152603a60248201527f416464726573733a20756e61626c6520746f2073656e642076616c75652c207260448201527f6563697069656e74206d617920686176652072657665727465640000000000006064820152608401610b11565b600081600111158015612726575060005482105b8015610d03575050600090815260046020526040902054600160e01b900460ff161590565b60008281526006602052604080822080546001600160a01b0319166001600160a01b0387811691821790925591518593918516917f8c5be1e5ebec7d5bd14f71427d1e84f3dd0314c0f7b2291e5b200ac8c7c3b92591a4505050565b60006127b282612994565b9050836001600160a01b031681600001516001600160a01b0316146127e95760405162a1148160e81b815260040160405180910390fd5b6000336001600160a01b03861614806128075750612807853361235c565b8061282257503361281784610d9b565b6001600160a01b0316145b90508061284257604051632ce44b5f60e11b815260040160405180910390fd5b6001600160a01b03841661286957604051633a954ecd60e21b815260040160405180910390fd5b6128756000848761274b565b6001600160a01b038581166000908152600560209081526040808320805467ffffffffffffffff198082166001600160401b0392831660001901831617909255898616808652838620805493841693831660019081018416949094179055898652600490945282852080546001600160e01b031916909417600160a01b4290921691909102178355870180845292208054919390911661294957600054821461294957805460208601516001600160401b0316600160a01b026001600160e01b03199091166001600160a01b038a16171781555b50505082846001600160a01b0316866001600160a01b03167fddf252ad1be2c89b69c2b068fc378daa952ba7f163c4a11628f55a4df523b3ef60405160405180910390a45050505050565b60408051606081018252600080825260208201819052918101919091528180600111612a9d57600054811015612a9d57600081815260046020908152604091829020825160608101845290546001600160a01b0381168252600160a01b81046001600160401b031692820192909252600160e01b90910460ff16151591810182905290612a9b5780516001600160a01b031615612a32579392505050565b5060001901600081815260046020908152604091829020825160608101845290546001600160a01b038116808352600160a01b82046001600160401b031693830193909352600160e01b900460ff1615159281019290925215612a96579392505050565b612a32565b505b604051636f96cda160e11b815260040160405180910390fd5b600082612ac38584612f07565b14949350505050565b600880546001600160a01b038381166001600160a01b0319831681179093556040519116919082907f8be0079c531659141344cd1fd0a4f28419497f9722a3daafe3b4186f6b6457e090600090a35050565b604051630a85bd0160e11b81526000906001600160a01b0385169063150b7a0290612b53903390899088908890600401613e26565b602060405180830381600087803b158015612b6d57600080fd5b505af1925050508015612b9d575060408051601f3d908101601f19168201909252612b9a91810190613e63565b60015b612bf8573d808015612bcb576040519150601f19603f3d011682016040523d82523d6000602084013e612bd0565b606091505b508051612bf0576040516368d2bf6b60e11b815260040160405180910390fd5b805181602001fd5b6001600160e01b031916630a85bd0160e11b1490505b949350505050565b606060118054610d189061388a565b606081612c495750506040805180820190915260018152600360fc1b602082015290565b8160005b8115612c735780612c5d81613e80565b9150612c6c9050600a83613e12565b9150612c4d565b6000816001600160401b03811115612c8d57612c8d613121565b6040519080825280601f01601f191660200182016040528015612cb7576020820181803683370190505b5090505b8415612c0e57612ccc600183613e9b565b9150612cd9600a86613eb2565b612ce49060306137f4565b60f81b818381518110612cf957612cf9613c04565b60200101906001600160f81b031916908160001a905350612d1b600a86613e12565b9450612cbb565b80516a636f6e736f6c652e6c6f67602083016000808483855afa5050505050565b6000546001600160a01b038416612d6c57604051622e076360e81b815260040160405180910390fd5b82612d8a5760405163b562e8dd60e01b815260040160405180910390fd5b6001600160a01b038416600081815260056020908152604080832080546fffffffffffffffffffffffffffffffff1981166001600160401b038083168b0181169182176801000000000000000067ffffffffffffffff1990941690921783900481168b01811690920217909155858452600490925290912080546001600160e01b0319168317600160a01b42909316929092029190911790558190818501903b15612eb2575b60405182906001600160a01b038816906000907fddf252ad1be2c89b69c2b068fc378daa952ba7f163c4a11628f55a4df523b3ef908290a4612e7b6000878480600101955087612b1e565b612e98576040516368d2bf6b60e11b815260040160405180910390fd5b808210612e30578260005414612ead57600080fd5b612ef7565b5b6040516001830192906001600160a01b038816906000907fddf252ad1be2c89b69c2b068fc378daa952ba7f163c4a11628f55a4df523b3ef908290a4808210612eb3575b506000908155611eed9085838684565b600081815b8451811015611341576000858281518110612f2957612f29613c04565b60200260200101519050808311612f4f5760008381526020829052604090209250612f60565b600081815260208490526040902092505b5080612f6b81613e80565b915050612f0c565b828054612f7f9061388a565b90600052602060002090601f016020900481019282612fa15760008555612fe7565b82601f10612fba57805160ff1916838001178555612fe7565b82800160010185558215612fe7579182015b82811115612fe7578251825591602001919060010190612fcc565b50612ff3929150612ff7565b5090565b5b80821115612ff35760008155600101612ff8565b6001600160a01b03811681146124ca57600080fd5b6000806040838503121561303457600080fd5b823561303f8161300c565b946020939093013593505050565b6001600160e01b0319811681146124ca57600080fd5b60006020828403121561307557600080fd5b8135611d938161304d565b60005b8381101561309b578181015183820152602001613083565b83811115611eed5750506000910152565b600081518084526130c4816020860160208601613080565b601f01601f19169290920160200192915050565b602081526000611d9360208301846130ac565b6000602082840312156130fd57600080fd5b5035919050565b60006020828403121561311657600080fd5b8135611d938161300c565b634e487b7160e01b600052604160045260246000fd5b60405161012081016001600160401b038111828210171561315a5761315a613121565b60405290565b604051601f8201601f191681016001600160401b038111828210171561318857613188613121565b604052919050565b60006001600160401b038211156131a9576131a9613121565b50601f01601f191660200190565b60006131ca6131c584613190565b613160565b90508281528383830111156131de57600080fd5b828260208301376000602084830101529392505050565b60006020828403121561320757600080fd5b81356001600160401b0381111561321d57600080fd5b8201601f8101841361322e57600080fd5b612c0e848235602084016131b7565b80151581146124ca57600080fd5b60006020828403121561325d57600080fd5b8135611d938161323d565b60008060006060848603121561327d57600080fd5b83356132888161300c565b925060208401356132988161300c565b929592945050506040919091013590565b600481106132c757634e487b7160e01b600052602160045260246000fd5b9052565b600081518084526020808501808196508360051b8101915082860160005b858110156133a9578284038952815180516001600160a01b031685526101208682015187870152604080830151613322828901826132a9565b5050606080830151828289015261333b838901826130ac565b925050506080808301518783038289015261335683826130ac565b9250505060a080830151818801525060c0808301516133788289018215159052565b505060e08281015190870152610100918201516001600160a01b0316919095015297840197908401906001016132e9565b5091979650505050505050565b6000602080830181845280855180835260408601915060408160051b870101925083870160005b8281101561340b57603f198886030184526133f98583516132cb565b945092850192908501906001016133dd565b5092979650505050505050565b60006001600160401b0382111561343157613431613121565b5060051b60200190565b6000602080838503121561344e57600080fd5b82356001600160401b0381111561346457600080fd5b8301601f8101851361347557600080fd5b80356134836131c582613418565b81815260059190911b820183019083810190878311156134a257600080fd5b928401925b828410156134c0578335825292840192908401906134a7565b979650505050505050565b6020808252825182820181905260009190848201906040850190845b81811015611a4b5761352283855180516001600160a01b031682526020808201516001600160401b0316908301526040908101511515910152565b92840192606092909201916001016134e7565b6000806000806060858703121561354b57600080fd5b84356135568161300c565b93506020850135925060408501356001600160401b038082111561357957600080fd5b818701915087601f83011261358d57600080fd5b81358181111561359c57600080fd5b8860208260051b85010111156135b157600080fd5b95989497505060200194505050565b602081526000611d9360208301846132cb565b6020808252825182820181905260009190848201906040850190845b81811015611a4b578351835292840192918401916001016135ef565b6000602080830181845280855180835260408601915060408160051b870101925083870160005b8281101561340b57603f1988860301845261364e8583516130ac565b94509285019290850190600101613632565b60008060006060848603121561367557600080fd5b83356136808161300c565b95602085013595506040909401359392505050565b600080604083850312156136a857600080fd5b82356136b38161300c565b915060208301356136c38161323d565b809150509250929050565b600080600080608085870312156136e457600080fd5b84356136ef8161300c565b935060208501356136ff8161300c565b92506040850135915060608501356001600160401b0381111561372157600080fd5b8501601f8101871361373257600080fd5b613741878235602084016131b7565b91505092959194509250565b81516001600160a01b031681526020808301516001600160401b03169082015260408083015115159082015260608101610d03565b6000806040838503121561379557600080fd5b82356137a08161300c565b915060208301356136c38161300c565b602080825260149082015273496e76616c6964206d696e7420616d6f756e742160601b604082015260600190565b634e487b7160e01b600052601160045260246000fd5b60008219821115613807576138076137de565b500190565b6020808252601490820152734d617820737570706c792065786365656465642160601b604082015260600190565b6000816000190483118215151615613854576138546137de565b500290565b83815260606020820152600061387260608301856130ac565b905060018060a01b0383166040830152949350505050565b600181811c9082168061389e57607f821691505b602082108114156138bf57634e487b7160e01b600052602260045260246000fd5b50919050565b60208082526023908201527f5175616e746567794c616273416363657373436f6e74726f6c3a2043544f206f6040820152626e6c7960e81b606082015260800190565b60208082526023908201527f5175616e746567794c616273416363657373436f6e74726f6c3a2043454f206f6040820152626e6c7960e81b606082015260800190565b60208082526026908201527f5175616e746567794c616273416363657373436f6e74726f6c3a2041646d696e60408201526573206f6e6c7960d01b606082015260800190565b8051611bc08161300c565b805160048110611bc057600080fd5b600082601f8301126139bc57600080fd5b81516139ca6131c582613190565b8181528460208386010111156139df57600080fd5b612c0e826020830160208701613080565b8051611bc08161323d565b600082601f830112613a0c57600080fd5b81516020613a1c6131c583613418565b82815260059290921b84018101918181019086841115613a3b57600080fd5b8286015b84811015613b495780516001600160401b0380821115613a5f5760008081fd5b90880190610120828b03601f1901811315613a7a5760008081fd5b613a82613137565b613a8d888501613991565b8152604080850151898301526060613aa681870161399c565b82840152608091508186015185811115613ac05760008081fd5b613ace8f8c838a01016139ab565b82850152505060a08086015185811115613ae85760008081fd5b613af68f8c838a01016139ab565b838501525060c094508486015181840152505060e0613b168186016139f0565b848301526101009350838501518183015250613b33828501613991565b9281019290925250845250918301918301613a3f565b509695505050505050565b60006020808385031215613b6757600080fd5b82516001600160401b0380821115613b7e57600080fd5b818501915085601f830112613b9257600080fd5b8151613ba06131c582613418565b81815260059190911b83018401908481019088831115613bbf57600080fd5b8585015b83811015613bf757805185811115613bdb5760008081fd5b613be98b89838a01016139fb565b845250918601918601613bc3565b5098975050505050505050565b634e487b7160e01b600052603260045260246000fd5b600060208284031215613c2c57600080fd5b81516001600160401b03811115613c4257600080fd5b612c0e848285016139fb565b60006020808385031215613c6157600080fd5b82516001600160401b0380821115613c7857600080fd5b818501915085601f830112613c8c57600080fd5b8151613c9a6131c582613418565b81815260059190911b83018401908481019088831115613cb957600080fd5b8585015b83811015613bf757805185811115613cd55760008081fd5b613ce38b89838a01016139ab565b845250918601918601613cbd565b600060208284031215613d0357600080fd5b8151611d938161300c565b600084516020613d218285838a01613080565b855191840191613d348184848a01613080565b8554920191600090600181811c9080831680613d5157607f831692505b858310811415613d6f57634e487b7160e01b85526022600452602485fd5b808015613d835760018114613d9457613dc1565b60ff19851688528388019550613dc1565b60008b81526020902060005b85811015613db95781548a820152908401908801613da0565b505083880195505b50939b9a5050505050505050505050565b604081526000613de560408301856130ac565b905060018060a01b03831660208301529392505050565b634e487b7160e01b600052601260045260246000fd5b600082613e2157613e21613dfc565b500490565b6001600160a01b0385811682528416602082015260408101839052608060608201819052600090613e59908301846130ac565b9695505050505050565b600060208284031215613e7557600080fd5b8151611d938161304d565b6000600019821415613e9457613e946137de565b5060010190565b600082821015613ead57613ead6137de565b500390565b600082613ec157613ec1613dfc565b50069056fea2646970667358221220a5ad0c992f3477d993784b4f2cca0cbac823972c3998b675da0b94c39d5adf8464736f6c6343000809003374686973206973206e6f7420616c6c6f77656420746f206265207365656e20756e74696c2072657665616c5175616e746567794c616273416363657373436f6e74726f6c3a2043544f206f4465706c6f79696e67205175616e746567794c616273416363657373436f6e74726f6c20636f6e74726163742066726f6d43454f20616e642043544f2061636365737320686173206265656e20676976656e20746f",
  "linkReferences": {},
  "deployedLinkReferences": {}
}