{
  "_format": "hh-sol-artifact-1",
  "contractName": "EnlightenedLizards",
  "sourceName": "contracts/EnlightenedLizards.sol",
  "abi": [
    {
      "inputs": [
        {
          "internalType": "string",
          "name": "_tokenName",
          "type": "string"
        },
        {
          "internalType": "string",
          "name": "_tokenSymbol",
          "type": "string"
        },
        {
          "internalType": "uint256",
          "name": "_cost",
          "type": "uint256"
        },
        {
          "internalType": "uint256",
          "name": "_maxSupply",
          "type": "uint256"
        },
        {
          "internalType": "uint256",
          "name": "_maxMintAmountPerTx",
          "type": "uint256"
        },
        {
          "internalType": "string",
          "name": "_hiddenMetadataUri",
          "type": "string"
        }
      ],
      "stateMutability": "nonpayable",
      "type": "constructor"
    },
    {
      "inputs": [],
      "name": "ApprovalCallerNotOwnerNorApproved",
      "type": "error"
    },
    {
      "inputs": [],
      "name": "ApprovalQueryForNonexistentToken",
      "type": "error"
    },
    {
      "inputs": [],
      "name": "ApprovalToCurrentOwner",
      "type": "error"
    },
    {
      "inputs": [],
      "name": "ApproveToCaller",
      "type": "error"
    },
    {
      "inputs": [],
      "name": "BalanceQueryForZeroAddress",
      "type": "error"
    },
    {
      "inputs": [],
      "name": "InvalidQueryRange",
      "type": "error"
    },
    {
      "inputs": [],
      "name": "MintToZeroAddress",
      "type": "error"
    },
    {
      "inputs": [],
      "name": "MintZeroQuantity",
      "type": "error"
    },
    {
      "inputs": [],
      "name": "OwnerQueryForNonexistentToken",
      "type": "error"
    },
    {
      "inputs": [],
      "name": "TransferCallerNotOwnerNorApproved",
      "type": "error"
    },
    {
      "inputs": [],
      "name": "TransferFromIncorrectOwner",
      "type": "error"
    },
    {
      "inputs": [],
      "name": "TransferToNonERC721ReceiverImplementer",
      "type": "error"
    },
    {
      "inputs": [],
      "name": "TransferToZeroAddress",
      "type": "error"
    },
    {
      "inputs": [],
      "name": "URIQueryForNonexistentToken",
      "type": "error"
    },
    {
      "anonymous": false,
      "inputs": [
        {
          "indexed": true,
          "internalType": "address",
          "name": "owner",
          "type": "address"
        },
        {
          "indexed": true,
          "internalType": "address",
          "name": "approved",
          "type": "address"
        },
        {
          "indexed": true,
          "internalType": "uint256",
          "name": "tokenId",
          "type": "uint256"
        }
      ],
      "name": "Approval",
      "type": "event"
    },
    {
      "anonymous": false,
      "inputs": [
        {
          "indexed": true,
          "internalType": "address",
          "name": "owner",
          "type": "address"
        },
        {
          "indexed": true,
          "internalType": "address",
          "name": "operator",
          "type": "address"
        },
        {
          "indexed": false,
          "internalType": "bool",
          "name": "approved",
          "type": "bool"
        }
      ],
      "name": "ApprovalForAll",
      "type": "event"
    },
    {
      "anonymous": false,
      "inputs": [
        {
          "indexed": false,
          "internalType": "address",
          "name": "newCEO",
          "type": "address"
        }
      ],
      "name": "CEOUpdated",
      "type": "event"
    },
    {
      "anonymous": false,
      "inputs": [
        {
          "indexed": false,
          "internalType": "address",
          "name": "newCTO",
          "type": "address"
        }
      ],
      "name": "CTOUpdated",
      "type": "event"
    },
    {
      "anonymous": false,
      "inputs": [
        {
          "indexed": false,
          "internalType": "uint256",
          "name": "balance",
          "type": "uint256"
        }
      ],
      "name": "FundsWithdrawn",
      "type": "event"
    },
    {
      "anonymous": false,
      "inputs": [
        {
          "indexed": false,
          "internalType": "uint256",
          "name": "tokenId",
          "type": "uint256"
        },
        {
          "indexed": false,
          "internalType": "string",
          "name": "tokenURI",
          "type": "string"
        },
        {
          "indexed": false,
          "internalType": "address",
          "name": "phan",
          "type": "address"
        }
      ],
      "name": "NewLizardMinted",
      "type": "event"
    },
    {
      "anonymous": false,
      "inputs": [
        {
          "indexed": true,
          "internalType": "address",
          "name": "previousOwner",
          "type": "address"
        },
        {
          "indexed": true,
          "internalType": "address",
          "name": "newOwner",
          "type": "address"
        }
      ],
      "name": "OwnershipTransferred",
      "type": "event"
    },
    {
      "anonymous": false,
      "inputs": [
        {
          "indexed": true,
          "internalType": "address",
          "name": "from",
          "type": "address"
        },
        {
          "indexed": true,
          "internalType": "address",
          "name": "to",
          "type": "address"
        },
        {
          "indexed": true,
          "internalType": "uint256",
          "name": "tokenId",
          "type": "uint256"
        }
      ],
      "name": "Transfer",
      "type": "event"
    },
    {
      "anonymous": false,
      "inputs": [
        {
          "indexed": false,
          "internalType": "address",
          "name": "newTreasuryAddress",
          "type": "address"
        }
      ],
      "name": "TreasuryUpdated",
      "type": "event"
    },
    {
      "inputs": [
        {
          "internalType": "address",
          "name": "_receiver",
          "type": "address"
        },
        {
          "internalType": "uint256",
          "name": "_mintAmount",
          "type": "uint256"
        }
      ],
      "name": "adminMintLizard",
      "outputs": [],
      "stateMutability": "nonpayable",
      "type": "function"
    },
    {
      "inputs": [
        {
          "internalType": "address",
          "name": "to",
          "type": "address"
        },
        {
          "internalType": "uint256",
          "name": "tokenId",
          "type": "uint256"
        }
      ],
      "name": "approve",
      "outputs": [],
      "stateMutability": "nonpayable",
      "type": "function"
    },
    {
      "inputs": [
        {
          "internalType": "address",
          "name": "owner",
          "type": "address"
        }
      ],
      "name": "balanceOf",
      "outputs": [
        {
          "internalType": "uint256",
          "name": "",
          "type": "uint256"
        }
      ],
      "stateMutability": "view",
      "type": "function"
    },
    {
      "inputs": [],
      "name": "claimCenterAddress",
      "outputs": [
        {
          "internalType": "address",
          "name": "",
          "type": "address"
        }
      ],
      "stateMutability": "view",
      "type": "function"
    },
    {
      "inputs": [],
      "name": "cost",
      "outputs": [
        {
          "internalType": "uint256",
          "name": "",
          "type": "uint256"
        }
      ],
      "stateMutability": "view",
      "type": "function"
    },
    {
      "inputs": [
        {
          "internalType": "uint256",
          "name": "tokenId",
          "type": "uint256"
        }
      ],
      "name": "explicitOwnershipOf",
      "outputs": [
        {
          "components": [
            {
              "internalType": "address",
              "name": "addr",
              "type": "address"
            },
            {
              "internalType": "uint64",
              "name": "startTimestamp",
              "type": "uint64"
            },
            {
              "internalType": "bool",
              "name": "burned",
              "type": "bool"
            }
          ],
          "internalType": "struct IERC721A.TokenOwnership",
          "name": "",
          "type": "tuple"
        }
      ],
      "stateMutability": "view",
      "type": "function"
    },
    {
      "inputs": [
        {
          "internalType": "uint256[]",
          "name": "tokenIds",
          "type": "uint256[]"
        }
      ],
      "name": "explicitOwnershipsOf",
      "outputs": [
        {
          "components": [
            {
              "internalType": "address",
              "name": "addr",
              "type": "address"
            },
            {
              "internalType": "uint64",
              "name": "startTimestamp",
              "type": "uint64"
            },
            {
              "internalType": "bool",
              "name": "burned",
              "type": "bool"
            }
          ],
          "internalType": "struct IERC721A.TokenOwnership[]",
          "name": "",
          "type": "tuple[]"
        }
      ],
      "stateMutability": "view",
      "type": "function"
    },
    {
      "inputs": [],
      "name": "fundTreasury",
      "outputs": [],
      "stateMutability": "nonpayable",
      "type": "function"
    },
    {
      "inputs": [
        {
          "internalType": "uint256",
          "name": "tokenId",
          "type": "uint256"
        }
      ],
      "name": "getApproved",
      "outputs": [
        {
          "internalType": "address",
          "name": "",
          "type": "address"
        }
      ],
      "stateMutability": "view",
      "type": "function"
    },
    {
      "inputs": [],
      "name": "getCEO",
      "outputs": [
        {
          "internalType": "address",
          "name": "",
          "type": "address"
        }
      ],
      "stateMutability": "view",
      "type": "function"
    },
    {
      "inputs": [],
      "name": "getCTO",
      "outputs": [
        {
          "internalType": "address",
          "name": "",
          "type": "address"
        }
      ],
      "stateMutability": "view",
      "type": "function"
    },
    {
      "inputs": [],
      "name": "getTreasury",
      "outputs": [
        {
          "internalType": "address",
          "name": "",
          "type": "address"
        }
      ],
      "stateMutability": "view",
      "type": "function"
    },
    {
      "inputs": [],
      "name": "hiddenMetadataUri",
      "outputs": [
        {
          "internalType": "string",
          "name": "",
          "type": "string"
        }
      ],
      "stateMutability": "view",
      "type": "function"
    },
    {
      "inputs": [],
      "name": "hiddenRightsUri",
      "outputs": [
        {
          "internalType": "string",
          "name": "",
          "type": "string"
        }
      ],
      "stateMutability": "view",
      "type": "function"
    },
    {
      "inputs": [
        {
          "internalType": "address",
          "name": "owner",
          "type": "address"
        },
        {
          "internalType": "address",
          "name": "operator",
          "type": "address"
        }
      ],
      "name": "isApprovedForAll",
      "outputs": [
        {
          "internalType": "bool",
          "name": "",
          "type": "bool"
        }
      ],
      "stateMutability": "view",
      "type": "function"
    },
    {
      "inputs": [],
      "name": "maxMintAmountPerTx",
      "outputs": [
        {
          "internalType": "uint256",
          "name": "",
          "type": "uint256"
        }
      ],
      "stateMutability": "view",
      "type": "function"
    },
    {
      "inputs": [],
      "name": "maxSupply",
      "outputs": [
        {
          "internalType": "uint256",
          "name": "",
          "type": "uint256"
        }
      ],
      "stateMutability": "view",
      "type": "function"
    },
    {
      "inputs": [],
      "name": "merkleRoot",
      "outputs": [
        {
          "internalType": "bytes32",
          "name": "",
          "type": "bytes32"
        }
      ],
      "stateMutability": "view",
      "type": "function"
    },
    {
      "inputs": [
        {
          "internalType": "address",
          "name": "_phan",
          "type": "address"
        },
        {
          "internalType": "uint256",
          "name": "_mintAmount",
          "type": "uint256"
        }
      ],
      "name": "mintLizard",
      "outputs": [],
      "stateMutability": "payable",
      "type": "function"
    },
    {
      "inputs": [],
      "name": "name",
      "outputs": [
        {
          "internalType": "string",
          "name": "",
          "type": "string"
        }
      ],
      "stateMutability": "view",
      "type": "function"
    },
    {
      "inputs": [],
      "name": "owner",
      "outputs": [
        {
          "internalType": "address",
          "name": "",
          "type": "address"
        }
      ],
      "stateMutability": "view",
      "type": "function"
    },
    {
      "inputs": [
        {
          "internalType": "uint256",
          "name": "tokenId",
          "type": "uint256"
        }
      ],
      "name": "ownerOf",
      "outputs": [
        {
          "internalType": "address",
          "name": "",
          "type": "address"
        }
      ],
      "stateMutability": "view",
      "type": "function"
    },
    {
      "inputs": [],
      "name": "paused",
      "outputs": [
        {
          "internalType": "bool",
          "name": "",
          "type": "bool"
        }
      ],
      "stateMutability": "view",
      "type": "function"
    },
    {
      "inputs": [],
      "name": "renounceOwnership",
      "outputs": [],
      "stateMutability": "nonpayable",
      "type": "function"
    },
    {
      "inputs": [],
      "name": "revealed",
      "outputs": [
        {
          "internalType": "bool",
          "name": "",
          "type": "bool"
        }
      ],
      "stateMutability": "view",
      "type": "function"
    },
    {
      "inputs": [],
      "name": "rightsProtocolAddress",
      "outputs": [
        {
          "internalType": "address",
          "name": "",
          "type": "address"
        }
      ],
      "stateMutability": "view",
      "type": "function"
    },
    {
      "inputs": [
        {
          "internalType": "uint256",
          "name": "_tokenId",
          "type": "uint256"
        }
      ],
      "name": "rightsURIs",
      "outputs": [
        {
          "internalType": "string[]",
          "name": "tokenRightsUris",
          "type": "string[]"
        }
      ],
      "stateMutability": "view",
      "type": "function"
    },
    {
      "inputs": [
        {
          "internalType": "address",
          "name": "from",
          "type": "address"
        },
        {
          "internalType": "address",
          "name": "to",
          "type": "address"
        },
        {
          "internalType": "uint256",
          "name": "tokenId",
          "type": "uint256"
        }
      ],
      "name": "safeTransferFrom",
      "outputs": [],
      "stateMutability": "nonpayable",
      "type": "function"
    },
    {
      "inputs": [
        {
          "internalType": "address",
          "name": "from",
          "type": "address"
        },
        {
          "internalType": "address",
          "name": "to",
          "type": "address"
        },
        {
          "internalType": "uint256",
          "name": "tokenId",
          "type": "uint256"
        },
        {
          "internalType": "bytes",
          "name": "_data",
          "type": "bytes"
        }
      ],
      "name": "safeTransferFrom",
      "outputs": [],
      "stateMutability": "nonpayable",
      "type": "function"
    },
    {
      "inputs": [
        {
          "internalType": "address",
          "name": "operator",
          "type": "address"
        },
        {
          "internalType": "bool",
          "name": "approved",
          "type": "bool"
        }
      ],
      "name": "setApprovalForAll",
      "outputs": [],
      "stateMutability": "nonpayable",
      "type": "function"
    },
    {
      "inputs": [
        {
          "internalType": "address",
          "name": "_newCEO",
          "type": "address"
        }
      ],
      "name": "setCEO",
      "outputs": [],
      "stateMutability": "nonpayable",
      "type": "function"
    },
    {
      "inputs": [
        {
          "internalType": "address",
          "name": "_newCTO",
          "type": "address"
        }
      ],
      "name": "setCTO",
      "outputs": [],
      "stateMutability": "nonpayable",
      "type": "function"
    },
    {
      "inputs": [
        {
          "internalType": "address",
          "name": "_claimCenterAddress",
          "type": "address"
        }
      ],
      "name": "setClaimCenterAddress",
      "outputs": [],
      "stateMutability": "nonpayable",
      "type": "function"
    },
    {
      "inputs": [
        {
          "internalType": "uint256",
          "name": "_cost",
          "type": "uint256"
        }
      ],
      "name": "setCost",
      "outputs": [],
      "stateMutability": "nonpayable",
      "type": "function"
    },
    {
      "inputs": [
        {
          "internalType": "string",
          "name": "_hiddenMetadataUri",
          "type": "string"
        }
      ],
      "name": "setHiddenMetadataUri",
      "outputs": [],
      "stateMutability": "nonpayable",
      "type": "function"
    },
    {
      "inputs": [
        {
          "internalType": "uint256",
          "name": "_maxMintAmountPerTx",
          "type": "uint256"
        }
      ],
      "name": "setMaxMintAmountPerTx",
      "outputs": [],
      "stateMutability": "nonpayable",
      "type": "function"
    },
    {
      "inputs": [
        {
          "internalType": "bytes32",
          "name": "_merkleRoot",
          "type": "bytes32"
        }
      ],
      "name": "setMerkleRoot",
      "outputs": [],
      "stateMutability": "nonpayable",
      "type": "function"
    },
    {
      "inputs": [
        {
          "internalType": "bool",
          "name": "_state",
          "type": "bool"
        }
      ],
      "name": "setPaused",
      "outputs": [],
      "stateMutability": "nonpayable",
      "type": "function"
    },
    {
      "inputs": [
        {
          "internalType": "bool",
          "name": "_state",
          "type": "bool"
        }
      ],
      "name": "setRevealed",
      "outputs": [],
      "stateMutability": "nonpayable",
      "type": "function"
    },
    {
      "inputs": [
        {
          "internalType": "address payable",
          "name": "rightsFeeRecipient_",
          "type": "address"
        }
      ],
      "name": "setRightsFeeRecipient",
      "outputs": [],
      "stateMutability": "nonpayable",
      "type": "function"
    },
    {
      "inputs": [
        {
          "internalType": "address",
          "name": "rightsProtocolAddress_",
          "type": "address"
        }
      ],
      "name": "setRightsProtocolAddress",
      "outputs": [],
      "stateMutability": "nonpayable",
      "type": "function"
    },
    {
      "inputs": [
        {
          "internalType": "address payable",
          "name": "_treasury",
          "type": "address"
        }
      ],
      "name": "setTreasury",
      "outputs": [],
      "stateMutability": "nonpayable",
      "type": "function"
    },
    {
      "inputs": [
        {
          "internalType": "string",
          "name": "_uriPrefix",
          "type": "string"
        }
      ],
      "name": "setUriPrefix",
      "outputs": [],
      "stateMutability": "nonpayable",
      "type": "function"
    },
    {
      "inputs": [
        {
          "internalType": "string",
          "name": "_uriSuffix",
          "type": "string"
        }
      ],
      "name": "setUriSuffix",
      "outputs": [],
      "stateMutability": "nonpayable",
      "type": "function"
    },
    {
      "inputs": [
        {
          "internalType": "bool",
          "name": "_state",
          "type": "bool"
        }
      ],
      "name": "setWhitelistMintEnabled",
      "outputs": [],
      "stateMutability": "nonpayable",
      "type": "function"
    },
    {
      "inputs": [
        {
          "internalType": "bytes4",
          "name": "interfaceId",
          "type": "bytes4"
        }
      ],
      "name": "supportsInterface",
      "outputs": [
        {
          "internalType": "bool",
          "name": "",
          "type": "bool"
        }
      ],
      "stateMutability": "view",
      "type": "function"
    },
    {
      "inputs": [],
      "name": "symbol",
      "outputs": [
        {
          "internalType": "string",
          "name": "",
          "type": "string"
        }
      ],
      "stateMutability": "view",
      "type": "function"
    },
    {
      "inputs": [
        {
          "internalType": "uint256",
          "name": "_tokenId",
          "type": "uint256"
        }
      ],
      "name": "tokenRedeemables",
      "outputs": [
        {
          "components": [
            {
              "internalType": "address",
              "name": "collectionAddress",
              "type": "address"
            },
            {
              "internalType": "uint256",
              "name": "tokenId",
              "type": "uint256"
            },
            {
              "internalType": "enum RedeemableType",
              "name": "redeemableType",
              "type": "uint8"
            },
            {
              "internalType": "string",
              "name": "key",
              "type": "string"
            },
            {
              "internalType": "string",
              "name": "name",
              "type": "string"
            },
            {
              "internalType": "uint256",
              "name": "createdAt",
              "type": "uint256"
            },
            {
              "internalType": "bool",
              "name": "claimed",
              "type": "bool"
            },
            {
              "internalType": "uint256",
              "name": "claimedAt",
              "type": "uint256"
            },
            {
              "internalType": "address",
              "name": "claimedBy",
              "type": "address"
            }
          ],
          "internalType": "struct RedeemableItem[]",
          "name": "redeemableItems",
          "type": "tuple[]"
        }
      ],
      "stateMutability": "nonpayable",
      "type": "function"
    },
    {
      "inputs": [
        {
          "internalType": "uint256",
          "name": "_tokenId",
          "type": "uint256"
        }
      ],
      "name": "tokenURI",
      "outputs": [
        {
          "internalType": "string",
          "name": "",
          "type": "string"
        }
      ],
      "stateMutability": "view",
      "type": "function"
    },
    {
      "inputs": [
        {
          "internalType": "address",
          "name": "owner",
          "type": "address"
        }
      ],
      "name": "tokensOfOwner",
      "outputs": [
        {
          "internalType": "uint256[]",
          "name": "",
          "type": "uint256[]"
        }
      ],
      "stateMutability": "view",
      "type": "function"
    },
    {
      "inputs": [
        {
          "internalType": "address",
          "name": "owner",
          "type": "address"
        },
        {
          "internalType": "uint256",
          "name": "start",
          "type": "uint256"
        },
        {
          "internalType": "uint256",
          "name": "stop",
          "type": "uint256"
        }
      ],
      "name": "tokensOfOwnerIn",
      "outputs": [
        {
          "internalType": "uint256[]",
          "name": "",
          "type": "uint256[]"
        }
      ],
      "stateMutability": "view",
      "type": "function"
    },
    {
      "inputs": [],
      "name": "totalSupply",
      "outputs": [
        {
          "internalType": "uint256",
          "name": "",
          "type": "uint256"
        }
      ],
      "stateMutability": "view",
      "type": "function"
    },
    {
      "inputs": [
        {
          "internalType": "address",
          "name": "from",
          "type": "address"
        },
        {
          "internalType": "address",
          "name": "to",
          "type": "address"
        },
        {
          "internalType": "uint256",
          "name": "tokenId",
          "type": "uint256"
        }
      ],
      "name": "transferFrom",
      "outputs": [],
      "stateMutability": "nonpayable",
      "type": "function"
    },
    {
      "inputs": [
        {
          "internalType": "address",
          "name": "newOwner",
          "type": "address"
        }
      ],
      "name": "transferOwnership",
      "outputs": [],
      "stateMutability": "nonpayable",
      "type": "function"
    },
    {
      "inputs": [],
      "name": "uriPrefix",
      "outputs": [
        {
          "internalType": "string",
          "name": "",
          "type": "string"
        }
      ],
      "stateMutability": "view",
      "type": "function"
    },
    {
      "inputs": [],
      "name": "uriSuffix",
      "outputs": [
        {
          "internalType": "string",
          "name": "",
          "type": "string"
        }
      ],
      "stateMutability": "view",
      "type": "function"
    },
    {
      "inputs": [
        {
          "internalType": "address",
          "name": "",
          "type": "address"
        }
      ],
      "name": "whitelistClaimed",
      "outputs": [
        {
          "internalType": "bool",
          "name": "",
          "type": "bool"
        }
      ],
      "stateMutability": "view",
      "type": "function"
    },
    {
      "inputs": [],
      "name": "whitelistMintEnabled",
      "outputs": [
        {
          "internalType": "bool",
          "name": "",
          "type": "bool"
        }
      ],
      "stateMutability": "view",
      "type": "function"
    },
    {
      "inputs": [
        {
          "internalType": "address",
          "name": "_phan",
          "type": "address"
        },
        {
          "internalType": "uint256",
          "name": "_mintAmount",
          "type": "uint256"
        },
        {
          "internalType": "bytes32[]",
          "name": "_merkleProof",
          "type": "bytes32[]"
        }
      ],
      "name": "whitelistMintLizard",
      "outputs": [],
      "stateMutability": "payable",
      "type": "function"
    }
  ],
  "bytecode": "0x6010805460ff1916905560a06040819052600060808190526200002591601191620003ee565b5060408051808201909152600580825264173539b7b760d91b60209092019182526200005491601291620003ee565b506040518060600160405280602b8152602001620043b7602b913980516200008591601491602090910190620003ee565b506018805461ffff19166001179055348015620000a157600080fd5b506040516200445738038062004457833981016040819052620000c4916200056e565b855186908690620000dd906002906020850190620003ee565b508051620000f3906003906020840190620003ee565b50506001600055506200010633620001c2565b60016009819055506200013e6040518060600160405280603181526020016200440260319139336200021460201b620024b91760201c565b6200016e6040518060600160405280602481526020016200443360249139336200021460201b620024b91760201c565b600a8054336001600160a01b03199182168117909255600b805490911690911790556200019b8462000265565b6016839055620001ab8262000305565b620001b68162000361565b5050505050506200069e565b600880546001600160a01b038381166001600160a01b0319831681179093556040519116919082907f8be0079c531659141344cd1fd0a4f28419497f9722a3daafe3b4186f6b6457e090600090a35050565b6200026182826040516024016200022d9291906200061b565b60408051601f198184030181529190526020810180516001600160e01b0390811663319af33360e01b17909152620003cd16565b5050565b600a546001600160a01b0316331480620002895750600b546001600160a01b031633145b806200029f57506008546001600160a01b031633145b620003005760405162461bcd60e51b815260206004820152602660248201527f5175616e746567794c616273416363657373436f6e74726f6c3a2041646d696e60448201526573206f6e6c7960d01b60648201526084015b60405180910390fd5b601555565b600b546001600160a01b031633146200035c5760405162461bcd60e51b81526020600482015260236024820152600080516020620043e28339815191526044820152626e6c7960e81b6064820152608401620002f7565b601755565b600b546001600160a01b03163314620003b85760405162461bcd60e51b81526020600482015260236024820152600080516020620043e28339815191526044820152626e6c7960e81b6064820152608401620002f7565b805162000261906013906020840190620003ee565b80516a636f6e736f6c652e6c6f67602083016000808483855afa5050505050565b828054620003fc9062000661565b90600052602060002090601f0160209004810192826200042057600085556200046b565b82601f106200043b57805160ff19168380011785556200046b565b828001600101855582156200046b579182015b828111156200046b5782518255916020019190600101906200044e565b50620004799291506200047d565b5090565b5b808211156200047957600081556001016200047e565b634e487b7160e01b600052604160045260246000fd5b60005b83811015620004c7578181015183820152602001620004ad565b83811115620004d7576000848401525b50505050565b600082601f830112620004ef57600080fd5b81516001600160401b03808211156200050c576200050c62000494565b604051601f8301601f19908116603f0116810190828211818310171562000537576200053762000494565b816040528381528660208588010111156200055157600080fd5b62000564846020830160208901620004aa565b9695505050505050565b60008060008060008060c087890312156200058857600080fd5b86516001600160401b0380821115620005a057600080fd5b620005ae8a838b01620004dd565b97506020890151915080821115620005c557600080fd5b620005d38a838b01620004dd565b965060408901519550606089015194506080890151935060a0890151915080821115620005ff57600080fd5b506200060e89828a01620004dd565b9150509295509295509295565b60408152600083518060408401526200063c816060850160208801620004aa565b6001600160a01b0393909316602083015250601f91909101601f191601606001919050565b600181811c908216806200067657607f821691505b602082108114156200069857634e487b7160e01b600052602260045260246000fd5b50919050565b613d0980620006ae6000396000f3fe60806040526004361061038c5760003560e01c806370a08231116101dc578063a689be5311610102578063c8b0e68d116100a0578063e985e9c51161006f578063e985e9c514610a35578063f0f4426014610a55578063f2fde38b14610a75578063fe1439b414610a9557600080fd5b8063c8b0e68d146109ba578063d5abeb01146109cf578063db4bec44146109e5578063e0a8085314610a1557600080fd5b8063b88d4fde116100dc578063b88d4fde14610938578063b9c1868514610958578063c23dc68f1461096d578063c87b56dd1461099a57600080fd5b8063a689be53146108d8578063b071401b146108f8578063b767a0981461091857600080fd5b80638886a6ee1161017a57806395d89b411161014957806395d89b411461086e57806399a2557a14610883578063a22cb465146108a3578063a45ba8e7146108c357600080fd5b80638886a6ee146107ed5780638da5cb5b1461080d5780638e7554851461082b57806394354fd01461085857600080fd5b80637cb64759116101b65780637cb64759146107535780637ec4a659146107735780637f7ab7f3146107935780638462151c146107c057600080fd5b806370a08231146106fe578063715018a61461071e5780637b06da401461073357600080fd5b80633b19e84a116102c15780635bbb21771161025f578063686ce3911161022e578063686ce3911461069c5780636caede3d146106b15780636db486e8146106cb5780636dd95f10146106eb57600080fd5b80635bbb2177146106205780635c975abb1461064d57806362b99ad4146106675780636352211e1461067c57600080fd5b806344a0d68a1161029b57806344a0d68a146105ac5780634fdd43cb146105cc57806351830227146105ec5780635503a0e81461060b57600080fd5b80633b19e84a1461056257806342842e0e14610577578063433fac851461059757600080fd5b806316ba10e01161032e57806323b872dd1161030857806323b872dd146104f757806327d7874c146105175780632eb4a7ab146105375780632fc227c31461054d57600080fd5b806316ba10e01461049957806316c38b3c146104b957806318160ddd146104d957600080fd5b8063081812fc1161036a578063081812fc146103fd578063095ea7b31461043557806312bfe49c1461045557806313faede61461047557600080fd5b806301b87ef61461039157806301ffc9a7146103a657806306fdde03146103db575b600080fd5b6103a461039f366004612f58565b610ab5565b005b3480156103b257600080fd5b506103c66103c1366004612f9a565b610c8a565b60405190151581526020015b60405180910390f35b3480156103e757600080fd5b506103f0610cdc565b6040516103d2919061300f565b34801561040957600080fd5b5061041d610418366004613022565b610d6e565b6040516001600160a01b0390911681526020016103d2565b34801561044157600080fd5b506103a4610450366004612f58565b610db2565b34801561046157600080fd5b506103a461047036600461303b565b610e39565b34801561048157600080fd5b5061048b60155481565b6040519081526020016103d2565b3480156104a557600080fd5b506103a46104b436600461312c565b610e85565b3480156104c557600080fd5b506103a46104d4366004613182565b610ec6565b3480156104e557600080fd5b5061048b600154600054036000190190565b34801561050357600080fd5b506103a461051236600461319f565b610f03565b34801561052357600080fd5b506103a461053236600461303b565b610f0e565b34801561054357600080fd5b5061048b600e5481565b34801561055957600080fd5b506103f0610fa0565b34801561056e57600080fd5b5061041d61102e565b34801561058357600080fd5b506103a461059236600461319f565b611095565b3480156105a357600080fd5b5061041d6110b0565b3480156105b857600080fd5b506103a46105c7366004613022565b611117565b3480156105d857600080fd5b506103a46105e736600461312c565b611170565b3480156105f857600080fd5b506018546103c690610100900460ff1681565b34801561061757600080fd5b506103f06111ad565b34801561062c57600080fd5b5061064061063b366004613203565b6111ba565b6040516103d29190613293565b34801561065957600080fd5b506018546103c69060ff1681565b34801561067357600080fd5b506103f0611280565b34801561068857600080fd5b5061041d610697366004613022565b61128d565b3480156106a857600080fd5b5061041d61129f565b3480156106bd57600080fd5b506010546103c69060ff1681565b3480156106d757600080fd5b506103a46106e636600461303b565b6112dc565b6103a46106f93660046132fd565b611330565b34801561070a57600080fd5b5061048b61071936600461303b565b611635565b34801561072a57600080fd5b506103a4611683565b34801561073f57600080fd5b506103a461074e36600461303b565b6116e9565b34801561075f57600080fd5b506103a461076e366004613022565b611735565b34801561077f57600080fd5b506103a461078e36600461312c565b611764565b34801561079f57600080fd5b506107b36107ae366004613022565b6117a1565b6040516103d291906133aa565b3480156107cc57600080fd5b506107e06107db36600461303b565b611841565b6040516103d291906134a0565b3480156107f957600080fd5b506103a4610808366004612f58565b61198e565b34801561081957600080fd5b506008546001600160a01b031661041d565b34801561083757600080fd5b5061084b610846366004613022565b611a58565b6040516103d291906134d8565b34801561086457600080fd5b5061048b60175481565b34801561087a57600080fd5b506103f0611afc565b34801561088f57600080fd5b506107e061089e36600461353a565b611b0b565b3480156108af57600080fd5b506103a46108be36600461356f565b611cd1565b3480156108cf57600080fd5b506103f0611d67565b3480156108e457600080fd5b50601a5461041d906001600160a01b031681565b34801561090457600080fd5b506103a4610913366004613022565b611d74565b34801561092457600080fd5b506103a4610933366004613182565b611da3565b34801561094457600080fd5b506103a46109533660046135a8565b611de0565b34801561096457600080fd5b506103a4611e2a565b34801561097957600080fd5b5061098d610988366004613022565b611fc0565b6040516103d29190613627565b3480156109a657600080fd5b506103f06109b5366004613022565b61207a565b3480156109c657600080fd5b5061041d6121e8565b3480156109db57600080fd5b5061048b60165481565b3480156109f157600080fd5b506103c6610a0036600461303b565b600f6020526000908152604090205460ff1681565b348015610a2157600080fd5b506103a4610a30366004613182565b61224f565b348015610a4157600080fd5b506103c6610a5036600461365c565b612293565b348015610a6157600080fd5b506103a4610a7036600461303b565b6122c1565b348015610a8157600080fd5b506103a4610a9036600461303b565b612339565b348015610aa157600080fd5b506103a4610ab036600461303b565b612404565b80600081118015610ac857506017548111155b610aed5760405162461bcd60e51b8152600401610ae49061368a565b60405180910390fd5b60165481610b02600154600054036000190190565b610b0c91906136ce565b1115610b2a5760405162461bcd60e51b8152600401610ae4906136e6565b8180601554610b399190613714565b341015610b7e5760405162461bcd60e51b8152602060048201526013602482015272496e73756666696369656e742066756e64732160681b6044820152606401610ae4565b60185460ff1615610bd15760405162461bcd60e51b815260206004820152601760248201527f54686520636f6e747261637420697320706175736564210000000000000000006044820152606401610ae4565b610bdf600d80546001019055565b6000610bea600d5490565b9050610bf685856124fe565b6000610c1a6103e8610c14602160155461251890919063ffffffff16565b90612524565b601854909150610c39906201000090046001600160a01b031682612530565b6000610c448361207a565b90507f268b08d15742710b15087dd93f7713e5e48e9648eafa6549133b936957b537a5838289604051610c7993929190613733565b60405180910390a150505050505050565b60006001600160e01b031982166380ac58cd60e01b1480610cbb57506001600160e01b03198216635b5e139f60e01b145b80610cd657506301ffc9a760e01b6001600160e01b03198316145b92915050565b606060028054610ceb90613764565b80601f0160208091040260200160405190810160405280929190818152602001828054610d1790613764565b8015610d645780601f10610d3957610100808354040283529160200191610d64565b820191906000526020600020905b815481529060010190602001808311610d4757829003601f168201915b5050505050905090565b6000610d7982612649565b610d96576040516333d1c03960e21b815260040160405180910390fd5b506000908152600660205260409020546001600160a01b031690565b6000610dbd8261128d565b9050806001600160a01b0316836001600160a01b03161415610df25760405163250fdee360e21b815260040160405180910390fd5b336001600160a01b03821614610e2957610e0c8133612293565b610e29576040516367d9dca160e11b815260040160405180910390fd5b610e34838383612682565b505050565b600b546001600160a01b03163314610e635760405162461bcd60e51b8152600401610ae49061379f565b601980546001600160a01b0319166001600160a01b0392909216919091179055565b600b546001600160a01b03163314610eaf5760405162461bcd60e51b8152600401610ae49061379f565b8051610ec2906012906020840190612eaa565b5050565b600b546001600160a01b03163314610ef05760405162461bcd60e51b8152600401610ae49061379f565b6018805460ff1916911515919091179055565b610e348383836126de565b600a546001600160a01b03163314610f385760405162461bcd60e51b8152600401610ae4906137e2565b6001600160a01b038116610f4b57600080fd5b600a80546001600160a01b0319166001600160a01b0383169081179091556040519081527f83430a5ceb5107ce76c0ebe77c43cdc5ddbd9d2269f5c7fe175933cd3d3b2ad8906020015b60405180910390a150565b60148054610fad90613764565b80601f0160208091040260200160405190810160405280929190818152602001828054610fd990613764565b80156110265780601f10610ffb57610100808354040283529160200191611026565b820191906000526020600020905b81548152906001019060200180831161100957829003601f168201915b505050505081565b600a546000906001600160a01b03163314806110545750600b546001600160a01b031633145b8061106957506008546001600160a01b031633145b6110855760405162461bcd60e51b8152600401610ae490613825565b50600c546001600160a01b031690565b610e3483838360405180602001604052806000815250611de0565b600a546000906001600160a01b03163314806110d65750600b546001600160a01b031633145b806110eb57506008546001600160a01b031633145b6111075760405162461bcd60e51b8152600401610ae490613825565b50600b546001600160a01b031690565b600a546001600160a01b031633148061113a5750600b546001600160a01b031633145b8061114f57506008546001600160a01b031633145b61116b5760405162461bcd60e51b8152600401610ae490613825565b601555565b600b546001600160a01b0316331461119a5760405162461bcd60e51b8152600401610ae49061379f565b8051610ec2906013906020840190612eaa565b60128054610fad90613764565b80516060906000816001600160401b038111156111d9576111d9613058565b60405190808252806020026020018201604052801561122457816020015b60408051606081018252600080825260208083018290529282015282526000199092019101816111f75790505b50905060005b828114611278576112538582815181106112465761124661386b565b6020026020010151611fc0565b8282815181106112655761126561386b565b602090810291909101015260010161122a565b509392505050565b60118054610fad90613764565b6000611298826128cb565b5192915050565b600b546000906001600160a01b031633146112cc5760405162461bcd60e51b8152600401610ae49061379f565b506019546001600160a01b031690565b600b546001600160a01b031633146113065760405162461bcd60e51b8152600401610ae49061379f565b601880546001600160a01b03909216620100000262010000600160b01b0319909216919091179055565b8260008111801561134357506017548111155b61135f5760405162461bcd60e51b8152600401610ae49061368a565b60165481611374600154600054036000190190565b61137e91906136ce565b111561139c5760405162461bcd60e51b8152600401610ae4906136e6565b83806015546113ab9190613714565b3410156113f05760405162461bcd60e51b8152602060048201526013602482015272496e73756666696369656e742066756e64732160681b6044820152606401610ae4565b60105460ff1661144d5760405162461bcd60e51b815260206004820152602260248201527f5468652077686974656c6973742073616c65206973206e6f7420656e61626c65604482015261642160f01b6064820152608401610ae4565b336000908152600f602052604090205460ff16156114ad5760405162461bcd60e51b815260206004820152601860248201527f4164647265737320616c726561647920636c61696d65642100000000000000006044820152606401610ae4565b6040516bffffffffffffffffffffffff193360601b16602082015260009060340160405160208183030381529060405280519060200120905061152785858080602002602001604051908101604052809392919081815260200183836020028082843760009201919091525050600e5491508490506129ed565b6115645760405162461bcd60e51b815260206004820152600e60248201526d496e76616c69642070726f6f662160901b6044820152606401610ae4565b611572600d80546001019055565b600061157d600d5490565b905061158988886124fe565b6001600160a01b0388166000908152600f60205260408120805460ff191660011790556015546115c2906103e890610c14906021612518565b6018549091506115e1906201000090046001600160a01b031682612530565b60006115ec8361207a565b90507f268b08d15742710b15087dd93f7713e5e48e9648eafa6549133b936957b537a583828c60405161162193929190613733565b60405180910390a150505050505050505050565b60006001600160a01b03821661165e576040516323d3ad8160e21b815260040160405180910390fd5b506001600160a01b03166000908152600560205260409020546001600160401b031690565b6008546001600160a01b031633146116dd5760405162461bcd60e51b815260206004820181905260248201527f4f776e61626c653a2063616c6c6572206973206e6f7420746865206f776e65726044820152606401610ae4565b6116e76000612a03565b565b600b546001600160a01b031633146117135760405162461bcd60e51b8152600401610ae49061379f565b601a80546001600160a01b0319166001600160a01b0392909216919091179055565b600b546001600160a01b0316331461175f5760405162461bcd60e51b8152600401610ae49061379f565b600e55565b600b546001600160a01b0316331461178e5760405162461bcd60e51b8152600401610ae49061379f565b8051610ec2906011906020840190612eaa565b601a546060906001600160a01b03166117b957919050565b601a5460405163943adee360e01b8152306004820152602481018490526001600160a01b039091169063943adee390604401600060405180830381600087803b15801561180557600080fd5b505af1158015611819573d6000803e3d6000fd5b505050506040513d6000823e601f3d908101601f19168201604052610cd691908101906138eb565b6060600080600061185185611635565b90506000816001600160401b0381111561186d5761186d613058565b604051908082528060200260200182016040528015611896578160200160208202803683370190505b5090506118bc604080516060810182526000808252602082018190529181019190915290565b60015b83861461198257600081815260046020908152604091829020825160608101845290546001600160a01b0381168252600160a01b81046001600160401b031692820192909252600160e01b90910460ff161580159282019290925292506119255761197a565b81516001600160a01b03161561193a57815194505b876001600160a01b0316856001600160a01b0316141561197a578083878060010198508151811061196d5761196d61386b565b6020026020010181815250505b6001016118bf565b50909695505050505050565b806000811180156119a157506017548111155b6119bd5760405162461bcd60e51b8152600401610ae49061368a565b601654816119d2600154600054036000190190565b6119dc91906136ce565b11156119fa5760405162461bcd60e51b8152600401610ae4906136e6565b600a546001600160a01b0316331480611a1d5750600b546001600160a01b031633145b80611a3257506008546001600160a01b031633145b611a4e5760405162461bcd60e51b8152600401610ae490613825565b610e3483836124fe565b60185460609060ff61010090910416151560011415611af757601954604051632c0df8c560e01b8152306004820152602481018490526001600160a01b0390911690632c0df8c59060440160006040518083038186803b158015611abb57600080fd5b505afa158015611acf573d6000803e3d6000fd5b505050506040513d6000823e601f3d908101601f19168201604052610cd69190810190613a5b565b919050565b606060038054610ceb90613764565b6060818310611b2d57604051631960ccad60e11b815260040160405180910390fd5b600080546001851015611b3f57600194505b80841115611b4b578093505b6000611b5687611635565b905084861015611b755785850381811015611b6f578091505b50611b79565b5060005b6000816001600160401b03811115611b9357611b93613058565b604051908082528060200260200182016040528015611bbc578160200160208202803683370190505b50905081611bcf579350611cca92505050565b6000611bda88611fc0565b905060008160400151611beb575080515b885b888114158015611bfd5750848714155b15611cbe57600081815260046020908152604091829020825160608101845290546001600160a01b0381168252600160a01b81046001600160401b031692820192909252600160e01b90910460ff16158015928201929092529350611c6157611cb6565b82516001600160a01b031615611c7657825191505b8a6001600160a01b0316826001600160a01b03161415611cb65780848880600101995081518110611ca957611ca961386b565b6020026020010181815250505b600101611bed565b50505092835250909150505b9392505050565b6001600160a01b038216331415611cfb5760405163b06307db60e01b815260040160405180910390fd5b3360008181526007602090815260408083206001600160a01b03871680855290835292819020805460ff191686151590811790915590519081529192917f17307eab39ab6107e8899845ad3d59bd9653f200f220920489ca2b5937696c31910160405180910390a35050565b60138054610fad90613764565b600b546001600160a01b03163314611d9e5760405162461bcd60e51b8152600401610ae49061379f565b601755565b600b546001600160a01b03163314611dcd5760405162461bcd60e51b8152600401610ae49061379f565b6010805460ff1916911515919091179055565b611deb8484846126de565b6001600160a01b0383163b15611e2457611e0784848484612a55565b611e24576040516368d2bf6b60e11b815260040160405180910390fd5b50505050565b600a546001600160a01b03163314611e545760405162461bcd60e51b8152600401610ae4906137e2565b60026009541415611ea75760405162461bcd60e51b815260206004820152601f60248201527f5265656e7472616e637947756172643a207265656e7472616e742063616c6c006044820152606401610ae4565b600260098190555060004790506000306001600160a01b0316633b19e84a6040518163ffffffff1660e01b815260040160206040518083038186803b158015611eef57600080fd5b505afa158015611f03573d6000803e3d6000fd5b505050506040513d601f19601f82011682018060405250810190611f279190613afe565b6001600160a01b03168260405160006040518083038185875af1925050503d8060008114611f71576040519150601f19603f3d011682016040523d82523d6000602084013e611f76565b606091505b5050905080611f8457600080fd5b6040518281527f4a37b25aab49761ecf63117fe82b98d750917451133cf797507bc9fb5b96044a9060200160405180910390a150506001600955565b6040805160608082018352600080835260208084018290528385018290528451928301855281835282018190529281019290925290600183108061200657506000548310155b156120115792915050565b50600082815260046020908152604091829020825160608101845290546001600160a01b0381168252600160a01b81046001600160401b031692820192909252600160e01b90910460ff1615801592820192909252906120715792915050565b611cca836128cb565b606061208582612649565b6120e95760405162461bcd60e51b815260206004820152602f60248201527f4552433732314d657461646174613a2055524920717565727920666f72206e6f60448201526e3732bc34b9ba32b73a103a37b5b2b760891b6064820152608401610ae4565b601854610100900460ff1661218a576013805461210590613764565b80601f016020809104026020016040519081016040528092919081815260200182805461213190613764565b801561217e5780601f106121535761010080835404028352916020019161217e565b820191906000526020600020905b81548152906001019060200180831161216157829003601f168201915b50505050509050919050565b6000612194612b4d565b905060008151116121b45760405180602001604052806000815250611cca565b806121be84612b5c565b60126040516020016121d293929190613b1b565b6040516020818303038152906040529392505050565b600a546000906001600160a01b031633148061220e5750600b546001600160a01b031633145b8061222357506008546001600160a01b031633145b61223f5760405162461bcd60e51b8152600401610ae490613825565b50600a546001600160a01b031690565b600b546001600160a01b031633146122795760405162461bcd60e51b8152600401610ae49061379f565b601880549115156101000261ff0019909216919091179055565b6001600160a01b03918216600090815260076020908152604080832093909416825291909152205460ff1690565b600a546001600160a01b031633146122eb5760405162461bcd60e51b8152600401610ae4906137e2565b600c80546001600160a01b0319166001600160a01b0383169081179091556040519081527f7dae230f18360d76a040c81f050aa14eb9d6dc7901b20fc5d855e2a20fe814d190602001610f95565b6008546001600160a01b031633146123935760405162461bcd60e51b815260206004820181905260248201527f4f776e61626c653a2063616c6c6572206973206e6f7420746865206f776e65726044820152606401610ae4565b6001600160a01b0381166123f85760405162461bcd60e51b815260206004820152602660248201527f4f776e61626c653a206e6577206f776e657220697320746865207a65726f206160448201526564647265737360d01b6064820152608401610ae4565b61240181612a03565b50565b600a546001600160a01b03163314806124275750600b546001600160a01b031633145b8061243c57506008546001600160a01b031633145b6124585760405162461bcd60e51b8152600401610ae490613825565b6001600160a01b03811661246b57600080fd5b600b80546001600160a01b0319166001600160a01b0383169081179091556040519081527f1f93b83ae610ff0234bc9cdd94f27cc0000fc5c6e4b021ece77a1fcb043df06290602001610f95565b610ec282826040516024016124cf929190613bdf565b60408051601f198184030181529190526020810180516001600160e01b031663319af33360e01b179052612c59565b610ec2828260405180602001604052806000815250612c7a565b6000611cca8284613714565b6000611cca8284613c1f565b804710156125805760405162461bcd60e51b815260206004820152601d60248201527f416464726573733a20696e73756666696369656e742062616c616e63650000006044820152606401610ae4565b6000826001600160a01b03168260405160006040518083038185875af1925050503d80600081146125cd576040519150601f19603f3d011682016040523d82523d6000602084013e6125d2565b606091505b5050905080610e345760405162461bcd60e51b815260206004820152603a60248201527f416464726573733a20756e61626c6520746f2073656e642076616c75652c207260448201527f6563697069656e74206d617920686176652072657665727465640000000000006064820152608401610ae4565b60008160011115801561265d575060005482105b8015610cd6575050600090815260046020526040902054600160e01b900460ff161590565b60008281526006602052604080822080546001600160a01b0319166001600160a01b0387811691821790925591518593918516917f8c5be1e5ebec7d5bd14f71427d1e84f3dd0314c0f7b2291e5b200ac8c7c3b92591a4505050565b60006126e9826128cb565b9050836001600160a01b031681600001516001600160a01b0316146127205760405162a1148160e81b815260040160405180910390fd5b6000336001600160a01b038616148061273e575061273e8533612293565b8061275957503361274e84610d6e565b6001600160a01b0316145b90508061277957604051632ce44b5f60e11b815260040160405180910390fd5b6001600160a01b0384166127a057604051633a954ecd60e21b815260040160405180910390fd5b6127ac60008487612682565b6001600160a01b038581166000908152600560209081526040808320805467ffffffffffffffff198082166001600160401b0392831660001901831617909255898616808652838620805493841693831660019081018416949094179055898652600490945282852080546001600160e01b031916909417600160a01b4290921691909102178355870180845292208054919390911661288057600054821461288057805460208601516001600160401b0316600160a01b026001600160e01b03199091166001600160a01b038a16171781555b50505082846001600160a01b0316866001600160a01b03167fddf252ad1be2c89b69c2b068fc378daa952ba7f163c4a11628f55a4df523b3ef60405160405180910390a45050505050565b604080516060810182526000808252602082018190529181019190915281806001116129d4576000548110156129d457600081815260046020908152604091829020825160608101845290546001600160a01b0381168252600160a01b81046001600160401b031692820192909252600160e01b90910460ff161515918101829052906129d25780516001600160a01b031615612969579392505050565b5060001901600081815260046020908152604091829020825160608101845290546001600160a01b038116808352600160a01b82046001600160401b031693830193909352600160e01b900460ff16151592810192909252156129cd579392505050565b612969565b505b604051636f96cda160e11b815260040160405180910390fd5b6000826129fa8584612e3e565b14949350505050565b600880546001600160a01b038381166001600160a01b0319831681179093556040519116919082907f8be0079c531659141344cd1fd0a4f28419497f9722a3daafe3b4186f6b6457e090600090a35050565b604051630a85bd0160e11b81526000906001600160a01b0385169063150b7a0290612a8a903390899088908890600401613c33565b602060405180830381600087803b158015612aa457600080fd5b505af1925050508015612ad4575060408051601f3d908101601f19168201909252612ad191810190613c70565b60015b612b2f573d808015612b02576040519150601f19603f3d011682016040523d82523d6000602084013e612b07565b606091505b508051612b27576040516368d2bf6b60e11b815260040160405180910390fd5b805181602001fd5b6001600160e01b031916630a85bd0160e11b1490505b949350505050565b606060118054610ceb90613764565b606081612b805750506040805180820190915260018152600360fc1b602082015290565b8160005b8115612baa5780612b9481613c8d565b9150612ba39050600a83613c1f565b9150612b84565b6000816001600160401b03811115612bc457612bc4613058565b6040519080825280601f01601f191660200182016040528015612bee576020820181803683370190505b5090505b8415612b4557612c03600183613ca8565b9150612c10600a86613cbf565b612c1b9060306136ce565b60f81b818381518110612c3057612c3061386b565b60200101906001600160f81b031916908160001a905350612c52600a86613c1f565b9450612bf2565b80516a636f6e736f6c652e6c6f67602083016000808483855afa5050505050565b6000546001600160a01b038416612ca357604051622e076360e81b815260040160405180910390fd5b82612cc15760405163b562e8dd60e01b815260040160405180910390fd5b6001600160a01b038416600081815260056020908152604080832080546fffffffffffffffffffffffffffffffff1981166001600160401b038083168b0181169182176801000000000000000067ffffffffffffffff1990941690921783900481168b01811690920217909155858452600490925290912080546001600160e01b0319168317600160a01b42909316929092029190911790558190818501903b15612de9575b60405182906001600160a01b038816906000907fddf252ad1be2c89b69c2b068fc378daa952ba7f163c4a11628f55a4df523b3ef908290a4612db26000878480600101955087612a55565b612dcf576040516368d2bf6b60e11b815260040160405180910390fd5b808210612d67578260005414612de457600080fd5b612e2e565b5b6040516001830192906001600160a01b038816906000907fddf252ad1be2c89b69c2b068fc378daa952ba7f163c4a11628f55a4df523b3ef908290a4808210612dea575b506000908155611e249085838684565b600081815b8451811015611278576000858281518110612e6057612e6061386b565b60200260200101519050808311612e865760008381526020829052604090209250612e97565b600081815260208490526040902092505b5080612ea281613c8d565b915050612e43565b828054612eb690613764565b90600052602060002090601f016020900481019282612ed85760008555612f1e565b82601f10612ef157805160ff1916838001178555612f1e565b82800160010185558215612f1e579182015b82811115612f1e578251825591602001919060010190612f03565b50612f2a929150612f2e565b5090565b5b80821115612f2a5760008155600101612f2f565b6001600160a01b038116811461240157600080fd5b60008060408385031215612f6b57600080fd5b8235612f7681612f43565b946020939093013593505050565b6001600160e01b03198116811461240157600080fd5b600060208284031215612fac57600080fd5b8135611cca81612f84565b60005b83811015612fd2578181015183820152602001612fba565b83811115611e245750506000910152565b60008151808452612ffb816020860160208601612fb7565b601f01601f19169290920160200192915050565b602081526000611cca6020830184612fe3565b60006020828403121561303457600080fd5b5035919050565b60006020828403121561304d57600080fd5b8135611cca81612f43565b634e487b7160e01b600052604160045260246000fd5b60405161012081016001600160401b038111828210171561309157613091613058565b60405290565b604051601f8201601f191681016001600160401b03811182821017156130bf576130bf613058565b604052919050565b60006001600160401b038211156130e0576130e0613058565b50601f01601f191660200190565b60006131016130fc846130c7565b613097565b905082815283838301111561311557600080fd5b828260208301376000602084830101529392505050565b60006020828403121561313e57600080fd5b81356001600160401b0381111561315457600080fd5b8201601f8101841361316557600080fd5b612b45848235602084016130ee565b801515811461240157600080fd5b60006020828403121561319457600080fd5b8135611cca81613174565b6000806000606084860312156131b457600080fd5b83356131bf81612f43565b925060208401356131cf81612f43565b929592945050506040919091013590565b60006001600160401b038211156131f9576131f9613058565b5060051b60200190565b6000602080838503121561321657600080fd5b82356001600160401b0381111561322c57600080fd5b8301601f8101851361323d57600080fd5b803561324b6130fc826131e0565b81815260059190911b8201830190838101908783111561326a57600080fd5b928401925b828410156132885783358252928401929084019061326f565b979650505050505050565b6020808252825182820181905260009190848201906040850190845b81811015611982576132ea83855180516001600160a01b031682526020808201516001600160401b0316908301526040908101511515910152565b92840192606092909201916001016132af565b6000806000806060858703121561331357600080fd5b843561331e81612f43565b93506020850135925060408501356001600160401b038082111561334157600080fd5b818701915087601f83011261335557600080fd5b81358181111561336457600080fd5b8860208260051b850101111561337957600080fd5b95989497505060200194505050565b600481106133a657634e487b7160e01b600052602160045260246000fd5b9052565b60006020808301818452808551808352604092508286019150828160051b87010184880160005b8381101561349257888303603f19018552815180516001600160a01b0316845261012088820151898601528782015161340c89870182613388565b50606080830151828288015261342483880182612fe3565b925050506080808301518683038288015261343f8382612fe3565b9250505060a080830151818701525060c0808301516134618288018215159052565b505060e08281015190860152610100918201516001600160a01b0316919094015293860193908601906001016133d1565b509098975050505050505050565b6020808252825182820181905260009190848201906040850190845b81811015611982578351835292840192918401916001016134bc565b6000602080830181845280855180835260408601915060408160051b870101925083870160005b8281101561352d57603f1988860301845261351b858351612fe3565b945092850192908501906001016134ff565b5092979650505050505050565b60008060006060848603121561354f57600080fd5b833561355a81612f43565b95602085013595506040909401359392505050565b6000806040838503121561358257600080fd5b823561358d81612f43565b9150602083013561359d81613174565b809150509250929050565b600080600080608085870312156135be57600080fd5b84356135c981612f43565b935060208501356135d981612f43565b92506040850135915060608501356001600160401b038111156135fb57600080fd5b8501601f8101871361360c57600080fd5b61361b878235602084016130ee565b91505092959194509250565b81516001600160a01b031681526020808301516001600160401b03169082015260408083015115159082015260608101610cd6565b6000806040838503121561366f57600080fd5b823561367a81612f43565b9150602083013561359d81612f43565b602080825260149082015273496e76616c6964206d696e7420616d6f756e742160601b604082015260600190565b634e487b7160e01b600052601160045260246000fd5b600082198211156136e1576136e16136b8565b500190565b6020808252601490820152734d617820737570706c792065786365656465642160601b604082015260600190565b600081600019048311821515161561372e5761372e6136b8565b500290565b83815260606020820152600061374c6060830185612fe3565b905060018060a01b0383166040830152949350505050565b600181811c9082168061377857607f821691505b6020821081141561379957634e487b7160e01b600052602260045260246000fd5b50919050565b60208082526023908201527f5175616e746567794c616273416363657373436f6e74726f6c3a2043544f206f6040820152626e6c7960e81b606082015260800190565b60208082526023908201527f5175616e746567794c616273416363657373436f6e74726f6c3a2043454f206f6040820152626e6c7960e81b606082015260800190565b60208082526026908201527f5175616e746567794c616273416363657373436f6e74726f6c3a2041646d696e60408201526573206f6e6c7960d01b606082015260800190565b634e487b7160e01b600052603260045260246000fd5b8051611af781612f43565b805160048110611af757600080fd5b600082601f8301126138ac57600080fd5b81516138ba6130fc826130c7565b8181528460208386010111156138cf57600080fd5b612b45826020830160208701612fb7565b8051611af781613174565b600060208083850312156138fe57600080fd5b82516001600160401b038082111561391557600080fd5b818501915085601f83011261392957600080fd5b81516139376130fc826131e0565b81815260059190911b8301840190848101908883111561395657600080fd5b8585015b83811015613a4e5780518581111561397157600080fd5b8601610120818c03601f190181131561398957600080fd5b61399161306e565b61399c8a8401613881565b815260408301518a8201526139b36060840161388c565b60408201526080830151888111156139cb5760008081fd5b6139d98e8c8387010161389b565b60608301525060a080840151898111156139f35760008081fd5b613a018f8d8388010161389b565b60808401525060c0808501518284015260e09150613a208286016138e0565b908301526101008481015182840152613a3a848601613881565b90830152508552505091860191860161395a565b5098975050505050505050565b60006020808385031215613a6e57600080fd5b82516001600160401b0380821115613a8557600080fd5b818501915085601f830112613a9957600080fd5b8151613aa76130fc826131e0565b81815260059190911b83018401908481019088831115613ac657600080fd5b8585015b83811015613a4e57805185811115613ae25760008081fd5b613af08b89838a010161389b565b845250918601918601613aca565b600060208284031215613b1057600080fd5b8151611cca81612f43565b600084516020613b2e8285838a01612fb7565b855191840191613b418184848a01612fb7565b8554920191600090600181811c9080831680613b5e57607f831692505b858310811415613b7c57634e487b7160e01b85526022600452602485fd5b808015613b905760018114613ba157613bce565b60ff19851688528388019550613bce565b60008b81526020902060005b85811015613bc65781548a820152908401908801613bad565b505083880195505b50939b9a5050505050505050505050565b604081526000613bf26040830185612fe3565b905060018060a01b03831660208301529392505050565b634e487b7160e01b600052601260045260246000fd5b600082613c2e57613c2e613c09565b500490565b6001600160a01b0385811682528416602082015260408101839052608060608201819052600090613c6690830184612fe3565b9695505050505050565b600060208284031215613c8257600080fd5b8151611cca81612f84565b6000600019821415613ca157613ca16136b8565b5060010190565b600082821015613cba57613cba6136b8565b500390565b600082613cce57613cce613c09565b50069056fea2646970667358221220eb6d6d5597e9031aa7006e1f78d558f7f2e9820e705b809cd402fe2dd9bde3d564736f6c6343000809003374686973206973206e6f7420616c6c6f77656420746f206265207365656e20756e74696c2072657665616c5175616e746567794c616273416363657373436f6e74726f6c3a2043544f206f4465706c6f79696e67205175616e746567794c616273416363657373436f6e74726f6c20636f6e74726163742066726f6d43454f20616e642043544f2061636365737320686173206265656e20676976656e20746f",
  "linkReferences": {},
  "deployedLinkReferences": {}
}