{
  "_format": "hh-sol-artifact-1",
  "contractName": "QuantegyLabsAccessControl",
  "sourceName": "contracts/QuantegyLabsAccessControl.sol",
  "abi": [
    {
      "inputs": [],
      "stateMutability": "nonpayable",
      "type": "constructor"
    },
    {
      "anonymous": false,
      "inputs": [
        {
          "indexed": false,
          "internalType": "address",
          "name": "newCEO",
          "type": "address"
        }
      ],
      "name": "CEOUpdated",
      "type": "event"
    },
    {
      "anonymous": false,
      "inputs": [
        {
          "indexed": false,
          "internalType": "address",
          "name": "newCTO",
          "type": "address"
        }
      ],
      "name": "CTOUpdated",
      "type": "event"
    },
    {
      "anonymous": false,
      "inputs": [
        {
          "indexed": true,
          "internalType": "address",
          "name": "previousOwner",
          "type": "address"
        },
        {
          "indexed": true,
          "internalType": "address",
          "name": "newOwner",
          "type": "address"
        }
      ],
      "name": "OwnershipTransferred",
      "type": "event"
    },
    {
      "anonymous": false,
      "inputs": [
        {
          "indexed": false,
          "internalType": "address",
          "name": "newTreasuryAddress",
          "type": "address"
        }
      ],
      "name": "TreasuryUpdated",
      "type": "event"
    },
    {
      "inputs": [],
      "name": "getCEO",
      "outputs": [
        {
          "internalType": "address",
          "name": "",
          "type": "address"
        }
      ],
      "stateMutability": "view",
      "type": "function"
    },
    {
      "inputs": [],
      "name": "getCTO",
      "outputs": [
        {
          "internalType": "address",
          "name": "",
          "type": "address"
        }
      ],
      "stateMutability": "view",
      "type": "function"
    },
    {
      "inputs": [],
      "name": "getTreasury",
      "outputs": [
        {
          "internalType": "address",
          "name": "",
          "type": "address"
        }
      ],
      "stateMutability": "view",
      "type": "function"
    },
    {
      "inputs": [],
      "name": "owner",
      "outputs": [
        {
          "internalType": "address",
          "name": "",
          "type": "address"
        }
      ],
      "stateMutability": "view",
      "type": "function"
    },
    {
      "inputs": [],
      "name": "renounceOwnership",
      "outputs": [],
      "stateMutability": "nonpayable",
      "type": "function"
    },
    {
      "inputs": [
        {
          "internalType": "address",
          "name": "_newCEO",
          "type": "address"
        }
      ],
      "name": "setCEO",
      "outputs": [],
      "stateMutability": "nonpayable",
      "type": "function"
    },
    {
      "inputs": [
        {
          "internalType": "address",
          "name": "_newCTO",
          "type": "address"
        }
      ],
      "name": "setCTO",
      "outputs": [],
      "stateMutability": "nonpayable",
      "type": "function"
    },
    {
      "inputs": [
        {
          "internalType": "address payable",
          "name": "_treasury",
          "type": "address"
        }
      ],
      "name": "setTreasury",
      "outputs": [],
      "stateMutability": "nonpayable",
      "type": "function"
    },
    {
      "inputs": [
        {
          "internalType": "address",
          "name": "newOwner",
          "type": "address"
        }
      ],
      "name": "transferOwnership",
      "outputs": [],
      "stateMutability": "nonpayable",
      "type": "function"
    }
  ],
  "bytecode": "0x608060405234801561001057600080fd5b5061001a336100a0565b6001808190555061004d60405180606001604052806031815260200161094c60319139336100f060201b6105611760201c565b61007960405180606001604052806024815260200161097d60249139336100f060201b6105611760201c565b60028054336001600160a01b031991821681179092556003805490911690911790556101c4565b600080546001600160a01b038381166001600160a01b0319831681178455604051919092169283917f8be0079c531659141344cd1fd0a4f28419497f9722a3daafe3b4186f6b6457e09190a35050565b610139828260405160240161010692919061015e565b60408051601f198184030181529190526020810180516001600160e01b0390811663319af33360e01b1790915261013d16565b5050565b80516a636f6e736f6c652e6c6f67602083016000808483855afa5050505050565b604081526000835180604084015260005b8181101561018c576020818701810151606086840101520161016f565b8181111561019e576000606083860101525b506001600160a01b0393909316602083015250601f91909101601f191601606001919050565b610779806101d36000396000f3fe608060405234801561001057600080fd5b50600436106100935760003560e01c80638da5cb5b116100665780638da5cb5b146100e1578063c8b0e68d146100f2578063f0f44260146100fa578063f2fde38b1461010d578063fe1439b41461012057600080fd5b806327d7874c146100985780633b19e84a146100ad578063433fac85146100d1578063715018a6146100d9575b600080fd5b6100ab6100a6366004610630565b610133565b005b6100b56101ce565b6040516001600160a01b03909116815260200160405180910390f35b6100b5610235565b6100ab61029c565b6000546001600160a01b03166100b5565b6100b5610302565b6100ab610108366004610630565b610369565b6100ab61011b366004610630565b6103e1565b6100ab61012e366004610630565b6104ac565b6002546001600160a01b031633146101665760405162461bcd60e51b815260040161015d90610654565b60405180910390fd5b6001600160a01b03811661017957600080fd5b600280546001600160a01b0319166001600160a01b0383169081179091556040519081527f83430a5ceb5107ce76c0ebe77c43cdc5ddbd9d2269f5c7fe175933cd3d3b2ad8906020015b60405180910390a150565b6002546000906001600160a01b03163314806101f457506003546001600160a01b031633145b8061020957506000546001600160a01b031633145b6102255760405162461bcd60e51b815260040161015d90610697565b506004546001600160a01b031690565b6002546000906001600160a01b031633148061025b57506003546001600160a01b031633145b8061027057506000546001600160a01b031633145b61028c5760405162461bcd60e51b815260040161015d90610697565b506003546001600160a01b031690565b6000546001600160a01b031633146102f65760405162461bcd60e51b815260206004820181905260248201527f4f776e61626c653a2063616c6c6572206973206e6f7420746865206f776e6572604482015260640161015d565b61030060006105aa565b565b6002546000906001600160a01b031633148061032857506003546001600160a01b031633145b8061033d57506000546001600160a01b031633145b6103595760405162461bcd60e51b815260040161015d90610697565b506002546001600160a01b031690565b6002546001600160a01b031633146103935760405162461bcd60e51b815260040161015d90610654565b600480546001600160a01b0319166001600160a01b0383169081179091556040519081527f7dae230f18360d76a040c81f050aa14eb9d6dc7901b20fc5d855e2a20fe814d1906020016101c3565b6000546001600160a01b0316331461043b5760405162461bcd60e51b815260206004820181905260248201527f4f776e61626c653a2063616c6c6572206973206e6f7420746865206f776e6572604482015260640161015d565b6001600160a01b0381166104a05760405162461bcd60e51b815260206004820152602660248201527f4f776e61626c653a206e6577206f776e657220697320746865207a65726f206160448201526564647265737360d01b606482015260840161015d565b6104a9816105aa565b50565b6002546001600160a01b03163314806104cf57506003546001600160a01b031633145b806104e457506000546001600160a01b031633145b6105005760405162461bcd60e51b815260040161015d90610697565b6001600160a01b03811661051357600080fd5b600380546001600160a01b0319166001600160a01b0383169081179091556040519081527f1f93b83ae610ff0234bc9cdd94f27cc0000fc5c6e4b021ece77a1fcb043df062906020016101c3565b6105a682826040516024016105779291906106dd565b60408051601f198184030181529190526020810180516001600160e01b031663319af33360e01b1790526105fa565b5050565b600080546001600160a01b038381166001600160a01b0319831681178455604051919092169283917f8be0079c531659141344cd1fd0a4f28419497f9722a3daafe3b4186f6b6457e09190a35050565b80516a636f6e736f6c652e6c6f67602083016000808483855afa5050505050565b6001600160a01b03811681146104a957600080fd5b60006020828403121561064257600080fd5b813561064d8161061b565b9392505050565b60208082526023908201527f5175616e746567794c616273416363657373436f6e74726f6c3a2043454f206f6040820152626e6c7960e81b606082015260800190565b60208082526026908201527f5175616e746567794c616273416363657373436f6e74726f6c3a2041646d696e60408201526573206f6e6c7960d01b606082015260800190565b604081526000835180604084015260005b8181101561070b57602081870181015160608684010152016106ee565b8181111561071d576000606083860101525b506001600160a01b0393909316602083015250601f91909101601f19160160600191905056fea26469706673582212207552077e1bb3b3e54ff0e857748cc1f2e49e4e30b77fba2edcade7fe7ad52f7e64736f6c634300080900334465706c6f79696e67205175616e746567794c616273416363657373436f6e74726f6c20636f6e74726163742066726f6d43454f20616e642043544f2061636365737320686173206265656e20676976656e20746f",
  "linkReferences": {},
  "deployedLinkReferences": {}
}