{
  "_format": "hh-sol-artifact-1",
  "contractName": "ClaimCenter",
  "sourceName": "contracts/ClaimCenter.sol",
  "abi": [
    {
      "inputs": [],
      "stateMutability": "nonpayable",
      "type": "constructor"
    },
    {
      "anonymous": false,
      "inputs": [
        {
          "indexed": false,
          "internalType": "address",
          "name": "newCEO",
          "type": "address"
        }
      ],
      "name": "CEOUpdated",
      "type": "event"
    },
    {
      "anonymous": false,
      "inputs": [
        {
          "indexed": false,
          "internalType": "address",
          "name": "newCTO",
          "type": "address"
        }
      ],
      "name": "CTOUpdated",
      "type": "event"
    },
    {
      "anonymous": false,
      "inputs": [
        {
          "indexed": true,
          "internalType": "address",
          "name": "previousOwner",
          "type": "address"
        },
        {
          "indexed": true,
          "internalType": "address",
          "name": "newOwner",
          "type": "address"
        }
      ],
      "name": "OwnershipTransferred",
      "type": "event"
    },
    {
      "anonymous": false,
      "inputs": [
        {
          "indexed": false,
          "internalType": "address",
          "name": "newTreasuryAddress",
          "type": "address"
        }
      ],
      "name": "TreasuryUpdated",
      "type": "event"
    },
    {
      "inputs": [
        {
          "internalType": "address",
          "name": "_collectionContractAddr",
          "type": "address"
        },
        {
          "internalType": "uint256",
          "name": "_tokenId",
          "type": "uint256"
        },
        {
          "internalType": "enum RedeemableType",
          "name": "_type",
          "type": "uint8"
        },
        {
          "internalType": "string",
          "name": "_key",
          "type": "string"
        },
        {
          "internalType": "string",
          "name": "_name",
          "type": "string"
        }
      ],
      "name": "addTokenRedeemable",
      "outputs": [
        {
          "components": [
            {
              "internalType": "address",
              "name": "collectionAddress",
              "type": "address"
            },
            {
              "internalType": "uint256",
              "name": "tokenId",
              "type": "uint256"
            },
            {
              "internalType": "enum RedeemableType",
              "name": "redeemableType",
              "type": "uint8"
            },
            {
              "internalType": "string",
              "name": "key",
              "type": "string"
            },
            {
              "internalType": "string",
              "name": "name",
              "type": "string"
            },
            {
              "internalType": "uint256",
              "name": "createdAt",
              "type": "uint256"
            },
            {
              "internalType": "bool",
              "name": "claimed",
              "type": "bool"
            },
            {
              "internalType": "uint256",
              "name": "claimedAt",
              "type": "uint256"
            },
            {
              "internalType": "address",
              "name": "claimedBy",
              "type": "address"
            }
          ],
          "internalType": "struct RedeemableItem[]",
          "name": "",
          "type": "tuple[]"
        }
      ],
      "stateMutability": "nonpayable",
      "type": "function"
    },
    {
      "inputs": [
        {
          "internalType": "address",
          "name": "",
          "type": "address"
        },
        {
          "internalType": "uint256",
          "name": "",
          "type": "uint256"
        },
        {
          "internalType": "uint256",
          "name": "",
          "type": "uint256"
        }
      ],
      "name": "claimCenterCollections",
      "outputs": [
        {
          "internalType": "address",
          "name": "collectionAddress",
          "type": "address"
        },
        {
          "internalType": "uint256",
          "name": "tokenId",
          "type": "uint256"
        },
        {
          "internalType": "enum RedeemableType",
          "name": "redeemableType",
          "type": "uint8"
        },
        {
          "internalType": "string",
          "name": "key",
          "type": "string"
        },
        {
          "internalType": "string",
          "name": "name",
          "type": "string"
        },
        {
          "internalType": "uint256",
          "name": "createdAt",
          "type": "uint256"
        },
        {
          "internalType": "bool",
          "name": "claimed",
          "type": "bool"
        },
        {
          "internalType": "uint256",
          "name": "claimedAt",
          "type": "uint256"
        },
        {
          "internalType": "address",
          "name": "claimedBy",
          "type": "address"
        }
      ],
      "stateMutability": "view",
      "type": "function"
    },
    {
      "inputs": [
        {
          "internalType": "address",
          "name": "_collectionContractAddr",
          "type": "address"
        },
        {
          "internalType": "uint256",
          "name": "_tokenId",
          "type": "uint256"
        },
        {
          "internalType": "string",
          "name": "_key",
          "type": "string"
        }
      ],
      "name": "claimTokenRedeemable",
      "outputs": [
        {
          "components": [
            {
              "internalType": "address",
              "name": "collectionAddress",
              "type": "address"
            },
            {
              "internalType": "uint256",
              "name": "tokenId",
              "type": "uint256"
            },
            {
              "internalType": "enum RedeemableType",
              "name": "redeemableType",
              "type": "uint8"
            },
            {
              "internalType": "string",
              "name": "key",
              "type": "string"
            },
            {
              "internalType": "string",
              "name": "name",
              "type": "string"
            },
            {
              "internalType": "uint256",
              "name": "createdAt",
              "type": "uint256"
            },
            {
              "internalType": "bool",
              "name": "claimed",
              "type": "bool"
            },
            {
              "internalType": "uint256",
              "name": "claimedAt",
              "type": "uint256"
            },
            {
              "internalType": "address",
              "name": "claimedBy",
              "type": "address"
            }
          ],
          "internalType": "struct RedeemableItem",
          "name": "",
          "type": "tuple"
        }
      ],
      "stateMutability": "nonpayable",
      "type": "function"
    },
    {
      "inputs": [],
      "name": "getCEO",
      "outputs": [
        {
          "internalType": "address",
          "name": "",
          "type": "address"
        }
      ],
      "stateMutability": "view",
      "type": "function"
    },
    {
      "inputs": [],
      "name": "getCTO",
      "outputs": [
        {
          "internalType": "address",
          "name": "",
          "type": "address"
        }
      ],
      "stateMutability": "view",
      "type": "function"
    },
    {
      "inputs": [
        {
          "internalType": "address",
          "name": "_collectionContractAddr",
          "type": "address"
        },
        {
          "internalType": "uint256",
          "name": "_tokenId",
          "type": "uint256"
        }
      ],
      "name": "getTokenRedeemables",
      "outputs": [
        {
          "components": [
            {
              "internalType": "address",
              "name": "collectionAddress",
              "type": "address"
            },
            {
              "internalType": "uint256",
              "name": "tokenId",
              "type": "uint256"
            },
            {
              "internalType": "enum RedeemableType",
              "name": "redeemableType",
              "type": "uint8"
            },
            {
              "internalType": "string",
              "name": "key",
              "type": "string"
            },
            {
              "internalType": "string",
              "name": "name",
              "type": "string"
            },
            {
              "internalType": "uint256",
              "name": "createdAt",
              "type": "uint256"
            },
            {
              "internalType": "bool",
              "name": "claimed",
              "type": "bool"
            },
            {
              "internalType": "uint256",
              "name": "claimedAt",
              "type": "uint256"
            },
            {
              "internalType": "address",
              "name": "claimedBy",
              "type": "address"
            }
          ],
          "internalType": "struct RedeemableItem[]",
          "name": "",
          "type": "tuple[]"
        }
      ],
      "stateMutability": "view",
      "type": "function"
    },
    {
      "inputs": [],
      "name": "getTreasury",
      "outputs": [
        {
          "internalType": "address",
          "name": "",
          "type": "address"
        }
      ],
      "stateMutability": "view",
      "type": "function"
    },
    {
      "inputs": [],
      "name": "owner",
      "outputs": [
        {
          "internalType": "address",
          "name": "",
          "type": "address"
        }
      ],
      "stateMutability": "view",
      "type": "function"
    },
    {
      "inputs": [],
      "name": "renounceOwnership",
      "outputs": [],
      "stateMutability": "nonpayable",
      "type": "function"
    },
    {
      "inputs": [
        {
          "internalType": "address",
          "name": "_newCEO",
          "type": "address"
        }
      ],
      "name": "setCEO",
      "outputs": [],
      "stateMutability": "nonpayable",
      "type": "function"
    },
    {
      "inputs": [
        {
          "internalType": "address",
          "name": "_newCTO",
          "type": "address"
        }
      ],
      "name": "setCTO",
      "outputs": [],
      "stateMutability": "nonpayable",
      "type": "function"
    },
    {
      "inputs": [
        {
          "internalType": "address payable",
          "name": "_treasury",
          "type": "address"
        }
      ],
      "name": "setTreasury",
      "outputs": [],
      "stateMutability": "nonpayable",
      "type": "function"
    },
    {
      "inputs": [
        {
          "internalType": "address",
          "name": "newOwner",
          "type": "address"
        }
      ],
      "name": "transferOwnership",
      "outputs": [],
      "stateMutability": "nonpayable",
      "type": "function"
    }
  ],
  "bytecode": "0x60806040523480156200001157600080fd5b506200001d33620000dd565b600180819055506200005460405180606001604052806031815260200162001b3860319139336200012d60201b6200116e1760201c565b6200008460405180606001604052806024815260200162001b6960249139336200012d60201b6200116e1760201c565b60028054336001600160a01b0319918216811790925560038054909116909117905560408051606081019091526023808252620000d7919062001b156020830139336200012d60201b6200116e1760201c565b62000208565b600080546001600160a01b038381166001600160a01b0319831681178455604051919092169283917f8be0079c531659141344cd1fd0a4f28419497f9722a3daafe3b4186f6b6457e09190a35050565b6200017a8282604051602401620001469291906200019f565b60408051601f198184030181529190526020810180516001600160e01b0390811663319af33360e01b179091526200017e16565b5050565b80516a636f6e736f6c652e6c6f67602083016000808483855afa5050505050565b604081526000835180604084015260005b81811015620001cf5760208187018101516060868401015201620001b0565b81811115620001e2576000606083860101525b506001600160a01b0393909316602083015250601f91909101601f191601606001919050565b6118fd80620002186000396000f3fe608060405234801561001057600080fd5b50600436106100cf5760003560e01c8063943adee31161008c578063c8b0e68d11610066578063c8b0e68d146101ae578063f0f44260146101b6578063f2fde38b146101c9578063fe1439b4146101dc57600080fd5b8063943adee314610153578063a16ebf2814610166578063a93b18f11461018e57600080fd5b80630f1486f3146100d457806327d7874c146100fd5780633b19e84a14610112578063433fac8514610132578063715018a61461013a5780638da5cb5b14610142575b600080fd5b6100e76100e23660046113d0565b6101ef565b6040516100f491906115ab565b60405180910390f35b61011061010b36600461160d565b6105f8565b005b61011a61068a565b6040516001600160a01b0390911681526020016100f4565b61011a6106f1565b610110610758565b6000546001600160a01b031661011a565b6100e7610161366004611631565b6107be565b61017961017436600461165d565b6109ec565b6040516100f499989796959493929190611692565b6101a161019c36600461170d565b610b8c565b6040516100f49190611766565b61011a610f0f565b6101106101c436600461160d565b610f76565b6101106101d736600461160d565b610fee565b6101106101ea36600461160d565b6110b9565b6003546060906001600160a01b0316331461025d5760405162461bcd60e51b815260206004820152602360248201527f5175616e746567794c616273416363657373436f6e74726f6c3a2043544f206f6044820152626e6c7960e81b60648201526084015b60405180910390fd5b6000604051806101200160405280886001600160a01b0316815260200187815260200186600381111561029257610292611467565b81526020808201879052604080830187905242606084015260006080840181905260a0840181905260c09093018390526001600160a01b038b81168452600583528184208b8552835281842080546001808201835591865294849020865160099096020180546001600160a01b031916959092169490941781559184015182840155830151600282018054949550859492939192909160ff199091169083600381111561034157610341611467565b021790555060608201518051610361916003840191602090910190611228565b506080820151805161037d916004840191602090910190611228565b5060a082015160058281019190915560c083015160068301805460ff191691151591909117905560e0830151600783015561010090920151600890910180546001600160a01b0319166001600160a01b03928316179055881660009081526020918252604080822089835283528082208054825181860281018601909352808352919390929084015b828210156105e857600084815260209081902060408051610120810182526009860290920180546001600160a01b0316835260018101549383019390935260028301549192919083019060ff16600381111561046457610464611467565b600381111561047557610475611467565b815260200160038201805461048990611779565b80601f01602080910402602001604051908101604052809291908181526020018280546104b590611779565b80156105025780601f106104d757610100808354040283529160200191610502565b820191906000526020600020905b8154815290600101906020018083116104e557829003601f168201915b5050505050815260200160048201805461051b90611779565b80601f016020809104026020016040519081016040528092919081815260200182805461054790611779565b80156105945780601f1061056957610100808354040283529160200191610594565b820191906000526020600020905b81548152906001019060200180831161057757829003601f168201915b50505091835250506005820154602080830191909152600683015460ff1615156040830152600783015460608301526008909201546001600160a01b03166080909101529082526001929092019101610406565b5050505091505095945050505050565b6002546001600160a01b031633146106225760405162461bcd60e51b8152600401610254906117b4565b6001600160a01b03811661063557600080fd5b600280546001600160a01b0319166001600160a01b0383169081179091556040519081527f83430a5ceb5107ce76c0ebe77c43cdc5ddbd9d2269f5c7fe175933cd3d3b2ad8906020015b60405180910390a150565b6002546000906001600160a01b03163314806106b057506003546001600160a01b031633145b806106c557506000546001600160a01b031633145b6106e15760405162461bcd60e51b8152600401610254906117f7565b506004546001600160a01b031690565b6002546000906001600160a01b031633148061071757506003546001600160a01b031633145b8061072c57506000546001600160a01b031633145b6107485760405162461bcd60e51b8152600401610254906117f7565b506003546001600160a01b031690565b6000546001600160a01b031633146107b25760405162461bcd60e51b815260206004820181905260248201527f4f776e61626c653a2063616c6c6572206973206e6f7420746865206f776e65726044820152606401610254565b6107bc60006111b7565b565b6001600160a01b03821660009081526005602090815260408083208484528252808320805482518185028101850190935280835260609492939192909184015b828210156109e057600084815260209081902060408051610120810182526009860290920180546001600160a01b0316835260018101549383019390935260028301549192919083019060ff16600381111561085c5761085c611467565b600381111561086d5761086d611467565b815260200160038201805461088190611779565b80601f01602080910402602001604051908101604052809291908181526020018280546108ad90611779565b80156108fa5780601f106108cf576101008083540402835291602001916108fa565b820191906000526020600020905b8154815290600101906020018083116108dd57829003601f168201915b5050505050815260200160048201805461091390611779565b80601f016020809104026020016040519081016040528092919081815260200182805461093f90611779565b801561098c5780601f106109615761010080835404028352916020019161098c565b820191906000526020600020905b81548152906001019060200180831161096f57829003601f168201915b50505091835250506005820154602080830191909152600683015460ff1615156040830152600783015460608301526008909201546001600160a01b031660809091015290825260019290920191016107fe565b50505050905092915050565b60056020528260005260406000206020528160005260406000208181548110610a1457600080fd5b600091825260209091206009909102018054600182015460028301546003840180546001600160a01b03909416975091955060ff16935090610a5590611779565b80601f0160208091040260200160405190810160405280929190818152602001828054610a8190611779565b8015610ace5780601f10610aa357610100808354040283529160200191610ace565b820191906000526020600020905b815481529060010190602001808311610ab157829003601f168201915b505050505090806004018054610ae390611779565b80601f0160208091040260200160405190810160405280929190818152602001828054610b0f90611779565b8015610b5c5780601f10610b3157610100808354040283529160200191610b5c565b820191906000526020600020905b815481529060010190602001808311610b3f57829003601f168201915b505050506005830154600684015460078501546008909501549394919360ff90911692506001600160a01b031689565b610b946112ac565b6001600160a01b0384166000908152600560209081526040808320868452825280832080548251818502810185019093528083529192909190849084015b82821015610db457600084815260209081902060408051610120810182526009860290920180546001600160a01b0316835260018101549383019390935260028301549192919083019060ff166003811115610c3057610c30611467565b6003811115610c4157610c41611467565b8152602001600382018054610c5590611779565b80601f0160208091040260200160405190810160405280929190818152602001828054610c8190611779565b8015610cce5780601f10610ca357610100808354040283529160200191610cce565b820191906000526020600020905b815481529060010190602001808311610cb157829003601f168201915b50505050508152602001600482018054610ce790611779565b80601f0160208091040260200160405190810160405280929190818152602001828054610d1390611779565b8015610d605780601f10610d3557610100808354040283529160200191610d60565b820191906000526020600020905b815481529060010190602001808311610d4357829003601f168201915b50505091835250506005820154602080830191909152600683015460ff1615156040830152600783015460608301526008909201546001600160a01b03166080909101529082526001929092019101610bd2565b505050509050610dc26112ac565b60005b82518160ff161015610f055784604051602001610de2919061183d565b60405160208183030381529060405280519060200120838260ff1681518110610e0d57610e0d611859565b602002602001015160600151604051602001610e29919061183d565b604051602081830303815290604052805190602001201415610ef357828160ff1681518110610e5a57610e5a611859565b602002602001015191506001838260ff1681518110610e7b57610e7b611859565b602002602001015160c001901515908115158152505042838260ff1681518110610ea757610ea7611859565b602002602001015160e001818152505033838260ff1681518110610ecd57610ecd611859565b602002602001015161010001906001600160a01b031690816001600160a01b0316815250505b80610efd8161186f565b915050610dc5565b5095945050505050565b6002546000906001600160a01b0316331480610f3557506003546001600160a01b031633145b80610f4a57506000546001600160a01b031633145b610f665760405162461bcd60e51b8152600401610254906117f7565b506002546001600160a01b031690565b6002546001600160a01b03163314610fa05760405162461bcd60e51b8152600401610254906117b4565b600480546001600160a01b0319166001600160a01b0383169081179091556040519081527f7dae230f18360d76a040c81f050aa14eb9d6dc7901b20fc5d855e2a20fe814d19060200161067f565b6000546001600160a01b031633146110485760405162461bcd60e51b815260206004820181905260248201527f4f776e61626c653a2063616c6c6572206973206e6f7420746865206f776e65726044820152606401610254565b6001600160a01b0381166110ad5760405162461bcd60e51b815260206004820152602660248201527f4f776e61626c653a206e6577206f776e657220697320746865207a65726f206160448201526564647265737360d01b6064820152608401610254565b6110b6816111b7565b50565b6002546001600160a01b03163314806110dc57506003546001600160a01b031633145b806110f157506000546001600160a01b031633145b61110d5760405162461bcd60e51b8152600401610254906117f7565b6001600160a01b03811661112057600080fd5b600380546001600160a01b0319166001600160a01b0383169081179091556040519081527f1f93b83ae610ff0234bc9cdd94f27cc0000fc5c6e4b021ece77a1fcb043df0629060200161067f565b6111b3828260405160240161118492919061189d565b60408051601f198184030181529190526020810180516001600160e01b031663319af33360e01b179052611207565b5050565b600080546001600160a01b038381166001600160a01b0319831681178455604051919092169283917f8be0079c531659141344cd1fd0a4f28419497f9722a3daafe3b4186f6b6457e09190a35050565b80516a636f6e736f6c652e6c6f67602083016000808483855afa5050505050565b82805461123490611779565b90600052602060002090601f016020900481019282611256576000855561129c565b82601f1061126f57805160ff191683800117855561129c565b8280016001018555821561129c579182015b8281111561129c578251825591602001919060010190611281565b506112a8929150611303565b5090565b6040805161012081018252600080825260208201819052909182019081526020016060815260200160608152602001600081526020016000151581526020016000815260200160006001600160a01b031681525090565b5b808211156112a85760008155600101611304565b6001600160a01b03811681146110b657600080fd5b634e487b7160e01b600052604160045260246000fd5b600082601f83011261135457600080fd5b813567ffffffffffffffff8082111561136f5761136f61132d565b604051601f8301601f19908116603f011681019082821181831017156113975761139761132d565b816040528381528660208588010111156113b057600080fd5b836020870160208301376000602085830101528094505050505092915050565b600080600080600060a086880312156113e857600080fd5b85356113f381611318565b94506020860135935060408601356004811061140e57600080fd5b9250606086013567ffffffffffffffff8082111561142b57600080fd5b61143789838a01611343565b9350608088013591508082111561144d57600080fd5b5061145a88828901611343565b9150509295509295909350565b634e487b7160e01b600052602160045260246000fd5b6004811061149b57634e487b7160e01b600052602160045260246000fd5b9052565b60005b838110156114ba5781810151838201526020016114a2565b838111156114c9576000848401525b50505050565b600081518084526114e781602086016020860161149f565b601f01601f19169290920160200192915050565b80516001600160a01b031682526000610120602083015160208501526040830151611529604086018261147d565b506060830151816060860152611541828601826114cf565b9150506080830151848203608086015261155b82826114cf565b91505060a083015160a085015260c083015161157b60c086018215159052565b5060e083015160e0850152610100808401516115a1828701826001600160a01b03169052565b5090949350505050565b6000602080830181845280855180835260408601915060408160051b870101925083870160005b8281101561160057603f198886030184526115ee8583516114fb565b945092850192908501906001016115d2565b5092979650505050505050565b60006020828403121561161f57600080fd5b813561162a81611318565b9392505050565b6000806040838503121561164457600080fd5b823561164f81611318565b946020939093013593505050565b60008060006060848603121561167257600080fd5b833561167d81611318565b95602085013595506040909401359392505050565b6001600160a01b038a81168252602082018a9052600090610120906116ba604085018c61147d565b8160608501526116cc8285018b6114cf565b915083820360808501526116e0828a6114cf565b60a085019890985295151560c0840152505060e08101929092529091166101009091015295945050505050565b60008060006060848603121561172257600080fd5b833561172d81611318565b925060208401359150604084013567ffffffffffffffff81111561175057600080fd5b61175c86828701611343565b9150509250925092565b60208152600061162a60208301846114fb565b600181811c9082168061178d57607f821691505b602082108114156117ae57634e487b7160e01b600052602260045260246000fd5b50919050565b60208082526023908201527f5175616e746567794c616273416363657373436f6e74726f6c3a2043454f206f6040820152626e6c7960e81b606082015260800190565b60208082526026908201527f5175616e746567794c616273416363657373436f6e74726f6c3a2041646d696e60408201526573206f6e6c7960d01b606082015260800190565b6000825161184f81846020870161149f565b9190910192915050565b634e487b7160e01b600052603260045260246000fd5b600060ff821660ff81141561189457634e487b7160e01b600052601160045260246000fd5b60010192915050565b6040815260006118b060408301856114cf565b905060018060a01b0383166020830152939250505056fea2646970667358221220863b155e54dab89a98dc34e7d5873e2e7fe1bf094821882bf3bcb56dcf833c2564736f6c634300080900334465706c6f79696e6720436c61696d43656e74657220636f6e74726163742066726f6d4465706c6f79696e67205175616e746567794c616273416363657373436f6e74726f6c20636f6e74726163742066726f6d43454f20616e642043544f2061636365737320686173206265656e20676976656e20746f",
  "linkReferences": {},
  "deployedLinkReferences": {}
}